:020000040800F2
:100000007816002031020008750500086D0500080B
:100010007105000889040008DD0A000800000000DE
:10002000000000000000000000000000F9070008C8
:100030008D0400080000000077050008E9080008AA
:100040004B0200084B0200084B0200084B0200085C
:100050004B0200084B0200084B0200084B0200084C
:100060004B0200084B0200084B0200084B0200083C
:100070004B0200084B0200084B0200084B0200082C
:100080004B0200084B0200084B0200084B0200081C
:100090004B0200084B0200084B0200084B0200080C
:1000A0004B0200084B0200084B0200084B020008FC
:1000B0004B0200084B0200084B0200084B020008EC
:1000C0004B0200084B0200084B0200084B020008DC
:1000D0004B0200084B0200084B0200084B020008CC
:1000E0004B0200084B0200084B0200084B020008BC
:1000F0004B0200084B0200084B0200084B020008AC
:100100004B0200084B0200084B0200084B0200089B
:100110004B0200084B0200084B0200084B0200088B
:100120004B0200084B0200084B0200084B0200087B
:100130004B0200084B0200084B0200084B0200086B
:100140004B0200084B0200084B0200084B0200085B
:100150004B0200084B0200084B0200084B0200084B
:100160004B0200084B0200084B0200084B0200083B
:100170004B0200084B0200084B0200084B0200082B
:100180004B0200084B02000800F002F800F041F8B2
:100190000AA090E8000C82448344AAF10107DA45E2
:1001A00001D100F036F8AFF2090EBAE80F0013F0F3
:1001B000010F18BFFB1A43F001031847740C00002D
:1001C000940C0000103A24BF78C878C1FAD85207BE
:1001D00024BF30C830C144BF04680C6070470000C1
:1001E0000023002400250026103A28BF78C1FBD840
:1001F000520728BF30C148BF0B607047732900F019
:10020000DF80002070471FB500F00CFE1FBD10B549
:1002100010BD00F007F91146FFF7F5FF00F0C6FD2D
:1002200000F025F903B4FFF7F2FF03BC00F0ADFDC9
:100230000948804709480047FEE7FEE7FEE7FEE77A
:10024000FEE7FEE7FEE7FEE7FEE7FEE704480549B6
:10025000054A064B704700000109000889010008A3
:1002600078100020781600207812002078120020E4
:10027000704700000FB4044910B503AA029800F0BB
:10028000A3F810BC5DF814FB000000202DE9F0413C
:100290000E460446002020622046E168884730B3BD
:1002A000252805D0D4E901219047206A401CF2E7B7
:1002B000E168204600278847050018D0A5F14100D5
:1002C000192802D820354FF40067324629462046C7
:1002D0002760FFF793FF40B1012804D0F61D26F0F8
:1002E00007060836D8E7361DD6E72846DAE7206A3B
:1002F000BDE8F08170B50C460546012A05D0287886
:10030000800600D5EA69002302E0012305E05B1CBA
:10031000934202D2E05C0028F9D1A869E618C01A1D
:10032000A861286A184428622846AFF3008004E0D8
:10033000D5E9012114F8010B9047B442F8D32846BF
:10034000AFF3008070BD4FF0000200B51346944635
:100350009646203922BFA0E80C50A0E80C50B1F11D
:100360002001BFF4F7AF090728BFA0E80C5048BF31
:100370000CC05DF804EB890028BF40F8042B08BFCF
:10038000704748BF20F8022B11F0804F18BF00F8CB
:10039000012B7047704770477047704710B543692D
:1003A00013B1AFF3008001E0FFF7A4FF012010BDFF
:1003B000127800F124010A7000224A700122EDE750
:1003C00011684FF0FF32E9E7074B70B50D467B44EB
:1003D00000F011F80446284600F020F810B14FF064
:1003E000FF3070BD204670BDBF09000001694A1C86
:1003F00002610878704700B58FB0CDE90131002166
:10040000059105497944CDE9031011466846FFF787
:100410003DFF0FB000BD0000E5FFFFFF007B00F0D7
:1004200080007047754600F02BF8AE46050069461F
:10043000534620F00700854618B020B5FFF706FFA9
:10044000BDE820404FF000064FF000074FF00008D5
:100450004FF0000B21F00701AC46ACE8C009ACE856
:10046000C009ACE8C009ACE8C0098D46704710B5BA
:100470000446AFF300802046BDE81040FFF7D2BE2F
:10048000004870471410002000BFFEE77047F0B529
:100490000A4600210023002400BF3DE0012505FAA3
:1004A00001F3156805EA03049C4234D105684F0046
:1004B0000326BE40B543056015794E00B540066879
:1004C000354305601579012D02D01579022D16D11D
:1004D00085684F000326BE40B543856055794E00C0
:1004E000B540866835438560456801268E40B54332
:1004F0004560456896798E40B6B235434560C5681B
:100500004F000326BE40B543C560D5794E00B540C7
:10051000C6683543C560491C1029BFD3F0BDF0B58E
:10052000002300244D07ED0E02FA05F3CE1000F172
:10053000200555F826504E07F70E0F26BE40B5434E
:10054000CF1000F1200646F82750CE1000F120050C
:1005500055F8265045EA0304CE1000F1200545F871
:100560002640F0BD418370470183704700BFFEE71E
:1005700000BFFEE77047704729B1064A1268024380
:10058000044B1A6004E0034A12688243014B1A606C
:10059000704700003038024029B1064A1268024311
:1005A000044B1A6004E0034A12688243014B1A604C
:1005B0007047000044380240F0B5002100220024BA
:1005C000022500260223324F3F6807F00C0121B1BB
:1005D000042905D0082937D105E02E4F076036E001
:1005E0002D4F076033E02A4F3F1F3F68C7F3805607
:1005F000274F3F1F3F6807F03F036EB1264FB7FB01
:10060000F3F7DFF88CC0ACF1040CDCF800C0CCF3DD
:10061000881C07FB0CF40CE01E4FB7FBF3F7DFF868
:1006200070C0ACF1040CDCF800C0CCF3881C07FBF4
:100630000CF4174F3F1F3F68C7F301477F1C7D0035
:10064000B4FBF5F7076002E0124F076000BF00BF80
:100650000F4F3F6807F0F0010909104F7A5C0768F7
:10066000D74047600A4F3F6807F4E051890A0B4FB3
:100670007A5C4768D7408760054F3F6807F4604160
:10068000490B064F7A5C4768D740C760F0BD000051
:10069000083802400024F40000127A000400002010
:1006A00000B587B001210220FFF766FF0121080392
:1006B000FFF772FF3820059002208DF81800002007
:1006C0008DF81A0003208DF8190001208DF81B0009
:1006D00005A91D48FFF7DBFE052203211A48FFF795
:1006E0001EFF052204211848FFF719FF05221146B5
:1006F0001548FFF714FF0020ADF800004FF482709A
:10070000ADF802000020ADF804000220ADF80600AC
:100710000120ADF808004002ADF80A000820ADF84D
:100720000C000020ADF80E000720ADF8100069465F
:10073000064800F043F80121044800F025F8FF20A6
:1007400000F006F807B000BD000402400030014090
:1007500010B5044600BF02210A4800F021F8002825
:10076000F9D02146074800F027F800BF01210548CD
:1007700000F016F80028F9D0024800F01AF8C4B2C8
:10078000204610BD0030014021B1028842F04002F5
:10079000028004E002884FF6BF731A40028070475F
:1007A0000246002013890B400BB1012000E000201D
:1007B00070470146888970478181704710B50022D3
:1007C000028802F441520B884C8823438C882343CF
:1007D000CC8823430C8923434C8923438C892343AE
:1007E000CC8923431A430280838B4FF2FF7423404A
:1007F00083830B8A038210BD704700000CB5002074
:10080000019000903448006840F48030324908601C
:1008100000BF3148006800F4003000900198401C8F
:100820000190009818B90198B0F5A04FF1D12A486D
:10083000006800F4003010B10120009001E00020B9
:1008400000900098012846D123484030006840F0CD
:1008500080502149403108602048006840F4404001
:100860001E4908601C48083000681B4908310860B0
:100870000846006840F4004008600846006840F4FC
:10088000A05008601648091F0860081F006840F063
:100890008070091F086000BF0F48006800F00070FA
:1008A0000028F9D040F205700E4908600A48083067
:1008B000006820F003000849083108600846006815
:1008C00040F00200086000BF03480830006800F0F4
:1008D0000C000828F8D10CBD003802400070004020
:1008E00008544007003C0240704700204FF0E021D0
:1008F00008610846006920F00400086170470000A4
:1009000010B51548006840F470001349086013489A
:10091000006840F001001149086000200F490831CB
:1009200008600E4800680E4908400C4908600D48F0
:10093000091D0860081F006820F48020091F086056
:10094000002006490C310860FFF758FF4FF00060A7
:1009500001498039086010BD88ED00E00038024090
:10096000FFFFF6FE1030002410B586B004460121CA
:100970000846FFF701FE01211020FFF70DFE4FF49E
:10098000C060049002208DF8140001208DF817003B
:1009900000208DF8160003208DF8150004A91248D8
:1009A000FFF775FD072209210F48FFF7B8FD072261
:1009B0000A210D48FFF7B3FD00940020ADF80400B4
:1009C000ADF80600ADF80800ADF80C000C20ADF84D
:1009D0000A006946054800F017F80121034800F0B5
:1009E00007F806B010BD00000000024000100140F2
:1009F00021B1828942F40052828104E082894DF65D
:100A0000FF731A40828170472DE9FF4705460E4665
:100A10000024A14600BFA046B08900B100BF2C8AC7
:100A200024F44054F08804432C82AC8941F20C60D9
:100A30008443B08831890843718908430443AC81F9
:100A4000AC8A24F44074B0890443AC826846FFF752
:100A5000B3FD2048854202D01F48854202D1DDF80F
:100A60000C9001E0DDF80890A88900F4004040B146
:100A700009EBC90000EB091031684900B0FBF1F740
:100A800007E009EBC90000EB091031688900B0FBF1
:100A9000F1F76420B7FBF0F004012009642101FBA9
:100AA0001078A88900F4004040B1322000EBC80063
:100AB000B0FBF1F000F00700044308E0322000EB47
:100AC00008106421B0FBF1F000F00F0004432C810A
:100AD000BDE8FF87001001400014014000BFFEE7A1
:100AE0001CB501210220FFF747FD4FF48040009024
:100AF00001208DF8040000208DF8060003208DF8F9
:100B0000050001208DF8070069460548FFF7BFFC86
:100B10004FF480410248FFF727FDFFF7C1FD1CBDE0
:100B20000004024070B506460C46154600F0F8F881
:100B30004FF480410C48FFF715FD0220FFF708FE37
:100B4000304600F079F804E02878FFF701FE6D1CCC
:100B5000641E002CF8D14FF480410348FFF704FDD8
:100B600000F078F870BD00000004024070B5064641
:100B70000C4615464FF480410B48FFF7F3FC032069
:100B8000FFF7E6FD304600F057F805E0FF20FFF7DD
:100B9000DFFD28706D1C641E002CF7D14FF48041DE
:100BA0000148FFF7E1FC70BD0004024070B5044647
:100BB00000250026012C04D0022C04D0032C06D1E1
:100BC00003E0052605E0352603E0152601E00526AD
:100BD00000BF00BF4FF480410848FFF7C3FC304618
:100BE000FFF7B6FDFF20FFF7B3FD05464FF4804148
:100BF0000248FFF7B9FC284670BD0000000402401F
:100C000010B5044600F08CF800F024F84FF4804151
:100C10000848FFF7A7FC2020FFF79AFD204600F0C8
:100C20000BF84FF480410348FFF79EFC00F012F8E8
:100C300010BD00000004024010B50446C4F3074094
:100C4000FFF786FDC4F30720FFF782FDE0B2FFF750
:100C50007FFD10BD10B500BF0120FFF7A7FF00F01A
:100C600001000028F8D110BD2DE9F05F07460E46BF
:100C70009146DFF8A8B04FEA1738C7F30B0ACAF558
:100C80008054A64200DC344644E04FEA08305A461D
:100C90004FF48051FFF76AFF002508E00AEB0500DA
:100CA0001BF80000FF2800D003E0681C85B2A542B5
:100CB000F4DB00BFA54216DA4046FFF7A1FF00258E
:100CC00007E019F8050005EB0A010BF80100681CA4
:100CD00085B2A542F5DB4FEA08305A464FF4805101
:100CE00000F030F804E04A462146384600F02AF881
:100CF000A64200D10FE008F101084FF0000AA1441C
:100D00002744301B86B2B6F5805F02DD4FF4805475
:100D100000E03446B9E700BFBDE8F09F14000020B2
:100D200010B54FF480410648FFF71CFC0620FFF782
:100D30000FFD4FF480410248FFF716FC10BD000084
:100D4000000402402DE9F04106460C461746F0B279
:100D5000C0F58075AC4200DC254612E03A462946D3
:100D60003046FFF7DFFEAC4200D10BE02F442E44AB
:100D7000601B84B2B4F5807F02DD4FF4807500E023
:100D80002546EBE700BFBDE8F08100BF70470000DB
:100D900000BF054A128802F04002002AF9D0C2B210
:100DA000014B9A8070470000001001408CB013A3E3
:100DB0000FCBCDE90A23CDE9080120216846FFF7D2
:100DC000C2FAFFF792FD4FF4E130FFF7CDFDFFF7D8
:100DD00087FE08AA10210020FFF746FF6A4610216F
:100DE0000020FFF7C3FE08A908A0FFF743FA6946F1
:100DF00009A0FFF73FFA00BFFEE70000617364310E
:100E000032333435363738397A786300737472A3E5
:100E1000BA25730D0A000000617272A3BA25730D22
:100E20000A0000004FF04070E1EE100A7047000029
:100E3000500E00080000002014000000C40100084B
:100E4000640E00081400002064160000E001000891
:100E5000000000000000000001020304010203047E
:040E60000607080970
:040000050800018965
:00000001FF
