:020000040800F2
:10000000500700204D020008550200085702000862
:10001000590200085B0200085D02000800000000B1
:100020000000000000000000000000005F02000867
:100030006102000800000000630200086502000879
:1000400067020008670200086702000867020008EC
:10005000670200086702000825140008670200080C
:1000600067020008670200086702000867020008CC
:1000700067020008670200086702000867020008BC
:1000800067020008670200086702000867020008AC
:100090006702000867020008670200088D14000864
:1000A000670200086702000867020008670200088C
:1000B000670200086702000867020008670200087C
:1000C000670200086702000867020008670200086C
:1000D000670200083125000867020008670200086F
:1000E000670200086702000867020008670200084C
:1000F000670200086702000867020008670200083C
:10010000670200086702000867020008670200082B
:10011000670200086702000867020008670200081B
:10012000670200086702000867020008670200080B
:1001300067020008670200086702000867020008FB
:1001400067020008670200086702000867020008EB
:1001500067020008670200086702000867020008DB
:1001600067020008670200086702000867020008CB
:1001700067020008670200086702000867020008BB
:10018000670200086702000800F002F800F04FF86C
:100190000AA090E8000C82448344AAF10107DA45E2
:1001A00001D100F044F8AFF2090EBAE80F0013F0E5
:1001B000010F18BFFB1A43F001031847782900000C
:1001C00098290000103A24BF78C878C1FAD852079D
:1001D00024BF30C830C144BF04680C6070470000C1
:1001E0000023002400250026103A28BF78C1FBD840
:1001F000520728BF30C148BF0B607047662902F024
:100200004D84642900F0AE80732900F063830020E0
:1002100070471FB502F03DFC00F072FB04000020A7
:10022000002102F0A9FBE0601FBD10B510BD00F079
:100230007FFC1146FFF7EDFF02F05AFB00F09DFC3A
:1002400003B4FFF7F2FF03BC02F0FDFA0948804750
:1002500009480047FEE7FEE7FEE7FEE7FEE7FEE7A8
:10026000FEE7FEE7FEE7FEE704480549054A064BC0
:100270007047000059220008890100085001002041
:10028000500700205003002050030020704700005A
:100290000FB4044910B503AA029800F01FFB10BC6C
:1002A0005DF814FB000000202DE9F0410E460446E5
:1002B000002020622046E168884730B3252805D019
:1002C000D4E901219047206A401CF2E7E16820460A
:1002D00000278847050018D0A5F14100192802D849
:1002E00020354FF400673246294620462760FFF745
:1002F00085FF40B1012804D0F61D26F00706083618
:10030000D8E7361DD6E72846DAE7206ABDE8F0814F
:1003100070B50C460546012A05D02878800600D520
:10032000EA69002302E0012305E05B1C934202D24C
:10033000E05C0028F9D1A869E618C01AA861286A0B
:10034000184428622846AFF3008004E0D5E9012173
:1003500014F8010B9047B442F8D32846AFF300805D
:1003600070BD00002DE9F041064600241068752993
:10037000314616A510D0AFF30080002802DA4042C3
:1003800013A507E031688A0701D512A502E04907E5
:1003900004D511A5012401E0AFF3008000210A2259
:1003A00006F1240709E0B0FBF2FCB0FBF2F302FB1C
:1003B0001C00303078541846491C0028F3D12346DD
:1003C0002A463046BDE8F04100F00CB800000000BD
:1003D0002D0000002B000000200000007047704737
:1003E000704770472DE9F0470D46994692460446FE
:1003F00000F124080168880604D5E06921F01001A5
:10040000216000E00120A84201DD471B00E0002739
:10041000A1697A1902EB0900081AA0612078C006C8
:1004200002D42046AFF30080002608E0D4E9012181
:100430001AF806009047206A401C761C20624E4540
:10044000F4DB2078C0060AD52046AFF3008006E032
:10045000D4E9012130209047206A401C2062381ED8
:10046000A7F10107F4DC07E0D4E9012118F8050041
:100470009047206A401C2062281EA5F10105F3DC8C
:100480002046AFF300802078000602D50220BDE8A8
:10049000F0870120FBE770472DE9FF4F0C461E4611
:1004A0004FF0FF378BB0D2E90001DDF860800A9091
:1004B0008A46C1F30A5505B93D46002108464FF06A
:1004C0000000BAF1000F00F4400005DA00EB8000F4
:1004D0004FF4400101EA50004FEA9059B9F1010F81
:1004E00000DDB9460A9850EA4A000ED044F6105092
:1004F000A5F2FF3545432F14B8F1000F1ED0754209
:10050000291E1EDDC9F100021CE0B8F1010F4FF0F9
:10051000000001D0302103E0F24305E02154401CEB
:10052000B042FBDB30460022002121540B99C1F878
:100530000880C1E900200FB0BDE8F08FBD1B6D1C25
:10054000DEE74A4600DA694206A800F07BFA06AB0D
:1005500093E8070003AB83E8070050460A9900F0D0
:1005600053FB8DE80700A0F500501F38009003985A
:10057000002D09DD42F21F014A46084403A90390F9
:10058000684600F0B2FD08E0A0F500504A461F386A
:1005900003A90390684600F0BCFD8DE80700000445
:1005A000000C03D04FF0FF30410800E01046B8F1D6
:1005B000000F03D00022009215461EE0751E05D4E0
:1005C00000F0A2F9303262556D1EF9D5B346012212
:1005D000084302D000227F1C04E02078302801D19B
:1005E00000227F1E002A099786D01DE0112D07DA10
:1005F00000F08AF9303262556D1C50EA0102F5D1E3
:10060000084302D00098C8B10EE00021681E05E042
:10061000235C625C63542254401E491C8142F7DB18
:10062000AB46A81B401E0990002004F80B000B9855
:10063000099AC0F80880C0E9002B7CE711264FF02A
:10064000000859E72DE9F04F88460446D21D22F0F4
:10065000070191B0D1E90001CDE90A0102F0DBF810
:1006600002460B98C00F01D02D2007E020688107BB
:1006700001D52B2002E0202101EAC000032A0990C5
:1006800001D0072A05DB03464146204600F09AF9CF
:100690000BE12078800601D5E06900E00620B8F182
:1006A000650F814606D0B8F1660F18D0B8F1670F14
:1006B00070D131E00020B9F1110F009001DB11235E
:1006C00001E009F101030AAA01A90CA8FFF7E4FE61
:1006D000DDE90C70002609F10105834647E00120A1
:1006E0004B4600904FF000470AAA01A90CA8FFF75B
:1006F000D3FEDDE90DB00C995D46002610B909F175
:1007000001000D18B9EB050003D4C0F1FF3609F163
:100710000105A5EB09002BE0B9F1010F01DA4FF05B
:1007200001090020B9F1110F0090484601DD1123A5
:1007300000E003460AAA01A90CA8FFF7ADFEDDE917
:100740000C704D4600268346207800070AD4AB453E
:1007500000DA5D4601A8012D04DD411911F8011CE4
:10076000302907D04F4502DA17F1040F04DA0120CF
:1007700082460FE06D1EEEE7002F02DCED1B3E44CB
:1007800003E0781CA84200DD7D1CB81B00F1010AC3
:100790004FF000472078000703D4AA4501DB4FF053
:1007A000FF3A0021B7F1004F0DF143088DF84310D7
:1007B00024D002202B23002F01DA7F422D230A218F
:1007C000021EA0F1010000DC5FB197FBF1FC97FB7A
:1007D000F1F201FB1C7C17460CF1300C08F801CD3E
:1007E000EEE7A8F1010003702188090501D5452134
:1007F00000E06521A0F1010800F8011C09980FA98B
:10080000A1EB0807FF1D00B10120411901EBEA70BF
:10081000A1693844081A401EA0612078C00602D49D
:100820002046AFF30080099828B1D4E90121904710
:10083000206A401C20622078C00622D52046AFF3F3
:1008400000801EE0002E04DBB34502DD01A8805DC0
:1008500000E03020D4E901219047206A401C20624A
:10086000761CAAF101005FEA000A0AD100F048F8FC
:10087000C0680168405CD4E901219047206A401CAF
:100880002062281EA5F10105DCDC07E0D4E9012186
:1008900018F8010B9047206A401C2062381EA7F10F
:1008A0000107F3DC2046AFF30080032011B043E6DC
:1008B00010B5436913B1AFF3008001E0FFF728FDE5
:1008C000012010BD127800F124010A7000224A7044
:1008D0000122EDE711684FF0FF32E9E7074B70B5F1
:1008E0000D467B4400F05BF80446284600F018F9FA
:1008F00010B14FF0FF3070BD204670BDEF1F0000FB
:10090000004870471001002030B5B0F10A024FEAEC
:10091000900E71F100034EEA817EB0EB0E0061EBA8
:1009200091014FEA101E4EEA017E10EB0E0041EBE2
:1009300011114FEA102E4EEA016E10EB0E0041EB42
:1009400011214FEA104E4EEA014E10EB0E0041EB22
:100950001141401841F100014FEAD00040EA4170D6
:100960004FEAD10110EB80054FEA810444EA90740C
:1009700044EB01046D1944EB0404521BA3414FF0F6
:10098000000348BF0A3200D530BD401C41F10001D0
:1009900030BD000001694A1C02610878704700B54B
:1009A0008FB0CDE901310021059105497944CDE9A8
:1009B000031011466846FFF777FC0FB000BD00003A
:1009C000E5FFFFFF2DE9F0411F46044603260168BD
:1009D000072A01F4006004DB08B116A505E016A59E
:1009E00003E008B115A500E015A521F01000206076
:1009F000A069C01EA0610FB1401EA0612046AFF3E8
:100A000000804FB1D4E9012138469047206A401C4C
:100A10002062C01C206206E0206AFAE7D4E90121C6
:100A200015F8010B9047761EF8D22046AFF30080F0
:100A3000BDE8F0814E414E006E616E00494E4600A9
:100A4000696E66002DE9F047814616468AB0334844
:100A500078440DC88DE80D0030487844801C03AC04
:100A60000DC884E80D0041F69B300844372190FB07
:100A7000F1F290FBF1F5A5F1800501FB12041B3C9E
:100A800002D56442012000E00020DFF890A08046FB
:100A90000027FA44AAF1BE0A0DE0E00709D0324669
:100AA000684607EB47010AEB810100F032FB8DE855
:100AB000070064107F1C002CEFD1184F7F44AC3F1F
:100AC00018E0E80714D007EB04100DF1180A90E8BD
:100AD0000E008AE80E00C068F04201D19819089013
:100AE000324606A903A800F014FB03AB83E8070015
:100AF0006D10641C002DE4D132466946B8F1000F38
:100B000003A802D000F0F1FA01E000F002FBC9E90D
:100B10000001C9F808200AB0BDE8F087C82000002D
:100B2000007B00F08000704700487047F000002014
:100B30007546FFF7F9FFAE4605006946534620F0BB
:100B40000700854618B020B5FFF78EFBBDE82040B2
:100B50004FF000064FF000074FF000084FF0000B79
:100B600021F00701AC46ACE8C009ACE8C009ACE82C
:100B7000C009ACE8C0098D4670470446AFF3008059
:100B80002046FFF75DFB00004FF0013C50F8042BBE
:100B900051F8043B9A4221D1A2EB0C03934313EA90
:100BA000CC1317D150F8042B51F8043B9A4215D1BD
:100BB000A2EB0C03934313EACC130BD150F8042B94
:100BC00051F8043B9A4209D1A2EB0C03934313EA78
:100BD000CC13DBD04FF00000704700BFD01A01BA31
:100BE000B1FA81F101F0180122FA01F0CB40C1F114
:100BF0002001DBB2C0B2C01A2CFA01F3D11A914322
:100C000011EAC311E6D170475FEA400C08BF91F0CA
:100C1000000F4FEA8C234FEAC12243EA51514FEAB9
:100C20001C5018BF00F5F0404FEA300018BF41F0EB
:100C300000415FEA6C5C00F02980BCF1FF3F08BF17
:100C400040F080407047130C06BF12044FF0100CA8
:100C50004FF0000C130E04BF12020CF1080C130F1E
:100C600004BF12010CF1040C930F04BF92000CF1AD
:100C7000020CD30F04BF52000CF1010C11464FF0CF
:100C80000002A0F11F00A0EB0C00704711F0004F14
:100C900008BF704731F000413FF4D5AF0B0C06BFE1
:100CA00009044FF0100C4FF0000C0B0E04BF0902AA
:100CB0000CF1080C0B0F04BF09010CF1040C8B0F95
:100CC00004BF89000CF1020CCB0F04BF49000CF1EA
:100CD000010CCCF12003A0EB0C0022FA03F302FA82
:100CE0000CF241EA030100F10100704720F07F4C53
:100CF00080EA030023F07F47ACEB070303F57C5346
:100D000000F0004003F1FF032DE980494FEA154B45
:100D100009B44FEA144325EA0B4E24EA03480FF2C4
:100D2000042606EB132749083E785FEA320203FBEC
:100D30000667C7F5000707FB06F64FEA54374FEA88
:100D4000D64606F1020607FB066CCCF1005C4FEAC2
:100D50001C472CEA074C07FB06F40CFB06F504EBDA
:100D600015464FEA961634BF00204FF000404FEA78
:100D7000D13706FB07FC4FEA1C4C0CFB0BF7D21BD0
:100D800003FB0CF761EB07010CFB0EF7B0EB074020
:100D900072EB17420CFB08F734BFA2EB0742B2EB31
:100DA000074261EB17414FEA0C444FEA910706FBFB
:100DB00007FC4FEA1C4C0CFB0BF7B0EBC74072EB87
:100DC000573203FB0CF734BFA2EBC742B2EBC7426A
:100DD00061EB57310CFB0EF7B0EBC70072EB5772AB
:100DE0000CFB08F734BFA2EBC702B2EBC70261EB02
:100DF0005771039F4FEA816141EA921104EBCC04E1
:100E00004FEAD1374FEA826206FB07FC42EA9012B2
:100E10004FEA80604FEA1C4C0CFB0BF7D21B03FB24
:100E20000CF761EB07010CFB0EF7B0EB074072EB20
:100E300017420CFB08F734BFA2EB0742B2EB0742A4
:100E400061EB17414FEA8C554FEA910704EB9C2464
:100E500006FB07FC4FEA1C4C0CFB0BF7B0EBC74042
:100E600072EB573203FB0CF734BFA2EBC742B2EB75
:100E7000C74261EB57310CFB0EF7B0EBC70072EBCA
:100E800057720CFB08F734BFA2EBC702B2EBC702E4
:100E900061EB577115EB4C254FEA816141EA9211E4
:100EA0004FEA82624FEAD13742EA901206FB07FC12
:100EB00044F100044FEA80604FEA1C4C0CFB0BF736
:100EC000D21B03FB0CF761EB07010CFB0EF7B0EB39
:100ED000074072EB17420CFB08F734BFA2EB074246
:100EE000B2EB074261EB174115EB1C154FEA81315C
:100EF00041EA92414FEA823242EA90424FEA803020
:100F00004FEA0C7644F1000448EA03434EEA0B48EA
:100F10004FF0000EB2EB080C71EB030724BF6246E2
:100F200039464EEB0E0E4FF0000B0018524149416E
:100F30004BEB0B0BB2EB080C71EB03077BF1000BD7
:100F400024BF624639464EEB0E0E4FF0000B0018E0
:100F5000524149414BEB0B0BB2EB080C71EB030711
:100F60007BF1000B24BF624639464EEB0E0E51EA70
:100F7000020718BF46F0010616EB0E7655F1000287
:100F800054F1000103D5BDE88901BDE80088BDE842
:100F90008901BDE80048B619524141EB0101A3F1B6
:100FA0000103704780807F7E7D7C7B7A79787776BD
:100FB00076757473727171706F6E6E6D6C6C6B6A36
:100FC0006A696868676666656464636362616160D4
:100FD000605F5F5E5E5D5D5C5C5B5B5A5A59595851
:100FE00058575756565555555454535352525251BB
:100FF000515050504F4F4F4E4E4D4D4D4C4C4C4B11
:101000004B4B4A4A4A494949484848474747474657
:101010004646454545444444444343434342424293
:1010200042414141002B26D4770021D01CB54FEA24
:10103000370703B44FF010004FF010014FF00000DD
:101040000FBCBDE810400BF1010BBBF1010F08BF55
:101050005FEA170722BF12F1010211F101014FF0FF
:10106000004143F1000300F0004043EA00007047F4
:10107000F9D35708DAE746EA064613F1400F4FEA7C
:1010800016461FDD13F1200FDFBF16430A4600216D
:1010900020335B42C8D0C3F1200746EA064602FA75
:1010A00007F74FEA164646EA0706C3F1200722FA79
:1010B00003F201FA07F721FA03F14FF0000342EAC5
:1010C0000702B1E746EA020646EA06464FEA164636
:1010D00046EA0106BCBF46EA0646360C4FF000035E
:1010E0004FF000024FF000019EE72DE9C048934603
:1010F00030B491E8380007C831EA400C48BF34EA00
:10110000430C03D5FFF7F2FDFFF78CFFF0BCBDE801
:1011100000882DE9C048934630B491E8380007C8EC
:1011200010F0804F08BF13F0804F03D100F005F896
:10113000FFF778FFF0BCBDE8008820F07F4780EA29
:10114000030023F07F4C07EB0C03A3F57C5300F066
:101150000040A3F1FE0392F0000F00F0B38095F081
:10116000000F00F077802DE901494FEA11404FEA66
:10117000144621EA004800FB06FC24EA064708FB67
:1011800006F607FB08F800FB07F718EB06484CEBE0
:10119000164C4FEA124B18EB07484FEA15464CEB3A
:1011A000174022EA0B4E0BFB06FC25EA06470EFB16
:1011B00006F607FB0EFE0BFB07F71EEB064E4CEB8D
:1011C000164C4FF000061EEB074E4CEB174B18EB7E
:1011D0000B0840F1000018EB0E0B58EB000840F133
:1011E00000008F1A4FF000013CBFC943661B14BFBB
:1011F000B5EB040C00213CBFC943F61B4FEA174472
:101200004EEA8E0E27EA04454FEA1C4704FB0762AC
:101210002CEA074C05FB07F70CFB05F604FB0CFC5E
:1012200016EB074642EB174216EB0C4642EB1C420C
:101230001BEB060658EB0202414146EA9E0601D529
:10124000BDE80189B619524141EB0101A3F1010347
:10125000BDE801894FEA14454FEA114724EA0546E3
:1012600021EA074C05FB07F406FB07F70CFB06F128
:1012700005FB0CFC11EB074144EB17444FEA124706
:1012800011EB0C4144EB1C4422EA074C05FB07F22E
:1012900006FB07F70CFB06F605FB0CFC16EB0746F6
:1012A00042EB174216EB0C4642EB1C456A1854F110
:1012B000000148BF7047B619524141EB0101A3F14B
:1012C0000103704795F0000F37D04FEA11424FEA03
:1012D000144721EA024624EA074C02FB07F106FB09
:1012E00007F70CFB06F402FB0CFC14EB074441EB84
:1012F00017414FEA154714EB0C4441EB1C4125EA1A
:10130000074C02FB07F506FB07F70CFB06F602FB92
:101310000CFC16EB074645EB174516EB0C4645EB68
:101320001C42121951F1000148BF7047B6195241D1
:1013300041EB0101A3F1010370474FEA14454FEA65
:10134000114724EA054621EA074C05FB07F106FB95
:1013500007F70CFB06F24FF0000605FB0CFC12EB46
:10136000074241EB174112EB0C4251EB1C4148BFC5
:101370007047921841EB0101A3F10103704710B5CA
:1013800000F032F910BD2DE9F04104460E46174633
:1013900000F018FAA046E11704EB11610912A0222F
:1013A00002EB4101C8B200F0D9F900F049F9054655
:1013B00025B100F02BFA0120BDE8F081A046E1172D
:1013C00004EB11610912A4EB0121C8B200F0C6F9C7
:1013D00000F036F905461DB100F018FA0220EBE7DF
:1013E00000F0F0F9A12000F0B9F900F029F9054664
:1013F0001DB100F00BFA0220DEE70DE000F04AF923
:101400003870701EC6B21EB9012000F075F904E0F4
:10141000002000F071F97F1CF0E700BF00F0F6F942
:101420002846C9E710B5012000F05AF8012823D159
:101430000A2001F012FA1148006900F00100D8B149
:101440000F48006840F001000D4908600D48006831
:1014500080F040000B4908600846006880F4007086
:1014600008600846006880F48060086006480068EC
:1014700080F001000449086010BD00000000024037
:10148000143C0140141402401408024010B52020FE
:1014900000F026F801281BD10E48006840F020001B
:1014A0000C4908600C48006880F040000A49086058
:1014B0000846006880F4007008600846006880F400
:1014C000806008600548006880F0010003490860FA
:1014D00010BD0000143C01401414024014080240E6
:1014E00001460020034A12680A400AB1012000E0C8
:1014F00000207047143C0140F0B50A46002100234B
:10150000002400BF3DE0012505FA01F3156805EA56
:1015100003049C4234D105684F000326BE40B54306
:10152000056015794E00B5400668354305601579AC
:10153000012D02D01579022D16D185684F000326A2
:10154000BE40B543856055794E00B5408668354349
:101550008560456801268E40B543456045689679AB
:101560008E40B6B235434560C5684F000326BE4085
:10157000B543C560D5794E00B540C6683543C560F2
:10158000491C1029BFD3F0BDF0B5002300244D073E
:10159000ED0E02FA05F3CE1000F1200555F82650A5
:1015A0004E07F70E0F26BE40B543CF1000F12006C0
:1015B00046F82750CE1000F1200555F8265045EA90
:1015C0000304CE1000F1200545F82640F0BD024688
:1015D000002013690B400BB1012000E00020704790
:1015E00041837047018370471CB50121022000F040
:1015F0001FFD4FF48070009001208DF80400002042
:101600008DF8060003208DF8050069460B48FFF7AA
:1016100073FF4FF40070009001208DF806006946BA
:101620000648FFF769FF4FF480710448FFF7DAFFBF
:101630004FF400710148FFF7D5FF1CBD00040240C4
:1016400010B54FF480711248FFF7CAFF4FF40071D4
:101650000F48FFF7C7FF052001F032F94FF4807102
:101660000B48FFF7BFFF4FF400710948FFF7AFFFCA
:1016700030B14FF480710648FFF7B2FF012010BD72
:101680004FF480710248FFF7ABFF0020F7E700003E
:101690000004024070B500244FF480711548FFF734
:1016A0009FFF4FF400711348FFF79CFF002518E0DF
:1016B0004FF480710F48FFF793FF052001F000F908
:1016C0006006040E4FF480710A48FFF78BFF4FF459
:1016D00000710848FFF77BFF08B144F00104681C63
:1016E000C5B2082DE4DB4FF480710248FFF778FFA4
:1016F000204670BD0004024010B504464FF48071CE
:101700001548FFF76DFF052001F0DAF8012C0BD129
:1017100061021148FFF766FF012001F0D1F82102B4
:101720000D48FFF75FFF0DE064B94FF400710A4800
:10173000FFF756FF012001F0C3F84FF4807106480F
:10174000FFF750FF052001F0BBF84FF4807102480D
:10175000FFF746FF10BD00000004024070B50446CC
:10176000002524E04FF480711548FFF739FF05206C
:1017700001F0A6F804F0800028B14FF40071104881
:10178000FFF730FF04E04FF400710D48FFF728FF2A
:10179000012001F095F84FF480710948FFF722FF0E
:1017A000052001F08DF86006040E681CC5B2082DF6
:1017B000D8DB4FF480710248FFF712FF70BD0000C4
:1017C0000004024010B54FF480710F48FFF708FF86
:1017D0004FF400710C48FFF705FF4FF480710A4881
:1017E000FFF700FF052001F06BF84FF40071064889
:1017F000FFF7F6FE052001F063F84FF48071024810
:10180000FFF7EEFE10BD00000004024010B54FF4DB
:1018100080710C48FFF7E4FE4FF400710948FFF7B0
:10182000DFFE4FF480710748FFF7DCFE052001F072
:1018300047F84FF400710348FFF7D4FE052001F08C
:101840003FF810BD0004024070B505464FF4163451
:101850002A2000F029F8002000F0DCF8002000F039
:10186000D9F8012000F0D6F840F23F1000F0D2F88D
:101870002B2000F019F8002000F0CCF8002000F038
:10188000C9F8012000F0C6F840F2DF1000F0C2F8FD
:101890002C2000F009F803E0284600F0BBF8641E95
:1018A000002CF9D170BD000010B504464FF48051F2
:1018B0005448FFF795FE4FF480515348FFF790FED0
:1018C00010215248FFF78EFE20215048FFF788FE76
:1018D00004F0010040B14D481430006840F48040ED
:1018E0004A491431086007E048481430006820F481
:1018F000804046491431086004F0020040B143487A
:101900001430006840F4004040491431086007E09A
:101910003E481430006820F400403C49143108600F
:1019200004F0040040B139481430006840F0010070
:1019300036491431086007E034481430006820F05C
:10194000010032491431086004F0080040B12F480A
:101950001430006840F002002C491431086007E0A0
:101960002A481430006820F0020028491431086029
:1019700004F0100030B12648406940F0800024494E
:10198000486105E02248406920F080002049486114
:1019900004F0200030B11E48406940F480701C49BA
:1019A000486105E01A48406920F480701849486190
:1019B00004F0400030B11648406940F4007014490A
:1019C000486105E01248406920F400701049486100
:1019D00004F0800030B10E48406940F480600C494A
:1019E000486105E00A48406920F480600849486180
:1019F00020210648FFF7F6FD4FF480510148FFF71C
:101A0000F1FD10BD0018024000140240000C02401D
:101A10000010024010B504464FF480519A48FFF779
:101A2000DFFD4FF480519948FFF7DCFD1021984805
:101A3000FFF7D8FD20219648FFF7D2FD04F0010002
:101A400040B193481430006840F48040904914310C
:101A5000086007E08E481430006820F480408C490C
:101A60001431086004F0020040B189481430006865
:101A700040F4004086491431086007E0844814307F
:101A8000006820F4004082491431086004F004002A
:101A900040B17F481430006840F001007C491431A7
:101AA000086007E07A481430006820F001007849A7
:101AB0001431086004F0080040B175481430006823
:101AC00040F0020072491431086007E07048143099
:101AD000006820F002006E491431086004F0100024
:101AE00030B16C48406940F080006A49486105E0C7
:101AF0006848406920F080006649486104F0200091
:101B000030B16448406940F480706249486105E042
:101B10006048406920F480705E49486104F04000EC
:101B200030B15C48406940F400705A49486105E0B2
:101B30005848406920F400705649486104F080001C
:101B400030B15448406940F480605249486105E032
:101B50005048406920F480604E49486104F4807028
:101B600030B14C48406940F400604A49486105E0A2
:101B70004848406920F400604649486104F4007018
:101B800030B14448406940F480504249486105E022
:101B90004048406920F480503E49486104F4806028
:101BA00030B13C48406940F400503A49486105E092
:101BB0003848406920F400503649486104F4006018
:101BC00030B13448406940F480403249486105E012
:101BD0003048406920F480402E49486104F4805028
:101BE00030B12C48406940F400402A49486105E082
:101BF0002848406920F400402649486104F4005018
:101C000040B123481430006840F4807020491431FA
:101C1000086007E01E481430006820F480701C49FA
:101C20001431086004F4804040B119481430006851
:101C300040F4007016491431086007E0144814306D
:101C4000006820F4007012491431086004F4004068
:101C500040B10F481430006840F480600C491431E2
:101C6000086007E00A481430006820F480600849E2
:101C70001431086020210648FFF7B4FC4FF480516E
:101C80000148FFF7AFFC10BD0018024000140240ED
:101C9000000C0240001002401CB50121022000F09F
:101CA000C7F90121082000F0C3F90121102000F03C
:101CB000BFF90121202000F0BBF90121402000F0F4
:101CC000B7F94FF40040009001208DF80400002087
:101CD0008DF807008DF8060003208DF80500694691
:101CE0001B48FFF709FC4CF2337000906946194815
:101CF000FFF702FC4FF68070009069461648FFF728
:101D0000FBFB4FF48050009069461448FFF7F4FB4A
:101D10004FF48050009069461148FFF7EDFB4FF4F7
:101D200080510F48FFF75EFC4FF480510B48FFF7DE
:101D300059FC20210748FFF755FC10210548FFF703
:101D400051FC4FF400410248FFF74AFC1CBD000063
:101D500000040240000C0240001002400014024047
:101D60000018024010B5FFF797FF782000F07FFDC4
:101D7000F220FFF799FD1820FFF74CFEA320FFF794
:101D800049FE1220FFF746FE0220FFF743FEB22075
:101D9000FFF740FE1220FFF73DFEFF20FFF73AFE5F
:101DA0001020FFF737FE0020FFF734FEF820FFF782
:101DB0007BFD2120FFF72EFE0420FFF72BFEF920EC
:101DC000FFF772FD0020FFF725FE0820FFF722FE37
:101DD0003620FFF769FD0820FFF71CFE3A20FFF7C9
:101DE00063FD5520FFF716FEB420FFF75DFD0120CF
:101DF000FFF710FEB620FFF757FD0220FFF70AFE9F
:101E00002220FFF707FEC120FFF74EFD4120FFF71C
:101E100001FEC520FFF748FD0020FFF7FBFD07206E
:101E2000FFF7F8FDE020FFF73FFD0F20FFF7F2FD81
:101E30001F20FFF7EFFD1C20FFF7ECFD0C20FFF744
:101E4000E9FD0F20FFF7E6FD0820FFF7E3FD48203E
:101E5000FFF7E0FD9820FFF7DDFD3720FFF7DAFD03
:101E60000A20FFF7D7FD1320FFF7D4FD0420FFF76A
:101E7000D1FD1120FFF7CEFD0D20FFF7CBFD002097
:101E8000FFF7C8FDE120FFF70FFD0F20FFF7C2FDB0
:101E90003220FFF7BFFD2E20FFF7BCFD0B20FFF720
:101EA000B9FD0D20FFF7B6FD0520FFF7B3FD472074
:101EB000FFF7B0FD7520FFF7ADFD3720FFF7AAFD56
:101EC0000620FFF7A7FD1020FFF7A4FD0320FFF772
:101ED000A1FD2420FFF79EFD2020FFF79BFD0020A1
:101EE000FFF798FD1120FFF7DFFC782000F0BFFC22
:101EF0002920FFF7D9FC4FF400410448FFF772FB9B
:101F00004FF6FF70FFF7A0FC10BD00000004024078
:101F100008B500F099FA00901D48B0F9040000EEF1
:101F2000100AB8EEC00A1A4890ED001ABDF8000079
:101F300000EE900AF8EE600A01EE200ABCEEC00A3C
:101F400010EE100A80B2ADF800001148B0F90C0094
:101F500000EE100AB8EEC00A0D4890ED021ABDF866
:101F6000020000EE900AF8EE600A01EE200ABCEED4
:101F7000C00A10EE100A80B2ADF80200BDF80220CF
:101F8000BDF8001003A0FEF783F9009808BD00001B
:101F9000E0000020783A256420202020793A25644A
:101FA0000D0A000070B5002100230F22C4781CB375
:101FB000174C246804F4E064C4F5E064C4F307211A
:101FC000C1F10404E3B20A4144789C40E1B2847850
:101FD000144021430C07210E0E4C057861550478FE
:101FE00004F01F050124AC4005786D11AD0005F12A
:101FF000E025C5F8004109E0047804F01F0501243C
:10200000AC40054D0678761145F8264070BD0000BD
:102010000CED00E000E400E080E100E00249014353
:10202000024A1160704700000000FA050CED00E064
:1020300029B1064A12680243044B1A6004E0034ABD
:1020400012688243014B1A6070470000303802402A
:1020500029B1064A12680243044B1A6004E0034A9D
:1020600012688243014B1A607047000044380240F6
:10207000F0B5002100220024022500260223324F61
:102080003F6807F00C0121B1042905D0082937D198
:1020900005E02E4F076036E02D4F076033E02A4FF2
:1020A0003F1F3F68C7F38056274F3F1F3F6807F029
:1020B0003F036EB1264FB7FBF3F7DFF88CC0ACF1EE
:1020C000040CDCF800C0CCF3881C07FB0CF40CE01B
:1020D0001E4FB7FBF3F7DFF870C0ACF1040CDCF86F
:1020E00000C0CCF3881C07FB0CF4174F3F1F3F6860
:1020F000C7F301477F1C7D00B4FBF5F7076002E0E2
:10210000124F076000BF00BF0F4F3F6807F0F0019C
:102110000909104F7A5C0768D74047600A4F3F684B
:1021200007F4E051890A0B4F7A5C4768D740876013
:10213000054F3F6807F46041490B064F7A5C4768DA
:10214000D740C760F0BD0000083802400024F4000A
:1021500040787D01050000200CB500200190009022
:102160003448006840F480303249086000BF31488C
:10217000006800F4003000900198401C0190009825
:1021800018B90198B0F5A04FF1D12A48006800F4C1
:10219000003010B10120009001E000200090009874
:1021A000012846D123484030006840F08050214942
:1021B000403108602048006840F440401E490860F3
:1021C0001C48083000681B49083108600846006850
:1021D00040F4004008600846006840F4A0500860E1
:1021E0001648091F0860081F006840F08070091F2A
:1021F000086000BF0F48006800F000700028F9D0A8
:1022000040F205700E4908600A480830006820F066
:1022100003000849083108600846006840F00200E1
:10222000086000BF03480830006800F00C00082870
:10223000F8D10CBD0038024000700040195440072E
:10224000003C02404FF0E020006920F004004FF015
:10225000E02108617047000010B51548006840F49F
:102260007000134908601348006840F001001149EC
:10227000086000200F49083108600E4800680E49C8
:1022800008400C4908600D48091D0860081F0068D7
:1022900020F48020091F0860002006490C310860E6
:1022A000FFF75AFF4FF0006001498039086010BD08
:1022B00088ED00E000380240FFFFF6FE10300024F9
:1022C00070B5054600264FF400613548FFF788F9E0
:1022D0004FF400513348FFF783F900241DE001213A
:1022E0003148FFF77DF905F0800028B14FF4006117
:1022F0002B48FFF777F904E04FF400612848FFF717
:102300006FF900F0A3FA01212748FFF76BF900F0FD
:102310009DFA6806050E601CC4B2082CDFDB4FF482
:1023200000611F48FFF75CF901211F48FFF758F9CA
:10233000782000F0A6FA01211B48FFF751F900F0C0
:1023400085FA01211848FFF74DF900F07FFA0024C3
:1023500018E04FF6FF7000EA460601211248FFF729
:102360003FF900F073FA01210F48FFF73BF9042110
:102370000D48FFF72CF908B146F0010600F066FAA7
:10238000601CC4B20C2CE4DB4FF400510548FFF78D
:1023900029F901210448FFF723F9304670BD0000F8
:1023A0000014024000080240000402401CB5012154
:1023B0000220FFF73DFE01210420FFF739FE012135
:1023C0002020FFF735FE012000908DF8040000204A
:1023D0008DF807008DF8060003208DF8050069468A
:1023E0001648FFF789F84FF40050009069461448EA
:1023F000FFF782F84FF40060009069461148FFF73C
:102400007BF80620009000208DF804008DF807006E
:1024100003208DF8050069460848FFF76DF84FF472
:1024200000510748FFF7DEF801210448FFF7D8F80C
:102430004FF400610348FFF7D3F81CBD00040240CD
:1024400000080240001402402DE9F0418CB0002643
:10245000002700250DE0D020FFF732FF07A921F863
:1024600015009020FFF72CFF02A921F81500681C29
:10247000C5B20A2DEFDB012533E000242BE007A8CD
:1024800030F8141007AA601C32F8100081420BDDEE
:1024900007A830F8148007A9601C31F8100021F853
:1024A0001400601C21F8108002A830F8141002AA51
:1024B000601C32F8100081420BDD02A830F8148055
:1024C00002A9601C31F8100021F81400601C21F8EA
:1024D0001080601CC4B2C5F10A00A042CFDC681CA9
:1024E000C5B20A2DC9DB01250BE007A830F815009D
:1024F000304486B202A830F81500384487B2681C10
:10250000C5B2092DF1DB3046F11706EB5171C1F36D
:10251000CF01ADF804103846F91707EB5171C1F33C
:10252000CF01ADF8061001980CB0BDE8F0810000B5
:1025300010B52021144800F0A3F801280BD112484F
:1025400000F064F91149124A127888541048007852
:10255000401C0F49087040F224410B4800F09DF8E0
:1025600001280FD1084800880748808800210748C3
:10257000074A12788154014606A0FDF789FE002023
:102580000349087010BD0000001001401800002031
:1025900004000020C4E3B7A2CBCDB5C4CAFDBEDDA4
:1025A000CAC7A3BA25730D0A0000000010B588B091
:1025B000044601210846FFF73BFD01211020FFF7EB
:1025C00047FD4FF4C060069002208DF81C000120EA
:1025D0008DF81F0000208DF81E0002208DF81D00D0
:1025E00006A91F48FEF788FF072209211C48FEF7AD
:1025F000CBFF07220A211A48FEF7C6FF02940020EB
:10260000ADF80C00ADF80E00ADF81000ADF81400F8
:102610000C20ADF8120002A9124800F08DF801223A
:1026200040F225510F4800F062F8012240F22441A7
:102630000C4800F05CF825208DF8040003208DF88C
:1026400005008DF8060001208DF8070001A8FFF7AE
:10265000A9FC0121034800F007F808B010BD0000F4
:10266000000002400010014021B1828942F4005272
:10267000828104E082894DF6FF731A40828170479F
:1026800002460020B1F5007F00D100BF13880B4047
:102690000BB1012000E00020704770B50246002415
:1026A00000230025002040F66A16B14200D100BF89
:1026B000C1F3421501F01F03012606FA03F3012DB1
:1026C00002D19689334006E0022D02D1168A3340AA
:1026D00001E0968A33400C12012606FA04F41688AB
:1026E000344013B10CB1012000E0002070BDF0B502
:1026F0000346002400260025002040F66A17B94250
:1027000000D100BF1846C1F3421401F01F06012793
:1027100007FA06F5012C01D10C3004E0022C01D19E
:10272000103000E014301AB107682F43076002E050
:102730000768AF430760F0BD2DE9FF4705460E4629
:102740000024A14600BFA046B08900B100BF2C8A7A
:1027500024F44054F08804432C82AC8941F20C608C
:102760008443B08831890843718908430443AC81AC
:10277000AC8A24F44074B0890443AC826846FFF705
:1027800077FC2048854202D01F48854202D1DDF8FF
:102790000C9001E0DDF80890A88900F4004040B1F9
:1027A00009EBC90000EB091031684900B0FBF1F7F3
:1027B00007E009EBC90000EB091031688900B0FBA4
:1027C000F1F76420B7FBF0F004012009642101FB5C
:1027D0001078A88900F4004040B1322000EBC80016
:1027E000B0FBF1F000F00700044308E0322000EBFA
:1027F00008106421B0FBF1F000F00F0004432C81BD
:10280000BDE8FF87001001400014014001468888A0
:10281000C0F30800704703B401984100009850EAE3
:10282000C12018BF04204A0D18BF40F0010040F23B
:10283000FF72B2EB515F08BF40F00200012808BFF1
:10284000052002B07047014600BF7047142001E028
:10285000411EC8B20028FBD1704701464AF210421F
:1028600001FB02F000E0401E0028FCD17047014649
:102870004AF2104201FB02F000E0401E0028FCD1A9
:102880007047FF214FF0E0229161C0EBC00101EBE6
:10289000410151611146096941F00101116100BF17
:1028A0004FF0E021096901F480310029F8D04FF0A0
:1028B000E021096921F001014FF0E0221161704728
:1028C00001462A2201FB02F000E0401E0028FCD154
:1028D0007047000000BF054A128802F04002002A3B
:1028E000F9D0C2B2014B9A8070470000001001403D
:1028F0002DED028B82B04FF4A060FFF78FFBFFF746
:10290000A1FC4FF4E130FFF751FEFEF738FDFFF771
:102910004DFDFFF727FA114A10210020FEF733FD85
:1029200010210FA0FDF7B4FC0C4890ED000A10EE4A
:10293000101A084600F03CF841EC180B53EC182B29
:102940000AA0FDF7A5FC07E002210A48FEF73FFEBA
:1029500010B9FFF7DDFA0190F6E70000E000002073
:10296000C7F8D3F2A3BA25640D0A000025660D0A44
:10297000000000000004024010B500290AD00878C9
:10298000002807D005487844FEF7FEF8002801D05B
:10299000002010BD0248784410BD0000CE010000A8
:1029A000C60100000808A0F500114FEA3101704788
:1029B00043004FEAD30C4FEA3C0C43401FBF400793
:1029C0000CF1605113F0FE4F70471CF0006F03D103
:1029D00000200CF0004170470CF0004343EA5070B7
:1029E00010B540EACC0000F00EF800BF00000092E5
:1029F0004FEA0001FFF7D6BF4FF000414FF0000053
:102A0000A1F5002170470EF1020E2EF0030E5EF8C4
:102A1000044B244204D44FEA4102B2F17F4F11D853
:102A20004FEA4003B3F17F4F0CD80ED14FEAD07C70
:102A3000B2F17F4F0CEB4C0C0CF1020C08BF4CEBCD
:102A4000D17C04E04FF0080C01E04FEAD17C0CEBA4
:102A50004C0324FA03F404F00704B4F1040C06D286
:102A60000EEB840CBDE810404CF0010C6047DFE831
:102A70000CF0070802024FF00040A0F5800010BDE6
:102A80000846420018BFD2F1807288BF00F00040B3
:102A900010BD4FF04070E1EE100A7047FDF7D2BD57
:102AA00002400000000000A00000000005400000FF
:102AB000000000C8000000000C4000000000409C26
:102AC00000000000194000000020BCBE0000000013
:102AD00034400000BFC91B8E00000004B540000058
:102AE000504BCFD06607E2CF010000006C410000E0
:102AF0003E8251AADFEEA73401000000D942000057
:102B0000DCB5A0E23A301F97FFFFFFFFB44500009D
:102B1000FD25A0C8E9A3C14FFFFFFFFFFF3F000055
:102B20000000008000000000FF3F00000000008067
:102B300000000000702B00080000002018000000BA
:102B4000C4010008882B0008180000203807000086
:102B5000E00100081C00000043000000F8FFFFFF38
:102B60000C0000000E0000000F0000002E0000000E
:102B70000000000000000000000102030401020345
:082B800004060708090000002B
:040000050800018965
:00000001FF
