:020000040800F2
:1000000078060020DD0100084D0A000829080008D4
:10001000490A0008F3060008190E00080000000055
:10002000000000000000000000000000450B000878
:10003000F7060008000000004F0A0008310C000815
:10004000F7010008F7010008F7010008F7010008B0
:10005000F7010008F7010008F7010008F7010008A0
:10006000F7010008F7010008F7010008F701000890
:10007000F7010008F7010008F7010008F701000880
:10008000F7010008F7010008F7010008F701000870
:10009000F7010008F7010008F7010008F701000860
:1000A000F7010008F7010008F7010008F701000850
:1000B000F7010008F7010008F7010008F701000840
:1000C000F7010008F7010008F7010008F701000830
:1000D000F7010008F7010008F7010008F701000820
:1000E000F7010008F7010008F7010008F701000810
:1000F000F7010008F7010008F7010008F701000800
:10010000F7010008F7010008F7010008F7010008EF
:10011000F7010008F7010008F7010008F7010008DF
:10012000F7010008F7010008F7010008F7010008CF
:1001300000F002F800F042F80AA090E8000C8244B7
:100140008344AAF10107DA4501D100F037F8AFF294
:10015000090EBAE80F0013F0010F18BFFB1A43F0A5
:1001600001031847100E0000300E0000103A24BFA3
:1001700078C878C1FAD8520724BF30C830C144BF0C
:1001800004680C607047000000230024002500264E
:10019000103A28BF78C1FBD8520728BF30C148BFEA
:1001A0000B607047642900F0A580732900F04D8131
:1001B000002070471FB51FBD10B510BD00F078F9C5
:1001C0001146FFF7F7FF00F095FE00F096F903B433
:1001D000FFF7F2FF03BC00F021FE00000948804752
:1001E00009480047FEE7FEE7FEE7FEE7FEE7FEE719
:1001F000FEE7FEE7FEE7FEE704480549054A064B31
:1002000070470000490C0008310100087800002008
:100210007806002078020020780200207047000055
:100220000FB4044910B503AA029800F013F910BCEA
:100230005DF814FB000000202DE9F0410E46044655
:10024000002020622046E168884730B3252805D089
:10025000D4E901219047206A401CF2E7E16820467A
:1002600000278847050018D0A5F14100192802D8B9
:1002700020354FF400673246294620462760FFF7B5
:1002800091FF40B1012804D0F61D26F0070608367C
:10029000D8E7361DD6E72846DAE7206ABDE8F081C0
:1002A00070B50C460546012A05D02878800600D591
:1002B000EA69002302E0012305E05B1C934202D2BD
:1002C000E05C0028F9D1A869E618C01AA861286A7C
:1002D000184428622846AFF3008004E0D5E90121E4
:1002E00014F8010B9047B442F8D32846AFF30080CE
:1002F00070BD00002DE9F041064600241068752904
:10030000314616A510D0AFF30080002802DA404233
:1003100013A507E031688A0701D512A502E0490755
:1003200004D511A5012401E0AFF3008000210A22C9
:1003300006F1240709E0B0FBF2FCB0FBF2F302FB8C
:100340001C00303078541846491C0028F3D123464D
:100350002A463046BDE8F04100F00CB8000000002D
:100360002D0000002B0000002000000070477047A7
:10037000704770472DE9F0470D469946924604466E
:1003800000F124080168880604D5E06921F0100115
:10039000216000E00120A84201DD471B00E00027AA
:1003A000A1697A1902EB0900081AA0612078C00639
:1003B00002D42046AFF30080002608E0D4E90121F2
:1003C0001AF806009047206A401C761C20624E45B1
:1003D000F4DB2078C0060AD52046AFF3008006E0A3
:1003E000D4E9012130209047206A401C2062381E49
:1003F000A7F10107F4DC07E0D4E9012118F80500B2
:100400009047206A401C2062281EA5F10105F3DCFC
:100410002046AFF300802078000602D50220BDE818
:10042000F0870120FBE710B5436913B1AFF30080FB
:1004300001E0FFF735FF012010BD127800F1240123
:100440000A7000224A700122EDE711684FF0FF3276
:10045000E9E70000074B70B50D467B4400F011F84A
:100460000446284600F020F810B14FF0FF3070BD70
:10047000204670BD7B0A000001694A1C02610878B1
:10048000704700B58FB0CDE90131002105910549D4
:100490007944CDE9031011466846FFF7CDFE0FB051
:1004A00000BD0000E5FFFFFF007B00F0800070470B
:1004B000754600F02BF8AE4605006946534620F01D
:1004C0000700854618B020B5FFF796FEBDE820402E
:1004D0004FF000064FF000074FF000084FF0000B00
:1004E00021F00701AC46ACE8C009ACE8C009ACE8B3
:1004F000C009ACE8C0098D46704710B50446AFF39B
:1005000000802046BDE81040FFF761BE00487047FC
:100510001800002010B500F089F910BD2DE9F04752
:1005200081468A4614461D46089E00270BE0334646
:1005300022465146484600F00BF88046601C84B2C3
:10054000761C781CC7B2AF42F1DB4046BDE8F087AD
:100550002DE9F04780460E461446994600F03CFAD5
:10056000B8F5006F16DB304600F008FA00F088F9A5
:10057000054625B100F04EFA0120BDE8F0872012B3
:1005800000F0FCF900F07CF90546ADB100F042FA4C
:100590000220F2E72746E11704EB1161091206EB8E
:1005A0004101C8B200F0EAF900F06AF905461DB150
:1005B00000F030FA0120E0E72746E11704EB116173
:1005C0000912A4EB0121C8B200F0D8F900F058F9E3
:1005D00005461DB100F01EFA0220CEE700F0FCF93E
:1005E00046F0010000F0CAF900F04AF905461DB1D5
:1005F00000F010FA0220C0E700F066F989F8000068
:10060000012000F08DF900F005FA2846B5E72DE944
:10061000F04781468A4614461D46089E00270BE097
:10062000337822465146484600F00BF88046601C5D
:1006300084B2761C781CC7B2AF42F1DB4046BDE8FD
:10064000F0872DE9F04780460E461446994600F0A3
:10065000C3F9B8F5006F16DB304600F08FF900F0F3
:100660000FF9054625B100F0D5F90120BDE8F08766
:10067000201200F083F900F003F90546ADB100F057
:10068000C9F90220F2E72746E11704EB11610912CC
:1006900006EB4101C8B200F071F900F0F1F805462F
:1006A0001DB100F0B7F90120E0E72746E11704EBA0
:1006B00011610912A4EB0121C8B200F05FF900F04A
:1006C000DFF805461DB100F0A5F90220CEE7484647
:1006D00000F054F900F0D4F805461DB100F09AF985
:1006E0000220C3E700F096F9062000F0B7FB0020D7
:1006F000BCE700BFFEE770472DE9F0410246002548
:100700000026002000230024002791F803C00CF0ED
:100710000F0591F803C00CF0100CBCF1000F03D0D2
:1007200091F802C04CEA050591F800C0BCF1000F39
:1007300031D0146800202BE04FF0010C0CFA00F3CC
:10074000B1F800C00CEA03069E4220D183004FF0AE
:100750000F0C0CFA03F7BC4305FA03FC4CEA040443
:1007600091F803C0BCF1280F06D14FF0010C0CFA30
:1007700000FCC2F814C00AE091F803C0BCF1480FB5
:1007800005D14FF0010C0CFA00FCC2F810C0401C5F
:100790000828D1D31460B1F800C0BCF1FF0F34DDDC
:1007A000546800202EE000F1080C4FF0010808FA10
:1007B0000CF3B1F800C00CEA03069E4221D183007D
:1007C0004FF00F0C0CFA03F7BC4305FA03FC4CEA9C
:1007D000040491F803C0BCF1280F05D100F1080C06
:1007E00008FA0CF8C2F8148091F803C0BCF1480F65
:1007F00007D100F1080C4FF0010808FA0CF8C2F814
:100800001080401C0828CED35460BDE8F081024619
:10081000002093680B400BB1012000E000207047DE
:10082000416170470161704700BFFEE708B50121D3
:10083000082000F00DF94020ADF8000010208DF8E0
:10084000030003208DF8020069460B48FFF754FFB0
:100850008020ADF8000014208DF80300694606489A
:10086000FFF74AFF40210448FFF7DCFF80210348DF
:10087000FFF7D8FF08BD0000000C01400018014040
:1008800010B540210F48FFF7CBFF80210D48FFF73F
:10089000C9FF052000F003FB40210A48FFF7C2FF13
:1008A00080210848FFF7B3FF28B140210548FFF732
:1008B000B7FF012010BD40210248FFF7B1FF002023
:1008C000F8E70000000C014070B5002440211348F7
:1008D000FFF7A6FF80211148FFF7A4FF002515E0D0
:1008E00040210E48FFF79CFF6006040E052000F033
:1008F000D6FA40210948FFF795FF80210748FFF706
:1009000086FF08B144F00104681CC5B2082DE7DB7E
:1009100040210248FFF784FF204670BD000C0140D3
:1009200010B5044640211448FFF77AFF052000F077
:10093000B6FA012C0BD180210F48FFF773FF01207D
:1009400000F0ADFA40210C48FFF76CFF0BE054B902
:1009500080210948FFF764FF012000F0A0FA402140
:100960000548FFF75FFF052000F099FA4021024893
:10097000FFF756FF10BD0000000C014070B50446A3
:10098000002520E040211348FFF74AFF052000F032
:1009900086FA04F0800020B180210E48FFF742FF64
:1009A00003E080210B48FFF73BFF012000F077FABE
:1009B00040210848FFF736FF052000F070FA600676
:1009C000040E681CC5B2082DDCDB40210148FFF78E
:1009D00027FF70BD000C014010B540210C48FFF707
:1009E0001FFF80210A48FFF71DFF40210848FFF73D
:1009F00019FF052000F053FA80210548FFF710FF8A
:100A0000052000F04CFA40210148FFF709FF10BD16
:100A1000000C014010B540210A48FFF701FF80217A
:100A20000848FFF7FDFE40210648FFF7FBFE0520C2
:100A300000F035FA80210348FFF7F4FE052000F0AE
:100A40002EFA10BD000C014000BFFEE77047704752
:100A500029B1064A92690243044B9A6104E0034AB1
:100A600092698243014B9A61704700000010024076
:100A700030B500210022002400232D4D6D6805F0C3
:100A80000C0121B1042905D0082923D105E0294D05
:100A9000056022E0274D05601FE0254D6D6805F4D7
:100AA0007012234D6D6805F48034022505EB9242E7
:100AB0001CB9214D554305600BE01D4D6D6805F4D3
:100AC00000351DB11C4D5543056002E0194D5543DD
:100AD000056002E0174D056000BF00BF144D6D6852
:100AE00005F0F0010909154D6B5C0568DD404560B6
:100AF0000F4D6D6805F4E061090A104D6B5C4568A7
:100B0000DD4085600A4D6D6805F46051C90A0B4DE2
:100B10006B5C4568DD40C560054D6D6805F440417E
:100B2000890B074D6B5CC568B5FBF3F5056130BDFE
:100B30000010024000127A0000093D00040000206D
:100B400014000020704710B500F002F810BD00003E
:100B50000CB50020019000903348006840F48030CC
:100B60003149086000BF3048006800F40030009050
:100B70000198401C0190009818B90198B0F5A06F39
:100B8000F1D12948006800F4003010B10120009034
:100B900001E0002000900098012843D1234800681C
:100BA00040F01000214908600846006820F003006A
:100BB00008600846006840F0020008601A48406873
:100BC000194948600846406848600846406840F453
:100BD000806048600846406820F47C104860084601
:100BE000406840F4E81048600846006840F08070B3
:100BF000086000BF0C48006800F000700028F9D0C1
:100C00000948406820F003000749486008464068EA
:100C100040F00200486000BF0348406800F00C004C
:100C20000828F9D10CBD000000100240002002404D
:100C3000704700204FF0E02108610846006920F06D
:100C4000040008617047000010B51348006840F0C8
:100C500001001149086008464068104908400E49E3
:100C60004860084600680E4908400B49086008467D
:100C7000006820F4802008600846406820F4FE00E8
:100C800048604FF41F008860FFF75DFF4FF0006081
:100C90000449086010BD0000001002400000FFF889
:100CA000FFFFF6FE08ED00E010B586B00446012116
:100CB00044F20400FFF7CCFE4FF40070ADF81400CE
:100CC00018208DF8170003208DF8160005A9144888
:100CD000FFF712FD4FF48060ADF8140004208DF88A
:100CE000170003208DF8160005A90D48FFF704FD35
:100CF00001940020ADF80800ADF80A00ADF80C0032
:100D0000ADF810000C20ADF80E0001A9054800F068
:100D100017F80121034800F007F806B010BD0000E5
:100D2000000801400038014021B1828942F400529C
:100D3000828104E082894DF6FF731A4082817047F8
:100D40002DE9F04786B005460E460024A24600BFB6
:100D5000A1460027B08900B100BF2F462C8A4CF66F
:100D6000FF700440F08804432C82AC894EF6F310E7
:100D70000440B08831890843718908430443AC8139
:100D8000AC8A4FF6FF400440B0890443AC8201A80E
:100D9000FFF76EFE1F48874202D1DDF810A001E088
:100DA000DDF80CA0A88900F4004040B10AEBCA00AD
:100DB00000EB0A1031684900B0FBF1F807E00AEBDC
:100DC000CA0000EB0A1031688900B0FBF1F864201A
:100DD000B8FBF0F004012009642101FB1089A88907
:100DE00000F4004040B1322000EBC900B0FBF1F04C
:100DF00000F00700044308E0322000EB09106421F2
:100E0000B0FBF1F000F00F0004432C8106B0BDE808
:100E1000F08700000038014000BFFEE700BF7047C8
:100E2000FF214FF0E022916142F2283141435161AC
:100E30001146096941F00101116100BF4FF0E02145
:100E4000096901F480310029F8D04FF0E0210969E7
:100E500021F001014FF0E0221161704730B50346E7
:100E60000025B3F5E96F03DC1846FFF7D9FF15E05D
:100E700004E0A3F5E96083B2681C85B2B3F5E96FBD
:100E8000F7DA002405E04FF4E960FFF7C9FF601CC2
:100E900084B2AC42F7DB1846FFF7C2FF30BDFF213A
:100EA0004FF0E022916100EBC001516111460969E8
:100EB00041F00101116100BF4FF0E021096901F427
:100EC00080310029F8D04FF0E021096921F00101BB
:100ED0004FF0E0221161704700BF054A128802F00E
:100EE0004002002AF9D0C2B2014B1B1D1A80704784
:100EF000003801408EB014A207CA0BAB07C3FFF73E
:100F000098FE4FF4E130FFF7CFFEFFF703FB0BA88D
:100F10000A230022A0210090FF20FFF778FB04465F
:100F200001A80A230022A0210090FF20FFF7F6FA73
:100F3000054601A907A0FFF773F92A46214607A035
:100F4000FFF76EF900BFFEE7696F706A6B6C626E47
:100F50006D00000025730D0A0000000065727231FB
:100F60003D256420202020657272323D25640D0AE3
:100F700000000000940F000800000020180000008E
:100F80006C010008AC0F000818000020600600008B
:100F900088010008000000000000000001020304B6
:0C0FA00001020304060708090204060809
:0400000508000131BD
:00000001FF
