:020000040800F2
:1000000068060020CD010008FD030008A1030008D8
:10001000F90300087D0200082D060008000000001A
:10002000000000000000000000000000C9040008FB
:10003000810200080000000085040008B5050008E2
:1000400059060008E7010008E7010008E701000879
:10005000E7010008E7010008E7010008E7010008E0
:10006000E7010008E7010008E7010008E7010008D0
:10007000E7010008E7010008E7010008E7010008C0
:10008000E7010008E7010008E7010008E7010008B0
:10009000E7010008E7010008E7010008E7010008A0
:1000A000E7010008E7010008E7010008E701000890
:1000B000E7010008E7010008E7010008E701000880
:1000C000E7010008E7010008E7010008E701000870
:1000D000E7010008E7010008E7010008E701000860
:1000E000E7010008E7010008E7010008E701000850
:1000F000E7010008E7010008E7010008E701000840
:10010000E7010008E7010008E7010008E70100082F
:10011000E7010008E7010008E7010008E70100081F
:10012000E7010008E7010008E7010008E70100080F
:1001300000F002F800F03AF80AA090E8000C8244BF
:100140008344AAF10107DA4501D100F02FF8AFF29C
:10015000090EBAE80F0013F0010F18BFFB1A43F0A5
:10016000010318478C060000AC060000103A24BFBB
:1001700078C878C1FAD8520724BF30C830C144BF0C
:1001800004680C607047000000230024002500264E
:10019000103A28BF78C1FBD8520728BF30C148BFEA
:1001A0000B6070471FB51FBD10B510BD00F033F8D0
:1001B0001146FFF7F7FF00F0FDFA00F051F803B425
:1001C000FFF7F2FF03BC00F0B4FA000009488047D3
:1001D00009480047FEE7FEE7FEE7FEE7FEE7FEE729
:1001E000FEE7FEE7FEE7FEE704480549054A064B41
:1001F00070470000CD0500083101000868000020AC
:1002000068060020680200206802002070477047DE
:10021000704770477047754600F02CF8AE460500F1
:100220006946534620F00700854618B020B5FFF711
:10023000DBFFBDE820404FF000064FF000074FF015
:1002400000084FF0000B21F00701AC46ACE8C009F4
:10025000ACE8C009ACE8C009ACE8C0098D467047FD
:1002600010B50446AFF300802046BDE81040FFF70C
:10027000A6BF0000004870470400002000BFFEE752
:1002800070472DE9F041024600250026002000239A
:100290000024002791F803C00CF00F0591F803C06B
:1002A0000CF0100CBCF1000F03D091F802C04CEA26
:1002B000050591F800C0BCF1000F31D01468002092
:1002C0002BE04FF0010C0CFA00F3B1F800C00CEA7F
:1002D00003069E4220D183004FF00F0C0CFA03F767
:1002E000BC4305FA03FC4CEA040491F803C0BCF1DA
:1002F000280F06D14FF0010C0CFA00FCC2F814C014
:100300000AE091F803C0BCF1480F05D14FF0010C91
:100310000CFA00FCC2F810C0401C0828D1D31460AD
:10032000B1F800C0BCF1FF0F34DD546800202EE0AE
:1003300000F1080C4FF0010808FA0CF3B1F800C006
:100340000CEA03069E4221D183004FF00F0C0CFAF9
:1003500003F7BC4305FA03FC4CEA040491F803C01C
:10036000BCF1280F05D100F1080C08FA0CF8C2F80E
:10037000148091F803C0BCF1480F07D100F1080CBC
:100380004FF0010808FA0CF8C2F81080401C082849
:10039000CED35460BDE8F081416170470161704780
:1003A00000BFFEE708B50121082000F07DF801211B
:1003B000402000F079F82020ADF8000010208DF8E2
:1003C000030003208DF8020069460948FFF759FF32
:1003D0002020ADF8000069460648FFF752FF2021B3
:1003E0000348FFF7DBFF20210248FFF7D7FF08BDD6
:1003F000000C01400018014000BFFEE770470000FC
:1004000070B5002100230F22C47804B3154C246872
:1004100004F4E064C4F5E064210AC1F10403CA40B5
:10042000447804FA03F184781440214309010E4C06
:100430000678A155047804F01F050124AC40057826
:100440006D11AD0005F1E025C5F8004109E0047823
:1004500004F01F050124AC40044D0678761145F8E0
:10046000264070BD0CED00E000E400E080E100E01B
:1004700002490143024A1160704700000000FA057A
:100480000CED00E07047000029B1064AD269024332
:10049000044BDA6104E0034AD2698243014BDA611A
:1004A000704700000010024029B1064A92690243D9
:1004B000044B9A6104E0034A92698243014B9A61BA
:1004C0007047000000100240704710B500F002F8BD
:1004D00010BD00000CB5002001900090334800686A
:1004E00040F480303149086000BF3048006800F4B3
:1004F000003000900198401C0190009818B90198B4
:10050000B0F5A06FF1D12948006800F4003010B1B7
:100510000120009001E0002000900098012843D1C4
:100520002348006840F01000214908600846006830
:1005300020F0030008600846006840F002000860F0
:100540001A484068194948600846406848600846AB
:10055000406840F4806048600846406820F47C10A1
:1005600048600846406840F4E81048600846006863
:1005700040F08070086000BF0C48006800F0007018
:100580000028F9D00948406820F003000749486076
:100590000846406840F00200486000BF03484068D9
:1005A00000F00C000828F9D10CBD0000001002403A
:1005B00000200240704700204FF0E021086108460B
:1005C000006920F0040008617047000010B513486E
:1005D000006840F001001149086008464068104971
:1005E00008400E494860084600680E4908400B491B
:1005F00008600846006820F48020086008464068CB
:1006000020F4FE0048604FF41F008860FFF75DFF94
:100610004FF000600449086010BD00000010024067
:100620000000FFF8FFFFF6FE08ED00E000BFFEE768
:100630000020014908607047082C004040F080010C
:10064000014A116070470000002C00400120014960
:1006500008607047A480054210B50648007800F095
:1006600061F80548006880F0200003490860FFF742
:10067000DFFF10BD000000200C180140F8B5064651
:100680000C4615460121C802FFF7FEFE104800780F
:1006900030400F490870284600F024F8204600F04A
:1006A0002DF8FFF7C5FF00208DF8000001208DF820
:1006B00001008DF802008DF803006846FFF7A0FEE8
:1006C000FFF7C4FF02480078FFF7B8FFF8BD00004D
:1006D0000000002000F07F01014A11607047000017
:1006E000002C00400021044A126822F4C07101432A
:1006F000014A116070470000042C004008B5002139
:1007000000910749096821F07F01009100F07F0105
:10071000009A11430091024A0099116008BD00003F
:10072000042C004010B5044604F07F00FFF7D2FF10
:1007300010BD00BF7047FF214FF0E022916142F2EF
:100740002831414351611146096941F001011161AC
:1007500000BF4FF0E021096901F480310029F8D091
:100760004FF0E021096921F001014FF0E022116111
:10077000704730B503460025B3F5E96F03DC184632
:10078000FFF7D9FF15E004E0A3F5E96083B2681C28
:1007900085B2B3F5E96FF7DA002405E04FF4E960BC
:1007A000FFF7C9FF601C84B2AC42F7DB1846FFF7C5
:1007B000C2FF30BD4FF4A060FFF75AFEFFF7FBFE0B
:1007C000FFF7F0FD20210948FFF7E6FD4FF4967092
:1007D000FFF7CFFF03225F217F20FFF74FFF03E0EA
:1007E00020210248FFF7DAFDFAE70000000C014083
:1007F0001008000800000020040000006C01000840
:1008000014080008040000206406000088010008A5
:040810007F00000065
:0400000508000131BD
:00000001FF
