:020000040800F2
:10000000600600200D020008A50300085B0300083D
:10001000A1030008BD020008450700080000000019
:10002000000000000000000000000000790400084B
:10003000C10200080000000035040008690500083E
:1000400027020008270200082702000827020008EC
:1000500027020008270200082702000827020008DC
:1000600027020008270200082702000827020008CC
:1000700027020008270200082702000827020008BC
:1000800027020008270200082702000827020008AC
:10009000270200082702000827020008270200089C
:1000A000270200082702000827020008270200088C
:1000B000270200082702000827020008270200087C
:1000C000270200082702000827020008270200086C
:1000D000270200082702000827020008270200085C
:1000E000270200082702000827020008270200084C
:1000F000270200082702000827020008270200083C
:10010000270200082702000827020008270200082B
:100110002702000827020008E90500082702000856
:10012000270200082702000827020008270200080B
:1001300027020008270200082702000827020008FB
:1001400027020008270200082702000827020008EB
:1001500027020008270200082702000827020008DB
:1001600027020008270200082702000827020008CB
:1001700027020008270200082702000827020008BB
:10018000270200082702000800F002F800F02EF80D
:100190000AA090E8000C82448344AAF10107DA45E2
:1001A00001D100F023F8AFF2090EBAE80F0013F006
:1001B000010F18BFFB1A43F001031847680600003F
:1001C000780600000023002400250026103A28BFEE
:1001D00078C1FBD8520728BF30C148BF0B607047B9
:1001E0001FB500F019FB1FBD10B510BD00F033F8AE
:1001F0001146FFF7F5FF00F0EBFA00F051F803B4F9
:10020000FFF7F2FF03BC00F09FFA000009488047A7
:1002100009480047FEE7FEE7FEE7FEE7FEE7FEE7E8
:10022000FEE7FEE7FEE7FEE704480549054A064B00
:100230007047000081050008890100086000002067
:1002400060060020600200206002002070477047B6
:10025000704770477047754600F02CF8AE460500B1
:100260006946534620F00700854618B020B5FFF7D1
:10027000DBFFBDE820404FF000064FF000074FF0D5
:1002800000084FF0000B21F00701AC46ACE8C009B4
:10029000ACE8C009ACE8C009ACE8C0098D467047BD
:1002A00010B50446AFF300802046BDE81040FFF7CC
:1002B000A6BF0000004870470000002000BFFEE716
:1002C0007047F0B50A4600210023002400BF3DE03E
:1002D000012505FA01F3156805EA03049C4234D1AF
:1002E00005684F000326BE40B543056015794E00F2
:1002F000B5400668354305601579012D02D01579A2
:10030000022D16D185684F000326BE40B543856097
:1003100055794E00B54086683543856045680126AD
:100320008E40B5434560456896798E40B6B23543F8
:100330004560C5684F000326BE40B543C560D5790A
:100340004E00B540C6683543C560491C1029BFD36F
:10035000F0BD418370470183704700BFFEE7000096
:100360001CB50121202000F067F84FF4C060009018
:1003700001208DF8040000208DF8060003208DF880
:10038000050001208DF8070069460448FFF799FF32
:100390004FF4C0610148FFF7DEFF1CBD00140240AE
:1003A00000BFFEE77047000070B5002100230F2258
:1003B000C4781CB3174C246804F4E064C4F5E0640A
:1003C000C4F30721C1F10404E3B20A4144789C401C
:1003D000E1B28478144021430C07210E0E4C0578BD
:1003E0006155047804F01F050124AC4005786D11B7
:1003F000AD0005F1E025C5F8004109E0047804F0FE
:100400001F050124AC40054D0678761145F82640BD
:1004100070BD00000CED00E000E400E080E100E0D1
:1004200002490143024A1160704700000000FA05CA
:100430000CED00E07047000029B1064A1268024343
:10044000044B1A6004E0034A12688243014B1A60AD
:10045000704700003038024029B1064A1268024352
:10046000044B1A6004E0034A12688243014B1A608D
:100470007047000040380240704700000CB5002073
:10048000019000903448006840F4803032490860A0
:1004900000BF3148006800F4003000900198401C13
:1004A0000190009818B90198B0F5A04FF1D12A48F1
:1004B000006800F4003010B10120009001E000203D
:1004C00000900098012846D123484030006840F051
:1004D00080502149403108602048006840F4404085
:1004E0001E4908601C48083000681B490831086034
:1004F0000846006840F4004008600846006840F480
:10050000A05008601648091F0860081F006840F0E6
:100510008070091F086000BF0F48006800F000707D
:100520000028F9D040F205700E4908600A480830EA
:10053000006820F003000849083108600846006898
:1005400040F00200086000BF03480830006800F077
:100550000C000828F8D10CBD0038024000700040A3
:1005600008544007003C0240704700204FF0E02153
:1005700008610846006920F0040008617047000027
:1005800010B51548006840F470001349086013481E
:10059000006840F001001149086000200F4908314F
:1005A00008600E4800680E4908400C4908600D4874
:1005B000091D0860081F006820F48020091F0860DA
:1005C000002006490C310860FFF758FF4FF000602B
:1005D00001498039086010BD88ED00E00038024014
:1005E000FFFFF6FE1030002410B50121074800F08F
:1005F0004CF8012809D10121044800F037F80448DB
:10060000006880F480600249086010BD001000405E
:10061000141402407FB505460C4601211020FFF757
:100620001BFF0295ADF804400020ADF80600ADF8C0
:100630000C0001A90C4800F043F8012211460A48B9
:1006400000F034F836208DF8000001208DF801000C
:100650008DF802008DF803006846FFF7A5FE012122
:10066000014800F006F87FBD00100040CA43028236
:10067000704721B1028842F00102028004E0028842
:100680004FF6FE731A400280704730B502460020D4
:1006900000230024158A05EA0103958905EA01046F
:1006A00013B10CB1012000E0002030BD1AB18389E4
:1006B0000B43838102E083898B4383817047000071
:1006C00000220288184B98420ED0184B98420BD04B
:1006D000B0F1804F08D0164B984205D0154B984288
:1006E00002D0154B984204D14FF68F731A404B88B5
:1006F0001A43124B984207D0114B984204D04FF640
:10070000FF431A400B891A4302804B68C3620B886F
:100710000385054B984202D0044B984201D18B7A55
:1007200003860123838270470000014000040140DA
:100730000004004000080040000C00400010004091
:100740000014004000BFFEE700BF7047FF214FF0DC
:10075000E022916145F20821414351611146096946
:1007600041F00101116100BF4FF0E021096901F47E
:1007700080310029F8D04FF0E021096921F0010112
:100780004FF0E0221161704730B50346002540F27A
:100790001E30834203DC1846FFF7D8FF16E004E062
:1007A000A3F21E3083B2681CC5B240F21E308342F1
:1007B000F6DA002405E040F21E30FFF7C7FF601CA8
:1007C000C4B2AC42F7DB1846FFF7C0FF30BD0000F3
:1007D0004FF4A060FFF724FEFFF7C7FEFFF7C0FD50
:1007E00042F2D00141F28730FFF714FF11E04FF4DD
:1007F00000710848FFF7ADFD4FF4FA70FFF7C4FF32
:100800004FF400710348FFF7A6FD4FF4FA70FFF7AD
:10081000BBFFECE7001402404FF04070E1EE100A1D
:100820007047000034080008000000206006000047
:04083000C4010008F7
:040000050800018965
:00000001FF
