:020000040800F2
:1000000048070020D5010008DD010008DF010008D5
:10001000E1010008E3010008E5010008000000001C
:10002000000000000000000000000000E7010008E0
:10003000E901000800000000EB010008ED010008E4
:10004000EF010008EF010008EF010008EF010008D0
:10005000EF010008EF010008EF010008EF010008C0
:10006000EF010008EF010008DD030008EF010008C0
:10007000EF010008EF010008EF010008EF010008A0
:10008000EF010008EF010008EF010008EF01000890
:10009000EF010008EF010008EF010008210400084B
:1000A000EF010008EF010008EF010008EF01000870
:1000B000EF010008EF010008EF010008EF01000860
:1000C000EF010008EF010008EF010008EF01000850
:1000D000EF010008490A0008EF010008EF010008DD
:1000E000EF010008EF010008EF010008EF01000830
:1000F000EF010008EF010008EF010008EF01000820
:10010000EF010008EF010008EF010008EF0100080F
:10011000EF010008EF010008EF010008EF010008FF
:10012000EF010008EF010008EF010008EF010008EF
:1001300000F002F800F03FF80AA090E8000C8244BA
:100140008344AAF10107DA4501D100F034F8AFF297
:10015000090EBAE80F0013F0010F18BFFB1A43F0A5
:1001600001031847640E0000840E0000103A24BFFB
:1001700078C878C1FAD8520724BF30C830C144BF0C
:1001800004680C607047000000230024002500264E
:10019000103A28BF78C1FBD8520728BF30C148BFEA
:1001A0000B607047732900F0B680002070471FB5C0
:1001B0001FBD10B510BD00F0E1F81146FFF7F7FFC5
:1001C00000F0CAFE00F0FFF803B4FFF7F2FF03BC33
:1001D00000F072FE0948804709480047FEE7FEE745
:1001E000FEE7FEE7FEE7FEE7FEE7FEE7FEE7FEE7E7
:1001F00004480549054A064B70470000E909000814
:100200003101000848010020480700204803002071
:1002100048030020704700000FB4044910B503AA3A
:10022000029800F07DF810BC5DF814FB000000207F
:100230002DE9F0410E460446002020622046E16888
:10024000884730B3252805D0D4E901219047206A9A
:10025000401CF2E7E168204600278847050018D0D7
:10026000A5F14100192802D820354FF40067324625
:10027000294620462760FFF795FF40B1012804D0AA
:10028000F61D26F007060836D8E7361DD6E72846BD
:10029000DAE7206ABDE8F08170B50C460546012A10
:1002A00005D02878800600D5EA69002302E0012302
:1002B00005E05B1C934202D2E05C0028F9D1A869FA
:1002C000E618C01AA861286A184428622846AFF3C5
:1002D000008004E0D5E9012114F8010B9047B442F5
:1002E000F8D32846AFF3008070BD70477047704761
:1002F000704710B5436913B1AFF3008001E0FFF719
:10030000CBFF012010BD127800F124010A700022F9
:100310004A700122EDE711684FF0FF32E9E7000073
:10032000074B70B50D467B4400F011F80446284693
:1003300000F020F810B14FF0FF3070BD204670BDC6
:10034000130C000001694A1C02610878704700B56F
:100350008FB0CDE901310021059105497944CDE9FE
:10036000031011466846FFF763FF0FB000BD0000A1
:10037000E5FFFFFF007B00F080007047754600F04E
:1003800029F8AE4605006946534620F00700854629
:1003900018B020B5FFF72CFFBDE820404FF0000655
:1003A0004FF000074FF000084FF0000B21F007015D
:1003B000AC46ACE8C009ACE8C009ACE8C009ACE8A0
:1003C000C0098D4670470446AFF300802046FFF712
:1003D000FBFE000000487047E400002010B510202C
:1003E00000F036F8012813D10A2000F086FD0948F4
:1003F000006800F0100058B90748006840F010008D
:10040000054908600548006880F02000034908603D
:1004100010BD000008180140140401400C0C0140FC
:1004200010B5202000F014F801280BD10648006810
:1004300040F02000044908600448006880F0200073
:100440000249086010BD0000140401400C0C01407A
:1004500001460020034A12680A400AB1012000E068
:1004600000207047140401402DE9F04102460025A8
:100470000026002000230024002791F803C00CF080
:100480000F0591F803C00CF0100CBCF1000F03D065
:1004900091F802C04CEA050591F800C0BCF1000FCC
:1004A00031D0146800202BE04FF0010C0CFA00F35F
:1004B000B1F800C00CEA03069E4220D183004FF041
:1004C0000F0C0CFA03F7BC4305FA03FC4CEA0404D6
:1004D00091F803C0BCF1280F06D14FF0010C0CFAC3
:1004E00000FCC2F814C00AE091F803C0BCF1480F48
:1004F00005D14FF0010C0CFA00FCC2F810C0401CF2
:100500000828D1D31460B1F800C0BCF1FF0F34DD6E
:10051000546800202EE000F1080C4FF0010808FAA2
:100520000CF3B1F800C00CEA03069E4221D183000F
:100530004FF00F0C0CFA03F7BC4305FA03FC4CEA2E
:10054000040491F803C0BCF1280F05D100F1080C98
:1005500008FA0CF8C2F8148091F803C0BCF1480FF7
:1005600007D100F1080C4FF0010808FA0CF8C2F8A6
:100570001080401C0828CED35460BDE8F081416152
:10058000704701617047000008B50121042000F0A8
:1005900099F80121402000F095F81820ADF80000EE
:1005A00048208DF8030069460648FFF75DFF0120EB
:1005B000ADF8000028208DF8030069460248FFF7D7
:1005C00053FF08BD001801400008014008B5012193
:1005D000082000F077F80121402000F073F8202077
:1005E000ADF8000010208DF8030003208DF8020004
:1005F00069460948FFF738FF2020ADF8000069463A
:100600000648FFF731FF20210348FFF7BAFF2021FA
:100610000248FFF7B6FF08BD000C0140001801407A
:1006200070B5002100230F22C47804B3154C246850
:1006300004F4E064C4F5E064210AC1F10403CA4093
:10064000447804FA03F184781440214309010E4CE4
:100650000678A155047804F01F050124AC40057804
:100660006D11AD0005F1E025C5F8004109E0047801
:1006700004F01F050124AC40044D0678761145F8BE
:10068000264070BD0CED00E000E400E080E100E0F9
:1006900002490143024A1160704700000000FA0558
:1006A0000CED00E029B1064AD2690243044BDA613D
:1006B00004E0034AD2698243014BDA6170470000CB
:1006C0000010024029B1064A92690243044B9A6124
:1006D00004E0034A92698243014B9A61704700002B
:1006E0000010024030B500210022002400232D4DCF
:1006F0006D6805F00C0121B1042905D0082923D12A
:1007000005E0294D056022E0274D05601FE0254DDD
:100710006D6805F47012234D6D6805F48034022570
:1007200005EB92421CB9214D554305600BE01D4D70
:100730006D6805F400351DB11C4D5543056002E0A0
:10074000194D5543056002E0174D056000BF00BF1D
:10075000144D6D6805F0F0010909154D6B5C0568D5
:10076000DD4045600F4D6D6805F4E061090A104DEC
:100770006B5C4568DD4085600A4D6D6805F460512D
:10078000C90A0B4D6B5C4568DD40C560054D6D6861
:1007900005F44041890B074D6B5CC568B5FBF3F56B
:1007A000056130BD0010024000127A0000093D00D2
:1007B000050000201500002000B587B001210820A9
:1007C000FFF780FF01218803FFF76CFF4FF46040C3
:1007D000ADF8180018208DF81B0003208DF81A00C2
:1007E00006A91648FFF740FE4FF460411348FFF793
:1007F000C8FE0020ADF804004FF48270ADF806008A
:100800000020ADF80800ADF80A00ADF80C004FF478
:100810000070ADF80E000820ADF810000020ADF813
:1008200012000720ADF8140001A9054800F040F8B7
:100830000121034800F022F807B000BD000C014080
:100840000038004010B5044600BF02210A4800F0FD
:1008500021F80028F9D02146074800F027F800BF0A
:100860000121054800F016F80028F9D0024800F0F0
:100870001AF8C4B2204610BD0038004021B10288E9
:1008800042F04002028004E002884FF6BF731A4033
:10089000028070470246002013890B400BB10120F3
:1008A00000E00020704701468889704781817047C9
:1008B00010B50022028802F441520B884C88234371
:1008C0008C882343CC8823430C8923434C892343BE
:1008D0008C892343CC8923431A430280838B4FF2B4
:1008E000FF74234083830B8A038210BD10B500F090
:1008F00001F810BD0CB5002001900090334800684D
:1009000040F480303149086000BF3048006800F48E
:10091000003000900198401C0190009818B901988F
:10092000B0F5A06FF1D12948006800F4003010B193
:100930000120009001E0002000900098012843D1A0
:100940002348006840F0100021490860084600680C
:1009500020F0030008600846006840F002000860CC
:100960001A48406819494860084640684860084687
:10097000406840F4806048600846406820F47C107D
:1009800048600846406840F4E8104860084600683F
:1009900040F08070086000BF0C48006800F00070F4
:1009A0000028F9D00948406820F003000749486052
:1009B0000846406840F00200486000BF03484068B5
:1009C00000F00C000828F9D10CBD00000010024016
:1009D000002002404FF0E020006920F004004FF0BA
:1009E000E02108617047000010B51348006840F02E
:1009F00001001149086008464068104908400E4946
:100A00004860084600680E4908400B4908600846DF
:100A1000006820F4802008600846406820F4FE004A
:100A200048604FF41F008860FFF760FF4FF00060E0
:100A30000449086010BD0000001002400000FFF8EB
:100A4000FFFFF6FE08ED00E010B52021144800F08D
:100A5000A1F801280BD1124800F064F91149124A9B
:100A60001278885410480078401C0F49087040F2F2
:100A700024410B4800F09BF8012810D10848008859
:100A80000748001D008800210648074A1278815453
:100A9000014606A0FFF7C0FB00200349087010BD07
:100AA000003801401C00002004000020C4E3B7A26D
:100AB000CBCDB5C4CAFDBEDDCAC7A3BA25730D0A26
:100AC0000000000010B586B0044601210420FFF7A5
:100AD000F9FD01218803FFF7F5FD4FF40070ADF833
:100AE000140018208DF8170003208DF8160005A9B2
:100AF0002048FFF7B9FC4FF48060ADF814000420E3
:100B00008DF8170003208DF8160005A91948FFF786
:100B1000ABFC01940020ADF80800ADF80A00ADF878
:100B20000C00ADF810000C20ADF80E0001A9124821
:100B300000F08CF8012240F225510F4800F061F8D6
:100B4000012240F224410C4800F05BF825208DF88A
:100B5000000001208DF801008DF802008DF80300DF
:100B60006846FFF75DFD0121034800F007F806B075
:100B700010BD0000000801400038014021B1828909
:100B800042F40052828104E082894DF6FF731A40DC
:100B90008281704702460020B1F5007F00D100BF7E
:100BA00013880B400BB1012000E00020704770B5A6
:100BB0000246002400230025002040F66A16B142B8
:100BC00000D100BFC1F3421501F01F03012606FA50
:100BD00003F3012D02D19689334006E0022D02D1A4
:100BE000168A334001E0968A33400C12012606FA39
:100BF00004F41688344013B10CB1012000E0002049
:100C000070BDF0B50346002400260025002040F604
:100C10006A17B94200D100BF1846C1F3421401F06F
:100C20001F06012707FA06F5012C01D10C3004E05C
:100C3000022C01D1103000E014301AB107682F43A4
:100C4000076002E00768AF430760F0BD2DE9F04799
:100C500086B005460E460024A24600BFA1460027E6
:100C6000B08900B100BF2F462C8A4CF6FF700440BB
:100C7000F08804432C82AC894EF6F3100440B0880F
:100C800031890843718908430443AC81AC8A4FF62B
:100C9000FF400440B0890443AC8201A8FFF722FD65
:100CA0001F48874202D1DDF810A001E0DDF80CA05A
:100CB000A88900F4004040B10AEBCA0000EB0A101A
:100CC00031684900B0FBF1F807E00AEBCA0000EB1D
:100CD0000A1031688900B0FBF1F86420B8FBF0F02D
:100CE00004012009642101FB1089A88900F4004057
:100CF00040B1322000EBC900B0FBF1F000F007007A
:100D0000044308E0322000EB09106421B0FBF1F04D
:100D100000F00F0004432C8106B0BDE8F08700000E
:100D20000038014001468888C0F308007047000081
:100D300008B5FFF741FD01210820FFF7C3FC4FF480
:100D40008050ADF8000010208DF8030003208DF8CE
:100D5000020069460448FFF787FB4FF480510248C0
:100D6000FFF70FFC08BD0000000C014070B5044601
:100D70000D46164600F08EF84FF480511248FFF7EA
:100D8000FEFB0220FFF75EFDC4F30740FFF75AFDAC
:100D9000C4F30720FFF756FDE0B2FFF753FD04E070
:100DA0003078FFF74FFD761C6D1E002DF8D14FF403
:100DB00080510548FFF7E5FB00BF00F02FF800F079
:100DC00001000028F9D170BD000C014070B5044647
:100DD0000D4616464FF480510F48FFF7D0FB032015
:100DE000FFF730FDC4F30740FFF72CFDC4F30720E5
:100DF000FFF728FDE0B2FFF725FD05E0FF20FFF734
:100E000021FD3070761C6D1E002DF7D14FF48051FE
:100E10000148FFF7B6FB70BD000C014010B54FF460
:100E200080510848FFF7ABFB0520FFF70BFDFF20C3
:100E3000FFF708FD04464FF480510248FFF7A1FB7D
:100E4000204610BD000C014010B5044600F022F809
:100E50004FF480510E48FFF792FB2020FFF7F2FC81
:100E6000C4F30740FFF7EEFCC4F30720FFF7EAFCEA
:100E7000E0B2FFF7E7FC4FF480510548FFF781FB34
:100E800000BFFFF7CBFF00F001000028F9D110BD33
:100E9000000C014010B54FF480510648FFF76FFB7E
:100EA0000620FFF7CFFC4FF480510248FFF769FBA3
:100EB00010BD0000000C0140014600BF7047FF213B
:100EC0004FF0E022916142F22831414351611146D5
:100ED000096941F00101116100BF4FF0E02109698A
:100EE00001F480310029F8D04FF0E021096921F0A8
:100EF00001014FF0E0221161704730B50346002533
:100F0000B3F5E96F03DC1846FFF7D9FF15E004E0FD
:100F1000A3F5E96083B2681CC5B2B3F5E96FF7DAEF
:100F2000002405E04FF4E960FFF7C9FF601CC4B27C
:100F3000AC42F7DB1846FFF7C2FF30BD00BF054AE1
:100F4000128802F04002002AF9D0C2B2014B1B1DE8
:100F50001A807047003801408CB015A207CA09AB4F
:100F600007C3FFF737FD4FF4A060FFF791FBFFF7D2
:100F70002DFB4FF41650FFF7A5FDFFF705FBFFF71C
:100F8000D7FE0520FFF760FF09AA0B210120FFF71C
:100F9000EDFE01AA0B210120FFF718FF07E001A9D0
:100FA00006A0FFF739F94FF4FA70FFF788FFF6E76C
:100FB0006D6F6D6FC3BBB9FEB9FE00007374723202
:100FC000203A2025730D0A00E80F000800000020D9
:100FD0001C0000006C010008041000081C00002028
:100FE0002C0700008801000800000000000000003D
:100FF00000010203040102030406070809020406B3
:0410000008000000E4
:0400000508000131BD
:00000001FF
