:020000040800F2
:1000000088060020D50100081B060008E10500084D
:1000100017060008C50400082D11000800000000A4
:10002000000000000000000000000000590E000861
:10003000C904000800000000AD060008450F0008D4
:10004000EF010008EF010008EF0100083D0A000879
:10005000EF010008EF010008EF010008EF010008C0
:10006000EF010008EF010008EF010008EF010008B0
:10007000EF010008EF010008EF010008EF010008A0
:10008000EF010008EF010008EF010008EF01000890
:10009000EF010008EF010008EF010008EF01000880
:1000A000EF010008EF010008EF010008EF01000870
:1000B000EF010008EF010008EF010008EF01000860
:1000C000EF010008EF010008EF010008EF01000850
:1000D000EF010008EF010008EF010008EF01000840
:1000E000EF010008EF010008EF010008EF01000830
:1000F000EF010008EF010008EF010008EF01000820
:10010000EF010008EF010008EF010008EF0100080F
:10011000EF010008EF010008EF010008EF010008FF
:10012000EF010008EF010008EF010008EF010008EF
:1001300000F002F800F03FF80AA090E8000C8244BA
:100140008344AAF10107DA4501D100F034F8AFF297
:10015000090EBAE80F0013F0010F18BFFB1A43F0A5
:1001600001031847A0100000C0100000103A24BF7F
:1001700078C878C1FAD8520724BF30C830C144BF0C
:1001800004680C607047000000230024002500264E
:10019000103A28BF78C1FBD8520728BF30C148BFEA
:1001A0000B607047642900F07780002070471FB50E
:1001B0001FBD10B510BD00F037F91146FFF7F7FF6E
:1001C00001F006F800F055F903B4FFF7F2FF03BCA5
:1001D00000F0AEFF0948804709480047FEE7FEE708
:1001E000FEE7FEE7FEE7FEE7FEE7FEE7FEE7FEE7E7
:1001F00004480549054A064B704700005D0F00089A
:1002000031010008880000208806002088020020B4
:1002100088020020704700000FB4044910B503AAFB
:10022000029800F0D3F810BC5DF814FB0000002029
:100230002DE9F0410E460446002020622046E16888
:10024000884730B3252805D0D4E901219047206A9A
:10025000401CF2E7E168204600278847050018D0D7
:10026000A5F14100192802D820354FF40067324625
:10027000294620462760FFF795FF40B1012804D0AA
:10028000F61D26F007060836D8E7361DD6E72846BD
:10029000DAE7206ABDE8F0812DE9F0410646002446
:1002A00010687529314616A510D0AFF300800028DC
:1002B00002DA404213A507E031688A0701D512A58A
:1002C00002E0490704D511A5012401E0AFF3008045
:1002D00000210A2206F1240709E0B0FBF2FCB0FB82
:1002E000F2F302FB1C00303078541846491C0028F9
:1002F000F3D123462A463046BDE8F04100F00CB861
:10030000000000002D0000002B0000002000000075
:1003100070477047704770472DE9F0470D46994682
:100320009246044600F124080168880604D5E06975
:1003300021F01001216000E00120A84201DD471BEF
:1003400000E00027A1697A1902EB0900081AA061F0
:100350002078C00602D42046AFF30080002608E0D3
:10036000D4E901211AF806009047206A401C761C47
:1003700020624E45F4DB2078C0060AD52046AFF354
:10038000008006E0D4E9012130209047206A401C1B
:100390002062381EA7F10107F4DC07E0D4E901214F
:1003A00018F805009047206A401C2062281EA5F11D
:1003B0000105F3DC2046AFF300802078000602D56B
:1003C0000220BDE8F0870120FBE70000074B70B575
:1003D0000D467B4400F011F80446284600F020F852
:1003E00010B14FF0FF3070BD204670BDDF0D000032
:1003F00001694A1C02610878704700B58FB0CDE9E9
:1004000001310021059105497944CDE903101146D8
:100410006846FFF70DFF0FB000BD0000E5FFFFFFCE
:10042000007B00F080007047754600F02BF8AE4668
:1004300005006946534620F00700854618B020B5F0
:10044000FFF7D6FEBDE820404FF000064FF0000752
:100450004FF000084FF0000B21F00701AC46ACE86C
:10046000C009ACE8C009ACE8C009ACE8C0098D46D9
:10047000704710B50446AFF300802046BDE8104039
:10048000FFF7A2BE004870472400002008B50146CF
:1004900000200090034800900098084400900098C5
:1004A000008808BD006C004008B500220092044A94
:1004B0000092009A02440092009A116008BD000068
:1004C000006C004000BFFEE770472DE9F041024696
:1004D00000250026002000230024002791F803C0F7
:1004E0000CF00F0591F803C00CF0100CBCF1000FDC
:1004F00003D091F802C04CEA050591F800C0BCF1A8
:10050000000F31D0146800202BE04FF0010C0CFAE2
:1005100000F3B1F800C00CEA03069E4220D183002C
:100520004FF00F0C0CFA03F7BC4305FA03FC4CEA3E
:10053000040491F803C0BCF1280F06D14FF0010C60
:100540000CFA00FCC2F814C00AE091F803C0BCF138
:10055000480F05D14FF0010C0CFA00FCC2F810C096
:10056000401C0828D1D31460B1F800C0BCF1FF0FC3
:1005700034DD546800202EE000F1080C4FF0010833
:1005800008FA0CF3B1F800C00CEA03069E4221D130
:1005900083004FF00F0C0CFA03F7BC4305FA03FC81
:1005A0004CEA040491F803C0BCF1280F05D100F116
:1005B000080C08FA0CF8C2F8148091F803C0BCF1DA
:1005C000480F07D100F1080C4FF0010808FA0CF8A9
:1005D000C2F81080401C0828CED35460BDE8F081DA
:1005E00000BFFEE70146CA1701EB92729210A1EB21
:1005F00082022AB9642291FBF2F302FB131232B990
:100600004FF4C87291FBF2F302FB13120AB90120F6
:1006100070470020FCE700BFFEE7704770B500217F
:1006200000230F22C47804B3154C246804F4E0645A
:10063000C4F5E064210AC1F10403CA40447804FA15
:1006400003F184781440214309010E4C0678A1552A
:10065000047804F01F050124AC4005786D11AD004D
:1006600005F1E025C5F8004109E0047804F01F0514
:100670000124AC40044D0678761145F8264070BD43
:100680000CED00E000E400E080E100E002490143FD
:10069000024A1160704700000000FA050CED00E00E
:1006A000014908627047000000000E4270470000D8
:1006B00029B1064AD2690243044BDA6104E0034AD5
:1006C000D2698243014BDA6170470000001002409A
:1006D00029B1064A92690243044B9A6104E0034A35
:1006E00092698243014B9A617047000000100240FA
:1006F00030B500210022002400232D4D6D6805F047
:100700000C0121B1042905D0082923D105E0294D88
:10071000056022E0274D05601FE0254D6D6805F45A
:100720007012234D6D6805F48034022505EB92426A
:100730001CB9214D554305600BE01D4D6D6805F456
:1007400000351DB11C4D5543056002E0194D554360
:10075000056002E0174D056000BF00BF144D6D68D5
:1007600005F0F0010909154D6B5C0568DD40456039
:100770000F4D6D6805F4E061090A104D6B5C45682A
:10078000DD4085600A4D6D6805F46051C90A0B4D66
:100790006B5C4568DD40C560054D6D6805F4404102
:1007A000890B074D6B5CC568B5FBF3F5056130BD82
:1007B0000010024000127A0000093D0004000020F1
:1007C0001400002010B501460022002300204A1129
:1007D000012A02D1094C236806E0022A02D1074C03
:1007E000236A01E0054C636A01F01F020124944072
:1007F0001C400CB1012000E0002010BD00100240A0
:1008000000210B4A11700A4A203A82F82010012870
:1008100002D0042808D103E00121054A117004E048
:100820000521034A117000E000BF00BF70470000BF
:10083000201002402DE9FF4F04460D4669B2A1F198
:1008400002084FFA88F8B8F1000107DC01F10C0842
:100850004FFA88F1A4F101081FFA88F44FF06409F7
:1008600094FBF9FA4FEAE47904EB99794FEAA90B82
:10087000A4F1010940F26D1E09FB0EB9A9EB0A09AA
:100880004FF4C87A94FBFAFA09EB0A0340F26F18A6
:1008900001FB08F84FF00C0998FBF9F808F11D0668
:1008A000571E03EB0608B844DFF83090A8EB090C9C
:1008B0000CEB4C09DDF80C8008EBC908C8EB0819F3
:1008C000DDF8348008EB8908C8EB0819DDF83880BA
:1008D00008EB890004B0BDE8F08F00003AF90A0087
:1008E0000348008840F0100001490880704700006C
:1008F00004280040034800884FF6EF710840014982
:100900000880704704280040002103480188001F28
:10091000008841EA004070471C2800400146002042
:10092000034A12880A400AB1012000E00020704703
:1009300004280040FEB53BA2D2E900109268CDE940
:1009400001020091FFF7E0FF06463948B6FBF0F5DB
:1009500038480088A84238D040F2B27435490D803A
:100960000DE0A0B2FFF73EFE30B1B5F5B77F02D380
:10097000A5F5B77502E005E0A5F26D15641CB5F5A7
:10098000B67FEED800BF2C490C80002415E02A4920
:100990000888FFF727FE30B1012C04D11D2C01D3AC
:1009A0001D3C09E00BE01DF80400A84203D81DF827
:1009B00004002D1A00E002E0641C1C2DE7D200BFE9
:1009C000601C1D498870681CC8701948B6FBF0F19E
:1009D00000FB11644FF46160B4FBF0F016494871FC
:1009E0004FF46160B4FBF0F100FB11403C21B0FB1F
:1009F000F1F0114988714FF46160B4FBF0F100FB34
:100A000011403C21B0FBF1F201FB12000A49C87110
:100A10000B46DA789978188800F0F6F906490871DB
:100A2000FEBD00001F1C1F1E1F1E1F1F1E1F1E1F9E
:100A30008051010020000020180000201FB5012077
:100A4000FFF76CFF01281AD1FFF774FF20480088D8
:100A500020F001001E4908801E48C0791D4989798F
:100A60001C4A52791B4B1B79CDE90032CDE90210AB
:100A70001848C3788278018817A0FFF7CDFB0220C1
:100A8000FFF74CFF012815D11148008820F0020023
:100A90000F4908800F48C0790E4989790D4A52796B
:100AA000CDE9002102900B48C3788278018814A018
:100AB000FFF7B2FB0648008820F0040004490880D4
:100AC00000BF0348008800F020000028F9D01FBDB7
:100AD0000428004018000020CAB5CAB1CAB1BCE45D
:100AE0003A25642D25642D2564207765656B3A25AC
:100AF000642025643A25643A25640D0A000000004C
:100B0000C4D6D6D33A25642D25642D2564202564CA
:100B10003A25643A25640D0A0000000029B1064A0E
:100B200012880243044B1A8004E0034A128882436D
:100B3000014B1A807047000000280040FEB50026D7
:100B4000C8240025002701210807FFF7B1FD012176
:100B5000C806FFF7ADFD0120FFF7A2FD0420FFF757
:100B600095FC064645F2500086425BD00120FFF717
:100B700047FE04E0601E84B2052000F0F9FA24B1BB
:100B80004120FFF71FFE0028F4D04648056A25F4EF
:100B90004075ACB9406A40F001004249486200BF6C
:100BA0004048406A00F002000028F9D045F4007582
:100BB00049F63F4745F251010420FFF775FC08E074
:100BC00045F4807547F6FF7745F250010420FFF7A2
:100BD0006BFC45F400453348056200F0F9F800F07D
:100BE00001F901210846FFF799FF01210220FFF7D3
:100BF00095FF00F0EDF8FFF773FE384600F074F84B
:100C0000FFF778FE00F0E4F845F25100864238D054
:100C1000254801680091406801460190009800F065
:100C20009DF82EE000F0DEF864242048058809E0F5
:100C3000052000F09DFA601E84B21C480088A8427E
:100C400000D001E0002CF3D100BF84B94FF6FF7152
:100C50000420FFF729FC4FF48030124908620A2073
:100C600000F086FA00200F4908620120FEBD012134
:100C70000846FFF753FF01210220FFF74FFF00F066
:100C8000A7F803208DF8080001208DF809008DF8E1
:100C90000A008DF80B0002A8FFF7C0FCFFF74AFE20
:100CA0000020E3E700100240180000201428004054
:100CB00000B50246FFF714FE100C03490880091D19
:100CC0000A80FFF717FE00BD2028004000B502464D
:100CD000FFF706FE100C03490880091D0A80FFF784
:100CE00009FE00BD1828004000B50246FFF7F8FDD8
:100CF000C2F3034003490880091D0A80FFF7FAFD8B
:100D000000BD0000082800402DE9FC4704460D46C0
:100D100016461F46DDE90A8A4FF000093B46324677
:100D200029462046CDE9008AFFF784FD814601214E
:100D30000807FFF7BDFC0121C806FFF7B9FC012039
:100D4000FFF7AEFCFFF7CCFD4846FFF7B1FFFFF71A
:100D5000D1FD00F03DF80020BDE8FC8733B583B03D
:100D60000024BDF80C0040F2B271884205DBBDF8EA
:100D70000C0040F63301884202DD012005B030BD91
:100D80009DF813009DF81210CDE900109DF8113068
:100D90009DF80F209DF80E10BDF80C00FFF74AFDDE
:100DA000044601210807FFF783FC0121C806FFF76D
:100DB0007FFC0120FFF774FCFFF792FD2046FFF750
:100DC00085FFFFF797FD00F003F80020D6E700004D
:100DD00000BF0348008800F020000028F9D07047C9
:100DE00004280040074800884FF6F771084005497D
:100DF000088000BF0348008800F008000028F9D0F0
:100E0000704700000428004070B503460020032905
:100E100004DA01F10C04E1B25C1EA3B24C1C04EB39
:100E20004404052594FBF5F5541C022606FB0144F9
:100E30002C441C4404EBA304642593FBF5F5641BCC
:100E40004FF4C87593FBF5F52C44072594FBF5F694
:100E500005FB1644E0B270BD704710B500F002F813
:100E600010BD00000CB500200190009033480068D0
:100E700040F480303149086000BF3048006800F419
:100E8000003000900198401C0190009818B901981A
:100E9000B0F5A06FF1D12948006800F4003010B11E
:100EA0000120009001E0002000900098012843D12B
:100EB0002348006840F01000214908600846006897
:100EC00020F0030008600846006840F00200086057
:100ED0001A48406819494860084640684860084612
:100EE000406840F4806048600846406820F47C1008
:100EF00048600846406840F4E810486008460068CA
:100F000040F08070086000BF0C48006800F000707E
:100F10000028F9D00948406820F0030007494860DC
:100F20000846406840F00200486000BF034840683F
:100F300000F00C000828F9D10CBD000000100240A0
:100F400000200240704700204FF0E0210861084671
:100F5000006920F0040008617047000010B51348D4
:100F6000006840F0010011490860084640681049D7
:100F700008400E494860084600680E4908400B4981
:100F800008600846006820F4802008600846406831
:100F900020F4FE0048604FF41F008860FFF75DFFFB
:100FA0004FF000600449086010BD000000100240CE
:100FB0000000FFF8FFFFF6FE08ED00E010B586B078
:100FC0000446012144F20400FFF782FB4FF4007055
:100FD000ADF8140018208DF8170003208DF81600C6
:100FE00005A91448FFF771FA4FF48060ADF81400BA
:100FF00004208DF8170003208DF8160005A90D4870
:10100000FFF763FA01940020ADF80800ADF80A007C
:10101000ADF80C00ADF810000C20ADF80E0001A9E1
:10102000054800F017F80121034800F007F806B062
:1010300010BD0000000801400038014021B1828944
:1010400042F40052828104E082894DF6FF731A4017
:10105000828170472DE9F04786B005460E46002490
:10106000A24600BFA1460027B08900B100BF2F46AD
:101070002C8A4CF6FF700440F08804432C82AC8923
:101080004EF6F3100440B088318908437189084353
:101090000443AC81AC8A4FF6FF400440B08904435E
:1010A000AC8201A8FFF724FB1F48874202D1DDF87C
:1010B00010A001E0DDF80CA0A88900F4004040B1C8
:1010C0000AEBCA0000EB0A1031684900B0FBF1F8E6
:1010D00007E00AEBCA0000EB0A1031688900B0FB98
:1010E000F1F86420B8FBF0F004012009642101FB51
:1010F0001089A88900F4004040B1322000EBC900FB
:10110000B0FBF1F000F00700044308E0322000EBF0
:1011100009106421B0FBF1F000F00F0004432C81B2
:1011200006B0BDE8F08700000038014000BFFEE7D0
:1011300000BF7047FF214FF0E022916142F2283159
:10114000414351611146096941F00101116100BF3C
:101150004FF0E021096901F480310029F8D04FF007
:10116000E021096921F001014FF0E022116170478F
:1011700030B503460025B3F5E96F03DC1846FFF7E9
:10118000D9FF15E004E0A3F5E96083B2681C85B2DD
:10119000B3F5E96FF7DA002405E04FF4E960FFF7F3
:1011A000C9FF601C84B2AC42F7DB1846FFF7C2FFF0
:1011B00030BD000000BF054A128802F04002002A3C
:1011C000F9D0C2B2014B1B1D1A8070470038014094
:1011D0001CB54FF4A060FFF759FAFFF7B4FE4FF4C7
:1011E000E130FFF7EBFE1E2000210C230122CDE9A8
:1011F0000010082140F2E770FFF786FDFFF79EFC24
:1012000000BFFEE7241200080000002024000000B8
:101210006C01000848120008240000206406000049
:101220008801000800000000000000000102030423
:10123000010203040607080902040608E70708017B
:08124000000C0000000000009A
:0400000508000131BD
:00000001FF
