:020000040800F2
:1000000030070020D5010008DD010008DF010008ED
:10001000E1010008E3010008E5010008000000001C
:10002000000000000000000000000000E7010008E0
:10003000E901000800000000EB010008ED010008E4
:10004000EF010008EF010008EF010008EF010008D0
:10005000EF010008EF010008EF010008EF010008C0
:10006000EF010008EF010008DD030008EF010008C0
:10007000EF010008EF010008EF010008EF010008A0
:10008000EF010008EF010008EF010008EF01000890
:10009000EF010008EF010008EF0100086504000807
:1000A000EF010008EF010008EF010008EF01000870
:1000B000EF010008EF010008EF010008EF01000860
:1000C000EF010008EF010008EF010008EF01000850
:1000D000EF01000825090008EF010008EF01000802
:1000E000EF010008EF010008EF010008EF01000830
:1000F000EF010008EF010008EF010008EF01000820
:10010000EF010008EF010008EF010008EF0100080F
:10011000EF010008EF010008EF010008EF010008FF
:10012000EF010008EF010008EF010008EF010008EF
:1001300000F002F800F03FF80AA090E8000C8244BA
:100140008344AAF10107DA4501D100F034F8AFF297
:10015000090EBAE80F0013F0010F18BFFB1A43F0A5
:10016000010318478C090000AC090000103A24BFB5
:1001700078C878C1FAD8520724BF30C830C144BF0C
:1001800004680C607047000000230024002500264E
:10019000103A28BF78C1FBD8520728BF30C148BFEA
:1001A0000B607047732900F0B680002070471FB5C0
:1001B0001FBD10B510BD00F0E1F81146FFF7F7FFC5
:1001C00000F07AFC00F0FFF803B4FFF7F2FF03BC85
:1001D00000F022FC0948804709480047FEE7FEE797
:1001E000FEE7FEE7FEE7FEE7FEE7FEE7FEE7FEE7E7
:1001F00004480549054A064B70470000C508000839
:1002000031010008300100203007002030030020B9
:1002100030030020704700000FB4044910B503AA52
:10022000029800F07DF810BC5DF814FB000000207F
:100230002DE9F0410E460446002020622046E16888
:10024000884730B3252805D0D4E901219047206A9A
:10025000401CF2E7E168204600278847050018D0D7
:10026000A5F14100192802D820354FF40067324625
:10027000294620462760FFF795FF40B1012804D0AA
:10028000F61D26F007060836D8E7361DD6E72846BD
:10029000DAE7206ABDE8F08170B50C460546012A10
:1002A00005D02878800600D5EA69002302E0012302
:1002B00005E05B1C934202D2E05C0028F9D1A869FA
:1002C000E618C01AA861286A184428622846AFF3C5
:1002D000008004E0D5E9012114F8010B9047B442F5
:1002E000F8D32846AFF3008070BD70477047704761
:1002F000704710B5436913B1AFF3008001E0FFF719
:10030000CBFF012010BD127800F124010A700022F9
:100310004A700122EDE711684FF0FF32E9E7000073
:10032000074B70B50D467B4400F011F80446284693
:1003300000F020F810B14FF0FF3070BD204670BDC6
:100340007307000001694A1C02610878704700B514
:100350008FB0CDE901310021059105497944CDE9FE
:10036000031011466846FFF763FF0FB000BD0000A1
:10037000E5FFFFFF007B00F080007047754600F04E
:1003800029F8AE4605006946534620F00700854629
:1003900018B020B5FFF72CFFBDE820404FF0000655
:1003A0004FF000074FF000084FF0000B21F007015D
:1003B000AC46ACE8C009ACE8C009ACE8C009ACE8A0
:1003C000C0098D4670470446AFF300802046FFF712
:1003D000FBFE000000487047D000002010B5102040
:1003E00000F058F8012813D10A2000F036FB094824
:1003F000006800F0100058B90748006840F010008D
:10040000054908600548006880F02000034908603D
:1004100010BD000008180140140401400C0C0140FC
:1004200008B50F48006820F020000D49086017202B
:100430008DF8000000208DF8010002208DF80200E8
:1004400001208DF80300684600F06CF9044810386C
:10045000006840F0200002491039086008BD000023
:100460001004014010B5202000F014F801280BD131
:100470000648006840F0200004490860044800680D
:1004800080F020000249086010BD00001404014003
:100490000C0C014001460020034A12680A400AB1D0
:1004A000012000E000207047140401402DE9F041D4
:1004B000024600250026002000230024002791F892
:1004C00003C00CF00F0591F803C00CF0100CBCF148
:1004D000000F03D091F802C04CEA050591F800C066
:1004E000BCF1000F31D0146800202BE04FF0010C5C
:1004F0000CFA00F3B1F800C00CEA03069E4220D1CA
:1005000083004FF00F0C0CFA03F7BC4305FA03FC11
:100510004CEA040491F803C0BCF1280F06D14FF057
:10052000010C0CFA00FCC2F814C00AE091F803C0F8
:10053000BCF1480F05D14FF0010C0CFA00FCC2F8D9
:1005400010C0401C0828D1D31460B1F800C0BCF121
:10055000FF0F34DD546800202EE000F1080C4FF04E
:10056000010808FA0CF3B1F800C00CEA03069E4239
:1005700021D183004FF00F0C0CFA03F7BC4305FAAE
:1005800003FC4CEA040491F803C0BCF1280F05D128
:1005900000F1080C08FA0CF8C2F8148091F803C0B6
:1005A000BCF1480F07D100F1080C4FF0010808FA20
:1005B0000CF8C2F81080401C0828CED35460BDE867
:1005C000F0810246002093680B400BB1012000E04F
:1005D000002070470161704708B50121042000F038
:1005E000E3F80121402000F0DFF81820ADF800000A
:1005F00048208DF8030069460648FFF757FF0120A1
:10060000ADF8000028208DF8030069460248FFF786
:100610004DFF08BD001801400008014010B500243E
:1006200028480078002837D001212748FFF7C9FF64
:1006300048B908212548FFF7C4FF20B110212348FD
:10064000FFF7BFFF08BB0A2000F007FA01211E4890
:10065000FFF7B7FF48B908211C48FFF7B2FF20B1E8
:1006600010211A48FFF7ADFF78B90020154908702E
:1006700010211648FFF7A5FF08B901240CE0082156
:100680001248FFF79EFF08B9022405E001210E4839
:10069000FFF797FF00B1032401210B48FFF791FFFB
:1006A00068B908210948FFF78CFF40B107480830B6
:1006B000006800F0100010B10120024908702046C7
:1006C00010BD000005000020000801400018014096
:1006D00008B50121082000F067F80121402000F052
:1006E00063F82020ADF8000010208DF803000320EF
:1006F0008DF8020069460948FFF7D8FE2020ADF8C2
:10070000000069460648FFF7D1FE20210348FFF7A5
:1007100061FF20210248FFF75DFF08BD000C01408A
:100720000018014070B5002100230F22C47804B3E3
:10073000154C246804F4E064C4F5E064210AC1F1B6
:100740000403CA40447804FA03F184781440214336
:1007500009010E4C0678A155047804F01F05012408
:10076000AC4005786D11AD0005F1E025C5F80041FC
:1007700009E0047804F01F050124AC40044D06781C
:10078000761145F8264070BD0CED00E000E400E075
:1007900080E100E002490143024A11607047000015
:1007A0000000FA050CED00E029B1064A9269024307
:1007B000044B9A6104E0034A92698243014B9A61B7
:1007C000704700000010024010B500F001F810BDA5
:1007D0000CB50020019000903348006840F4803050
:1007E0003149086000BF3048006800F400300090D4
:1007F0000198401C0190009818B90198B0F5A06FBD
:10080000F1D12948006800F4003010B101200090B7
:1008100001E0002000900098012843D1234800689F
:1008200040F01000214908600846006820F00300ED
:1008300008600846006840F0020008601A484068F6
:10084000194948600846406848600846406840F4D6
:10085000806048600846406820F47C104860084684
:10086000406840F4E81048600846006840F0807036
:10087000086000BF0C48006800F000700028F9D044
:100880000948406820F0030007494860084640686E
:1008900040F00200486000BF0348406800F00C00D0
:1008A0000828F9D10CBD00000010024000200240D1
:1008B0004FF0E020006920F004004FF0E0210861D3
:1008C0007047000010B51348006840F0010011495E
:1008D000086008464068104908400E4948600846CC
:1008E00000680E4908400B4908600846006820F47B
:1008F000802008600846406820F4FE0048604FF4FD
:100900001F008860FFF760FF4FF000600449086037
:1009100010BD0000001002400000FFF8FFFFF6FECF
:1009200008ED00E010B52021144800F039F8012846
:100930000BD1124800F06BF81149124A1278885412
:1009400010480078401C0F49087040F224410B48C1
:1009500000F033F8012810D1084800880748001D2E
:10096000008800210648074A12788154014606A0F3
:10097000FFF752FC00200349087010BD0038014009
:100980000800002004000020C4E3B7A2CBCDB5C40A
:10099000CAFDBEDDCAC7A3BA25730D0A0000000058
:1009A00002460020B1F5007F00D100BF13880B4044
:1009B0000BB1012000E00020704770B50246002412
:1009C00000230025002040F66A16B14200D100BF86
:1009D000C1F3421501F01F03012606FA03F3012DAE
:1009E00002D19689334006E0022D02D1168A3340A7
:1009F00001E0968A33400C12012606FA04F41688A8
:100A0000344013B10CB1012000E0002070BD01465C
:100A10008888C0F308007047014600BF7047FF2177
:100A20004FF0E022916142F2283141435161114679
:100A3000096941F00101116100BF4FF0E02109692E
:100A400001F480310029F8D04FF0E021096921F04C
:100A500001014FF0E0221161704730B503460025D7
:100A6000B3F5E96F03DC1846FFF7D9FF15E004E0A2
:100A7000A3F5E96083B2681CC5B2B3F5E96FF7DA94
:100A8000002405E04FF4E960FFF7C9FF601CC4B221
:100A9000AC42F7DB1846FFF7C2FF30BD00BF054A86
:100AA000128802F04002002AF9D0C2B2014B1B1D8D
:100AB0001A80704700380140FFF7FAFE4FF4A0603B
:100AC000FFF768FEFFF704FEFFF786FDFFF7A8FCBF
:100AD0000AE0FFF7A3FD0446022C05D10348006895
:100AE00040F0200001490860F3E7000010040140D5
:100AF000100B000800000020080000006C01000836
:100B0000180B0008080000202807000088010008D2
:080B10000000000000010000DC
:0400000508000131BD
:00000001FF
