:020000040800F2
:10000000A8060020D5010008B5110008E707000880
:10001000B11100088D040008D91900080000000083
:10002000000000000000000000000000CD120008E9
:100030009104000800000000B7110008B91300087F
:10004000EF010008EF010008EF010008EF010008D0
:10005000EF010008EF010008EF010008EF010008C0
:10006000EF010008EF010008EF010008EF010008B0
:10007000EF010008EF010008EF010008EF010008A0
:10008000EF010008EF010008EF010008EF01000890
:10009000EF010008EF010008EF010008EF01000880
:1000A000EF010008EF010008EF010008EF01000870
:1000B000EF010008EF010008EF010008EF01000860
:1000C000EF010008EF010008EF010008EF01000850
:1000D000EF010008EF010008EF010008EF01000840
:1000E000EF010008EF010008EF010008EF01000830
:1000F000EF010008EF010008EF010008EF01000820
:10010000EF010008EF010008EF010008EF0100080F
:10011000EF010008EF010008EF010008EF010008FF
:10012000EF010008EF010008EF010008EF010008EF
:1001300000F002F800F03FF80AA090E8000C8244BA
:100140008344AAF10107DA4501D100F034F8AFF297
:10015000090EBAE80F0013F0010F18BFFB1A43F0A5
:1001600001031847EC2700000C280000103A24BFB8
:1001700078C878C1FAD8520724BF30C830C144BF0C
:1001800004680C607047000000230024002500264E
:10019000103A28BF78C1FBD8520728BF30C148BFEA
:1001A0000B607047642900F07780002070471FB50E
:1001B0001FBD10B510BD00F037F91146FFF7F7FF6E
:1001C00001F078FC00F055F903B4FFF7F2FF03BC2F
:1001D00001F004FC0948804709480047FEE7FEE7B4
:1001E000FEE7FEE7FEE7FEE7FEE7FEE7FEE7FEE7E7
:1001F00004480549054A064B70470000D113000822
:1002000031010008A8000020A8060020A802002054
:10021000A8020020704700000FB4044910B503AADB
:10022000029800F0D3F810BC5DF814FB0000002029
:100230002DE9F0410E460446002020622046E16888
:10024000884730B3252805D0D4E901219047206A9A
:10025000401CF2E7E168204600278847050018D0D7
:10026000A5F14100192802D820354FF40067324625
:10027000294620462760FFF795FF40B1012804D0AA
:10028000F61D26F007060836D8E7361DD6E72846BD
:10029000DAE7206ABDE8F0812DE9F0410646002446
:1002A00010687529314616A510D0AFF300800028DC
:1002B00002DA404213A507E031688A0701D512A58A
:1002C00002E0490704D511A5012401E0AFF3008045
:1002D00000210A2206F1240709E0B0FBF2FCB0FB82
:1002E000F2F302FB1C00303078541846491C0028F9
:1002F000F3D123462A463046BDE8F04100F00CB861
:10030000000000002D0000002B0000002000000075
:1003100070477047704770472DE9F0470D46994682
:100320009246044600F124080168880604D5E06975
:1003300021F01001216000E00120A84201DD471BEF
:1003400000E00027A1697A1902EB0900081AA061F0
:100350002078C00602D42046AFF30080002608E0D3
:10036000D4E901211AF806009047206A401C761C47
:1003700020624E45F4DB2078C0060AD52046AFF354
:10038000008006E0D4E9012130209047206A401C1B
:100390002062381EA7F10107F4DC07E0D4E901214F
:1003A00018F805009047206A401C2062281EA5F11D
:1003B0000105F3DC2046AFF300802078000602D56B
:1003C0000220BDE8F0870120FBE70000074B70B575
:1003D0000D467B4400F011F80446284600F020F852
:1003E00010B14FF0FF3070BD204670BDC316000045
:1003F00001694A1C02610878704700B58FB0CDE9E9
:1004000001310021059105497944CDE903101146D8
:100410006846FFF70DFF0FB000BD0000E5FFFFFFCE
:10042000007B00F080007047754600F02BF8AE4668
:1004300005006946534620F00700854618B020B5F0
:10044000FFF7D6FEBDE820404FF000064FF0000752
:100450004FF000084FF0000B21F00701AC46ACE86C
:10046000C009ACE8C009ACE8C009ACE8C0098D46D9
:10047000704710B50446AFF300802046BDE8104039
:10048000FFF7A2BE004870474800002000BFFEE70B
:100490007047000000B59FB00121082000F09CFECD
:1004A0000121202000F098FE0121402000F094FE60
:1004B0000121080200F090FE0121080200F07CFEFC
:1004C0000120ADF8780010208DF87B0003208DF816
:1004D0007A001EA92D4800F0EEF84CF23370ADF80A
:1004E000780018208DF87B001EA9294800F0E3F859
:1004F0004FF68070ADF878001EA9264800F0DBF8B2
:1005000041F20100ADF878001EA9234800F0D3F8AD
:100510001E480C30006820F001001C490C310860B6
:100520000020089009900F200A9000200B900C905A
:100530000D900E90019002900120039000200490F5
:1005400005900690079006200F90002010901190C3
:100550001020129000201390159014901690179070
:1005600088141890002019904FF480401A900020B1
:100570001B9008A81C9001A81D900FA800F028F857
:100580000121062000F00AF81FB000BD000C014058
:1005900000140140001801400020014051B18200C8
:1005A000A2F1C042126842F001038200A2F1C042EF
:1005B000136009E08200A2F1C0421268034B1A40A6
:1005C0008300A3F1C0431A6070470000FEFF0F00D4
:1005D000D0E901121143C268114302691143426913
:1005E000114382691143C2691143026A1143426A8D
:1005F0001143826A1143C26A1143026B11430268BC
:100600009200A2F1C0421160816808290BD10168F3
:100610008900A1F1C041096841F0400201688900E8
:10062000A1F1C0410A60416B0968426B526841EA1E
:100630000211426B926841EA0221426B928941EABF
:100640000241426B128A41EA0251426B127D41EA39
:100650000261426B926911430268521C9200A2F13E
:10066000C0421160C16AB1F5804F1BD1816B09682E
:10067000826B526841EA0211826B926841EA022160
:10068000826B128A41EA0251826B127D41EA026159
:10069000826B9269114302689200A2F1C042C2F8D3
:1006A000041107E06FF0704201688900A1F1C041B8
:1006B000C1F8042170472DE9F041024600250026CB
:1006C000002000230024002791F803C00CF00F0540
:1006D00091F803C00CF0100CBCF1000F03D091F89E
:1006E00002C04CEA050591F800C0BCF1000F31D002
:1006F000146800202BE04FF0010C0CFA00F3B1F865
:1007000000C00CEA03069E4220D183004FF00F0C7C
:100710000CFA03F7BC4305FA03FC4CEA040491F815
:1007200003C0BCF1280F06D14FF0010C0CFA00FCFD
:10073000C2F814C00AE091F803C0BCF1480F05D11B
:100740004FF0010C0CFA00FCC2F810C0401C082845
:10075000D1D31460B1F800C0BCF1FF0F34DD546890
:1007600000202EE000F1080C4FF0010808FA0CF30D
:10077000B1F800C00CEA03069E4221D183004FF07D
:100780000F0C0CFA03F7BC4305FA03FC4CEA040413
:1007900091F803C0BCF1280F05D100F1080C08FA4C
:1007A0000CF8C2F8148091F803C0BCF1480F07D1CF
:1007B00000F1080C4FF0010808FA0CF8C2F810809C
:1007C000401C0828CED35460BDE8F08102460020CA
:1007D00093680B400BB1012000E00020704741619D
:1007E00070470161704700BFFEE72DE9F041054603
:1007F0000E461746A5F10A0084B206E03A46314695
:10080000204600F02DFA601C84B205F10A008442F3
:10081000F4DBA6F10A0084B206E03A4621462846F7
:1008200000F01EFA601C84B206F10A008442F4DB78
:10083000BDE8F08130B504460A4800880949498876
:1008400000FB01F50021084600F0F2F90548008997
:100850000549088003E00448801C04806D1E002DBB
:10086000F9D130BD38000020FE07006C10B50446F9
:1008700044B900200D498871F02008804FF4A07021
:10088000488007E00120094988714FF4A070088072
:10089000F02048802C20054908812A2048812B20FF
:1008A0008881002000F032F910BD000038000020DF
:1008B00010B5FFF7EFFD322001F092F842F27D40D3
:1008C00090498880CF2000F067FC002000F06AFC8F
:1008D000C12000F067FC302000F064FCED2000F047
:1008E0005BFC642000F05EFC032000F05BFC122047
:1008F00000F058FC812000F055FCE82000F04CFC92
:10090000852000F04FFC102000F04CFC7A2000F015
:1009100049FCCB2000F040FC392000F043FC2C20A7
:1009200000F040FC002000F03DFC342000F03AFCD8
:10093000022000F037FCF72000F02EFC202000F011
:1009400031FCEA2000F028FC002000F02BFC002005
:1009500000F028FCC02000F01FFC1B2000F022FC4F
:10096000C12000F019FC012000F01CFCC52000F0A3
:1009700013FC302000F016FC302000F013FCC720E0
:1009800000F00AFCB72000F00DFC362000F004FC5B
:10099000482000F007FC3A2000F0FEFB552000F054
:1009A00001FCB12000F0F8FB002000F0FBFB1A2056
:1009B00000F0F8FBB62000F0EFFB0A2000F0F2FB9D
:1009C000A22000F0EFFBF22000F0E6FB002000F098
:1009D000E9FB262000F0E0FB012000F0E3FBE02033
:1009E00000F0DAFB0F2000F0DDFB2A2000F0DAFB3C
:1009F000282000F0D7FB082000F0D4FB0E2000F0E8
:100A0000D1FB082000F0CEFB542000F0CBFBA92046
:100A100000F0C8FB432000F0C5FB0A2000F0C2FB39
:100A20000F2000F0BFFB002000F0BCFB002000F016
:100A3000B9FB002000F0B6FB002000F0B3FBE12082
:100A400000F0AAFB002000F0ADFB152000F0AAFB8F
:100A5000172000F0A7FB072000F0A4FB112000F0F6
:100A6000A1FB062000F09EFB2B2000F09BFB5620F4
:100A700000F098FB3C2000F095FB052000F092FB75
:100A8000102000F08FFB0F2000F08CFB3F2000F0C7
:100A900089FB3F2000F086FB0F2000F083FB2B201A
:100AA00000F07AFB002000F07DFB002000F07AFBD4
:100AB000012000F077FB3F2000F074FB2A2000F0BB
:100AC0006BFB002000F06EFB002000F06BFB0020B1
:100AD00000F068FBEF2000F065FB112000F05CFBEC
:100AE000782000F09BFF292000F056FB0020FFF744
:100AF000BDFE01210448FFF774FE4FF6FF70FFF7BB
:100B000099FE10BD38000020000C014030B50146B0
:100B100000200023444CA479012C18D1082915D2B7
:100B2000DFE801F00406080A0C0E101206210DE0A1
:100B300007210BE0042109E0052107E0012105E080
:100B4000002103E0032101E0022100BF00BF0829CA
:100B50001CD2DFE801F00406090C0F12151800BFC3
:100B600014E040F0800011E040F040000EE040F062
:100B7000C0000BE040F0200008E040F0600005E01D
:100B800040F0A00002E040F0E00000BF00BF3623CC
:100B900040F00800254C2380A41C208000F0200495
:100BA0006CB1214C2488204D6D88AC4214DA1E4C67
:100BB000228864881C4D2C802C4662800CE01A4CE4
:100BC0002488194D6D88AC4206DD174C2288648854
:100BD000154D2C802C466280134C6489134D2C805B
:100BE0000024AD1C2C802C800F4C2488641EC4F380
:100BF0000F242C800C4C2478641EE4B22C800A4C08
:100C0000A489AD1E2C800024AD1C2C802C80064CA9
:100C10006488641EC4F30F242C80034CA478641EE3
:100C2000E4B22C8030BD000038000020FE07006CCC
:100C3000094A5289094B1A8002129B1C1A80C2B2BF
:100C40001A80054A92899B1E1A800A129B1C1A80E0
:100C5000CAB21A807047000038000020FE07006CFE
:100C600070B505460E46144631462846FFF7E0FFAC
:100C70000348008903490880881C048070BD000077
:100C800038000020FE07006C2DE9F04F93B0FE4BBA
:100C9000D3E90012D3E90203CDE90C03CDE90A122E
:100CA000FA480088143880B2ADF82C00F748408824
:100CB000143881B2ADF83210F4480088143880B28C
:100CC000ADF83400F1484088143881B2ADF83610E0
:100CD00000BF4FF0000A37E00AAA02EB8A025188EF
:100CE0000AAA32F82A004FF47842FFF77EFD00BFCF
:100CF0004FF48061E648FFF769FD0028F8D10A202B
:100D000000F08CFE00F01AFD09900EA800EB8A009E
:100D10000999016000BF4FF48061DD48FFF756FD7F
:100D20000028F8D00AAA02EB8A0251880AAA32F8EF
:100D30002A004FF6FF72FFF758FD962000F06EFE76
:100D40000AF1010000F0FF0ABAF1040FC4DBBDF89C
:100D50003810BDF83C20891A4943BDF83A30BDF837
:100D60003E209B1ABDF83AC0ACEB020203FB021016
:100D700001F00EF904460D46BDF84010BDF84420C0
:100D8000891A49430EAA5389D2899B1ABDF842C0D9
:100D90000EAAD289ACEB020203FB021001F0F8F8B4
:100DA00006460F4632463B462046294600F098FF4D
:100DB0008046B84AB84B01F003F90BD332463B46A4
:100DC0002046294600F08CFF8046B44AB44B01F01F
:100DD00087F900D27DE7BDF83810BDF84020891AA8
:100DE0004943BDF83A300EAA52899B1ABDF83AC061
:100DF0000EAA5289ACEB020203FB021001F0C8F804
:100E000004460D46BDF83C10BDF84420891A4943FC
:100E1000BDF83E300EAAD2899B1ABDF83EC00EAA7C
:100E2000D289ACEB020203FB021001F0B1F80646D6
:100E30000F4632463B462046294600F051FF804689
:100E4000944A954B01F0BCF80BD332463B46204602
:100E5000294600F045FF8046904A914B01F040F949
:100E600000D236E7BDF83810BDF844208A1A524344
:100E7000BDF83A300EA9C9895B1ABDF83AC00EA96F
:100E8000C989ACEB010103FB012001F081F80446A4
:100E90000D46BDF83C10BDF84020891A4943BDF805
:100EA0003E300EAA52899B1ABDF83EC00EAA528946
:100EB000ACEB020203FB021001F06AF806460F4693
:100EC00032463B462046294600F00AFF8046714ADA
:100ED000714B01F075F80BD332463B46204629464C
:100EE00000F0FEFE80466D4A6D4B01F0F9F800D22D
:100EF000EFE6BDF84410BDF83820881A01F048F834
:100F0000CDE9080161490988A1F1140001F0A0FBB5
:100F1000834601F011FA0022624BCDE9040101F091
:100F200021F9CDE90601DDE9082300F0D9FE80466C
:100F300000F0F0FD5C490861BDF84010BDF83C20B0
:100F4000881A01F025F88046894650490988A1F1A0
:100F5000140001F07DFB834601F0EEF90022514BB5
:100F6000CDE9000101F0F2F842464B46CDE902011D
:100F700000F0B6FECDE906014B49086901F0DCF945
:100F8000CDE90401DDE9062300F0F6FDCDE9080115
:100F900000F0C0FD4449086108694FF0804101F04C
:100FA00059FA414908610EA9C989BDF83A20881A41
:100FB00000F0EEFFCDE9060134494988A1F11400A3
:100FC00001F046FB834601F0B7F980460022354B1D
:100FD00001F0C8F8CDE90401DDE9062300F080FE48
:100FE000CDE9080100F096FD2F4948610EA94A8914
:100FF000BDF83E10501A00F0CBFFCDE902012349A5
:101000004988A1F1140001F023FB834601F094F913
:1010100080460022234B01F0A5F8CDE90001DDE96F
:10102000022300F05DFECDE906011F49486901F089
:1010300083F9CDE90401DDE9062300F09DFDCDE94A
:10104000080100F067FD1849486148694FF0804188
:1010500001F000FA14494861BDF8380001F010FBB6
:10106000834611480169584601F01EFB81460F492D
:1010700001F0E6FB804601F0AFFA00B20A490883AE
:10108000BDF8440014E000004029000838000020AA
:10109000001C01400AD7A3703D0AEF3F7B14AE4706
:1010A000E17AF03F00003440180000200000A04129
:1010B00001F0E6FA079035480169079801F0F4FA63
:1010C000834633490988A1F1140001F0C1FA594659
:1010D000089001F0BFFB81462C49B1F9180001F0DE
:1010E000B7FA4946099001F053F9804601F074FAC5
:1010F00000B226490883B1F9180000EBD0714910FD
:10110000224A1183BDF83A0001F0BAFA83461F481B
:101110004169584601F0C8FA81461E4901F090FB2A
:10112000804601F059FA00B2184948830EA9C889CF
:1011300001F0A6FA079015484169079801F0B4FA42
:10114000834613494988A1F1140001F081FA5946F8
:10115000089001F07FFB81460C49B1F91A0001F0BB
:1011600077FA4946099001F013F9804601F034FA04
:1011700000B206494883B1F91A0000EBD07149105A
:10118000024A518313B0BDE8F08F00001800002020
:10119000380000200000A04101490880704700008D
:1011A000FE07006C01490880704700000008006CD1
:1011B00000BFFEE77047704729B1064A52690243F3
:1011C000044B5A6104E0034A52698243014B5A615D
:1011D000704700000010024029B1064A926902439C
:1011E000044B9A6104E0034A92698243014B9A617D
:1011F000704700000010024030B50021002200249A
:1012000000232D4D6D6805F00C0121B1042905D096
:10121000082923D105E0294D056022E0274D05600E
:101220001FE0254D6D6805F47012234D6D6805F4BF
:101230008034022505EB92421CB9214D55430560CF
:101240000BE01D4D6D6805F400351DB11C4D554377
:10125000056002E0194D5543056002E0174D056039
:1012600000BF00BF144D6D6805F0F0010909154D70
:101270006B5C0568DD4045600F4D6D6805F4E0610D
:10128000090A104D6B5C4568DD4085600A4D6D684C
:1012900005F46051C90A0B4D6B5C4568DD40C560C3
:1012A000054D6D6805F44041890B074D6B5CC568C1
:1012B000B5FBF3F5056130BD0010024000127A0065
:1012C00000093D000400002014000020704710B504
:1012D00000F002F810BD00000CB500200190009055
:1012E0003348006840F480303149086000BF30481E
:1012F000006800F4003000900198401C01900098B4
:1013000018B90198B0F5A06FF1D12948006800F430
:10131000003010B10120009001E000200090009802
:10132000012843D12348006840F01000214908609B
:101330000846006820F0030008600846006840F096
:10134000020008601A484068194948600846406829
:1013500048600846406840F480604860084640683D
:1013600020F47C1048600846406840F4E81048606B
:101370000846006840F08070086000BF0C480068B4
:1013800000F000700028F9D00948406820F0030000
:10139000074948600846406840F00200486000BFC6
:1013A0000348406800F00C000828F9D10CBD00008B
:1013B0000010024000200240704700204FF0E02162
:1013C00008610846006920F00400086170470000C9
:1013D00010B51348006840F0010011490860084644
:1013E0004068104908400E494860084600680E49A8
:1013F00008400B4908600846006820F48020086017
:101400000846406820F4FE0048604FF41F008860E2
:10141000FFF75DFF4FF000600449086010BD000059
:10142000001002400000FFF8FFFFF6FE08ED00E0AC
:1014300070B5054600264FF400713648FFF7CFF926
:101440004FF400613348FFF7CAF900241CE0022181
:101450003148FFF7C4F905F0800028B14FF400715E
:101460002C48FFF7BEF904E04FF400712948FFF75C
:10147000B6F96806050E02212748FFF7B2F90120E8
:1014800000F0EDFA601CC4B2082CE0DB0221224817
:10149000FFF7A5F94FF400711E48FFF7A0F90620E9
:1014A00000F0DDFA02211C48FFF799F9012000F055
:1014B000D6FA02211848FFF794F9012000F0CFFA7C
:1014C00000241AE04FF6FF7000EA46060221124897
:1014D000FFF785F9012000F0C2FA02210E48FFF75C
:1014E00080F904210C48FFF771F908B146F00106B4
:1014F000012000F0B4FA601CC4B20C2CE2DB4FF403
:1015000000610448FFF76DF902210348FFF767F90E
:10151000304670BD001C0140000C014008B501219F
:101520000820FFF759FE01218020FFF755FE022019
:10153000ADF8000010208DF8030003208DF80200A4
:1015400069461648FFF7B7F84FF42060ADF8000081
:1015500069461348FFF7AFF80420ADF800004820B3
:101560008DF8030069460D48FFF7A5F84FF4806039
:10157000ADF8000069460A48FFF79DF84FF4006196
:101580000748FFF72EF902210448FFF728F94FF426
:1015900000710348FFF723F908BD0000000C01406B
:1015A000001C014010B500200E4908770846007F56
:1015B0000D49897901F0010108430A490877FFF7CD
:1015C000ADFF0848007F00F0010028B190200549D8
:1015D0000873D020487304E0D0200249087390209B
:1015E000487310BD18000020380000201CB50446C8
:1015F00000F0A4F8019000F0A1F80090BDF8000000
:10160000BDF80410884206DCBDF80410BDF80000E7
:10161000323081420CDBBDF80400BDF80010884276
:1016200036DCBDF80010BDF80400323081422FDAFC
:10163000BDF80200BDF80610884206DCBDF80610B1
:10164000BDF80200323081420CDBBDF80600BDF867
:10165000021088421CDCBDF80210BDF806003230D2
:10166000814215DABDF80410BDF80020881800EB9F
:10167000D071C1F34F012180BDF80610BDF80220E2
:10168000881800EBD071C1F34F01618001201CBDAF
:101690000020FCE72DE9F84304460020ADF80000E7
:1016A000ADF802004FF480612248FFF78FF8002860
:1016B0003CD11CB96846FFF799FF37E06846FFF751
:1016C00095FF98B31C49B1F9180000F0C1FF074617
:1016D000BDF8000000F0D4FF80461748016940467D
:1016E00000F0E2FF0646394600F052FE054600F0E3
:1016F0008FFF80B2ADF800000F49B1F91A0000F079
:10170000A7FF0746BDF8020000F0BAFF80460A486E
:101710004169404600F0C8FF0646394600F038FEF1
:10172000054600F075FF80B2ADF802000098BDE8F4
:10173000F8830000001C014018000020F0B587B0BD
:101740000026002700250FE04649087BFFF770FEC2
:1017500004A921F815004349487BFFF769FE01A958
:1017600021F81500681CC5B2052DEDDB012553E0FD
:1017700000244BE004A830F8141004AA601C32F8CE
:10178000100081421BDD04A830F81400611C32F8FF
:101790001110484004A921F81400601C31F8100011
:1017A00031F814104840611C22F8110004A830F8E8
:1017B000140032F81110484004A921F8140001A8BF
:1017C00030F8141001AA601C32F8100081421BDDB1
:1017D00001A830F81400611C32F81110484001A92A
:1017E00021F81400601C31F8100031F81410484042
:1017F000611C22F8110001A830F8140032F8111011
:10180000484001A921F81400601CC4B2C5F10500CC
:10181000A042AFDC681CC5B2052DA9DB01250BE099
:1018200004A830F81500304486B201A830F815003D
:10183000384487B2681CC5B2042DF1DB3046F1177D
:1018400006EB9171C1F38F01ADF800103846F9171E
:1018500007EB9171C1F38F01ADF80210009807B04A
:10186000F0BD00001800002010B586B0044601212C
:1018700044F20400FFF7B0FC4FF40070ADF8140020
:1018800018208DF8170003208DF8160005A91448BC
:10189000FEF711FF4FF48060ADF8140004208DF8BE
:1018A000170003208DF8160005A90D48FEF703FF69
:1018B00001940020ADF80800ADF80A00ADF80C0066
:1018C000ADF810000C20ADF80E0001A9054800F09D
:1018D00017F80121034800F007F806B010BD00001A
:1018E000000801400038014021B1828942F40052D1
:1018F000828104E082894DF6FF731A40828170472D
:101900002DE9F04786B005460E460024A24600BFEA
:10191000A1460027B08900B100BF2F462C8A4CF6A3
:10192000FF700440F08804432C82AC894EF6F3101B
:101930000440B08831890843718908430443AC816D
:10194000AC8A4FF6FF400440B0890443AC8201A842
:10195000FFF752FC1F48874202D1DDF810A001E0DA
:10196000DDF80CA0A88900F4004040B10AEBCA00E1
:1019700000EB0A1031684900B0FBF1F807E00AEB10
:10198000CA0000EB0A1031688900B0FBF1F864204E
:10199000B8FBF0F004012009642101FB1089A8893B
:1019A00000F4004040B1322000EBC900B0FBF1F080
:1019B00000F00700044308E0322000EB0910642126
:1019C000B0FBF1F000F00F0004432C8106B0BDE83D
:1019D000F08700000038014000BFFEE700BF7047FD
:1019E000FF214FF0E022916142F2283141435161E1
:1019F0001146096941F00101116100BF4FF0E0217A
:101A0000096901F480310029F8D04FF0E02109691B
:101A100021F001014FF0E0221161704730B503461B
:101A20000025B3F5E96F03DC1846FFF7D9FF15E091
:101A300004E0A3F5E96083B2681C85B2B3F5E96FF1
:101A4000F7DA002405E04FF4E960FFF7C9FF601CF6
:101A500084B2AC42F7DB1846FFF7C2FF30BDFF216E
:101A60004FF0E022916100EBC0015161114609691C
:101A700041F00101116100BF4FF0E021096901F45B
:101A800080310029F8D04FF0E021096921F00101EF
:101A90004FF0E0221161704700BF054A128802F042
:101AA0004002002AF9D0C2B2014B1B1D1A807047B8
:101AB0000038014008B5FFF780FC4FF4E130FFF734
:101AC000D3FEFEF7F5FE0D49086880470B494868CC
:101AD000804711E04FF480610948FEF777FE58B95E
:101AE00006488168012088470090BDF80220BDF8B3
:101AF000001004A0FEF790FBECE7000018000020A7
:101B0000001C0140783A2564202020793A25640D94
:101B10000A00000021F00042A2F16052B2F5801FDD
:101B200001F0004328BFD2F17F6C0BD95FEA001CA3
:101B300043EAC20242EB507018BF704728BF20F042
:101B400001007047B2F5801FBCBF184670474FEACE
:101B5000410C1CF5001F02D2084600F06CBE70B5A7
:101B600000F06AFA00000089FFF7F6BF4FF000406E
:101B7000A0F580007047000010B591EA030F48BF40
:101B800083F0004300F1F682841A71EB030C05D256
:101B9000121943EB0C03001B61EB0C01DFF824E18D
:101BA0004FEA1154A4EB135C1EEA430F18BF9EEAE0
:101BB000445F73D023EA0E03DCF1200E21EA0451C6
:101BC00043F4801332D322FA0CFE10EB0E0023FAFA
:101BD0000CFE41EB0E01CCF1200E03FA0EFE10EBD1
:101BE0000E0051F10001B1F5801FCCF1200E32D270
:101BF00001EB045112FA0EF2BDE8104058BF7047D5
:101C0000401C38BF5FEA420218BF7047002814BF6B
:101C100020F0010041F100014FEA410313F5001FDC
:101C200038BF7047A1F1C04100F054BA012A43EB1C
:101C30000302ACF1200CDCF11F0E32BF4FF0000E9E
:101C400023FA0CF310EB030041EB0451B4EB115FEA
:101C5000D0D0A1EB045101F5801149085FEA3000B2
:101C600001EB04510ED350F1000038BF12FA0EFE02
:101C700008D1BDE81040C9E7401C38BF5FEA420206
:101C8000CAD1C3E7BDE810404FEA410313F5001F76
:101C900038BF7047A1F1C04100F01CBA9EEA445F12
:101CA00008D011EA5E0FBDE8104004BF01F000410A
:101CB00000207047BDE8104070B500F0BDF900BFCE
:101CC00064FBBE3E0000E0FF491058BFC1F1404137
:101CD0005B1058BFC3F140438B42EFF30080704765
:101CE0002DE9C04130B4DFF8A0C23CEA111418BF9E
:101CF0003CEA131400F0EC8081EA03051CEA11149D
:101D000044EAD57418BF1CEA131500F0C780A4EB91
:101D100005044FF0004545EAC12145EAC32341EAE5
:101D2000505143EA525304F17F74994204F5003450
:101D30004FEAC0204FEAC22208BF904200F09C80C8
:101D40004FEA13650FF24016765D4FEA134506FB26
:101D500005F7C7F1807706FB07F74FEAD737A7FBF0
:101D600003687642C8F58038A7FB06CE38BFA8F1D5
:101D7000010807FB08E64FF0000EA6FB028CE6FB0D
:101D800003CEDCF1000CCEF1004E38BFAEF1010EF7
:101D9000A6FB0C584FF000074FF00005E6FB0E873E
:101DA000A1FB08C6A0FB07CE16EB0E0645F1000509
:101DB000E1FB076515F1E04E7EBFA4F580345FEAD4
:101DC00046066D4116F1800745F100054FEA1727D9
:101DD0004FEA066647EA0567A6F1DE46B6F1805F80
:101DE0004FEA15251FD9384624F0010C05EBC471C4
:101DF000BCF1FE6F01EB0C1102D8F0BCBDE8008114
:101E000024425CBF01F5801E9EEAC47F02D4F0BC70
:101E1000BDE80081244238D4F0BCA1F1C041BDE846
:101E2000004100F057B94FEAD22242EA43524FEA4A
:101E3000D323A7FB02864FEAD02040EA415007FB9C
:101E400003661EEA0E0F4FEAD12105FB026658BF5A
:101E5000A6EB0056B6EB00564FEA520E4EEAC37E92
:101E600018EB0E0E56EB530EBDD518EB02085E4173
:101E70007F1C55F10005B6E74FF480154FF00007C1
:101E80004FF000064FF00008ADE7F0BC4FF0000047
:101E900001F1C04101F00041BDE8008111EA0C1FD1
:101EA0000CEA131500D00CE013EA0C1F00F025809B
:101EB0004FF00000F0BC81EA030101F00041BDE8F1
:101EC0000081F0BCBDE8004181EA030100F002B9E5
:101ED000F0BCBDE8004170B500F0AEF8097EFC3EF4
:101EE00000F007B881EA03014FF0000001F0004163
:101EF000704781EA030100F0EDB8F0BCBDE8004195
:101F00004FF0000021497047FFFDFBF9F7F5F4F2AF
:101F1000F0EEEDEBE9E8E6E4E3E1E0DEDDDBDAD884
:101F2000D7D5D4D3D1D0CFCDCCCBCAC8C7C6C5C4E2
:101F3000C2C1C0BFBEBDBCBBBAB9B8B7B6B5B4B3F9
:101F4000B2B1B0AFAEADACABAAA9A8A8A7A6A5A4E4
:101F5000A3A3A2A1A09F9F9E9D9C9C9B9A999998A8
:101F60009797969595949393929191908F8F8E8E4B
:101F70008D8C8C8B8B8A89898888878786858584D8
:101F800084838382828181800000FF070000F87FC4
:101F900010F0004248BF4042B0FA80F310FA03F15B
:101FA0000AD0C3F11D0303F580634FEA415002EBF1
:101FB000035202EBD12170474FF000007047000040
:101FC00051EA030C17D41CF5801F58BFBCF5801FC5
:101FD00000F10680994218BF704708BF90427047D1
:101FE00007D711F5801F58BF13F5801F19D49942E8
:101FF0007047894270471CF5801F08D5BCF5801FCB
:10200000F7D58B4218BF704708BF824270474FF424
:10201000001C1CEB410F38BF1CEB430F01D28B425D
:10202000704770B500F008F8922449004FF0005155
:102030004FF08053FFF748BE0EF1020E2EF0030E54
:102040005EF8046B364205D4012A43EB030515F50F
:10205000001F12D8012841EB010C1CF5001F0CD801
:102060000ED14FEAD17C15F5001F0CEB4C0C0CF196
:10207000020C08BF4CEBD37C04E04FF0080C01E0ED
:102080004FEAD37C0CEB4C0526FA05F606F0070662
:10209000B6F1040C06D20EEB860CBDE870404CF095
:1020A000010C6047DFE80CF0090B02024FF0004121
:1020B0004FF00000A1F5002170BD1946104601281F
:1020C00051EB010418BFD4F5001484BF002001F0C7
:1020D000004170BD0808A0F500114FEA31017047BA
:1020E00053EA010C17D41CF5801F58BFBCF5801FA4
:1020F00000F106808B4218BF704708BF82427047CC
:1021000007D713F5801F58BF11F5801F19D48B42D4
:1021100070479B4270471CF5801F08D5BCF5801F97
:10212000F7D5994218BF704708BF904270474FF4E7
:10213000001C1CEB430F38BF1CEB410F01D299422E
:1021400070470FB40CBC03BCFFF76BBF91EA030FE1
:1021500010B581F000413FF517AD83F0004300F06A
:1021600009B8000010B591EA030F48BF83F000439F
:102170003FF50AAD841A71EB030C07D212198CF0EB
:10218000004C43EB0C03001B61EB0C01DFF8A4E1F6
:102190004FEA1154A4EB135C1EEA430F18BF9EEAEA
:1021A000445F00F0B08023EA6E03524221EA0451FA
:1021B000C3EB6E0338BF5B1EDCF1200E25D322FA81
:1021C0000CFE10EB0E0043FA0CFE41EB0E01CCF1BD
:1021D000200E03FA0EFE10EB0E0051F10001CCF1BF
:1021E000200E29D412FA0EF201EB0451BDE8104082
:1021F00058BF7047401C1CBFB2F1004F7047002809
:102200000CBF491C20F00100704712EB020E43EB9B
:10221000030218BF4FF0010E4EEA4202ACF1200C4F
:10222000DCF11E0E54D943FA0CFE10EB0E0051F1F6
:10223000FF31CCF11E0ED5D50EF1010E12FA0EFEB5
:10224000404141EB010101EB445C5FEA5C5C10D969
:1022500010EBDE7001EB045138BFBEF1004FBDE85A
:10226000104018BF704700280CBF491C20F0010027
:10227000704730D24FEAD42C11F5001124F40064D9
:102280001BD0B1FA81F20B3AA41AA41ED2F120039A
:10229000914030FA03F31943904001EBCC71002CCC
:1022A00001EB0451BDE81040A8BF704701F1C041E7
:1022B0004FF0000001F000417047B0FA80F310FACF
:1022C00003F100D110BDE41A173C4805C90AE4E740
:1022D00001EB045110BD491001EB0451BDE8104061
:1022E0004FEA300002E04FF0000170474A0008BF9B
:1022F0000042F8D0B2F5001F28BF704701F000413E
:102300004FF0000070479EEA445F07D011EA5E0F6D
:10231000BDE8104004BF002100207047BDE8104018
:1023200070B5FFF789FE00BF40DFF63E83F0004145
:10233000104670470000E0FF43004FEAD30C4FEA1D
:102340003C0C43401FBF40070CF1605113F0FE4F9F
:1023500070471CF0006F03D100200CF00041704763
:102360000CF0004343EA507010B540EACC0000F096
:102370001CFA00BF000000924FEA0001FFF7AABE5E
:102380004FF000414FF00000A1F500217047000020
:1023900090EA010F48BF81F0004100F16282421AC9
:1023A0003CBF801A89184FEAD0524FF07F4C1CEA8C
:1023B000410FA2EBD15318BF9CEA026F00F03B80A3
:1023C0004FF0004C4CEA00204CEA012121FA03FCBA
:1023D00010EB0C0C1ED202F1FF325FEA1C2040EB26
:1023E000C25038BF70471CF07F0F4FEA400C18BF37
:1023F000BCF17F4F38BF7047C3F12003994008BF3D
:1024000020F00100BCF17F4F38BF7047A0F1C04001
:1024100000F011BA4FEA3C00000A40EBC25028BF5E
:102420001CF0FF0F4FEA400CE6D018BFBCF17F4F05
:1024300038BF7047EAE79CEA026F05D010EA5C0FEC
:1024400008BF00F00040704710B500F0AEF900BFC3
:1024500064FBBE3E4FF47F0C1CEAD0121EBF1CEA88
:10246000D11392EA0C0F93EA0C0F00F0858090EAEA
:10247000010F48BF42F4807240F4000C41F40000A8
:102480002CF07F4120F07F4000B58142A2EB030297
:102490000FF2081CACEB504EC0F100009EF800E0BB
:1024A0004FEA4E0E00FB0EFC38BF49004FEA2C1CD1
:1024B00002F5FA020CFB0EF34FEACE1E4FEA112C86
:1024C0004FEAC1210EEB635E42EB22420EFB0CFC95
:1024D0004FEA1C5300FB03114FEA112C4FEA013164
:1024E0000EFB0CFC4FEADC4C00FB0C11C14228BF78
:1024F00009184CEB03335DF804EB10EB410143EB9F
:10250000C250B2F57C0F38BF704729D512F0F00FDA
:102510001CBF00F1C04000F0004070470081828382
:102520008485868788898B8C8D8E8F9192939596E2
:1025300097999A9C9D9FA0A2A3A5A7A8AAACAEB06C
:10254000B2B3B5B7B9BCBEC0C2C5C7C9CCCED1D471
:10255000D7D9DCDFE2E6E9ECF0F3F7FAFE000000A1
:102560004FEA400C0CF1807CBCF17E4F28BF7047D5
:10257000B0F1C04000F05FB990EA010F0CEAD1134E
:1025800048BF42F48072624538BF634507D213F4F6
:102590007F0F16D080EA010000F00040704710B5B0
:1025A00000F003F9097EFC3E00F005B880EA010066
:1025B00000F00040704780EA010000F0004000F0A9
:1025C0003AB912F47F0F04BF0248704780EA010055
:1025D00000F031B90000C07F41000B0ED3F19E0224
:1025E00008D950F400034FEA032323FA02F048BF4E
:1025F0004042704710B500F0D8F800BF49922480DF
:10260000002070476FF0004282EA2000704700000F
:10261000C10DD1F19E0206DB4FEA002343F00043D7
:1026200023FA02F07047004207D54FEA4001B1F1AA
:10263000FE4F02D24FF00000704710B500F0B5F821
:1026400049922480002070476FEA20007047000004
:1026500010F0004148BF4042B0FA80F310FA03F294
:10266000C3F19D030BD051EAC35101EB1220530675
:1026700038BF704700F1010008BF20F0010070472B
:10268000B0FA80F310FA03F2C3F19D030AD0D90522
:1026900001EB1220530638BF704700F1010008BF5C
:1026A00020F00100704700004FF47F0C1CEAD012AC
:1026B0001EBF1CEAD11392EA0C0F93EA0C0F00F034
:1026C000478090EA010F48BF42F480724FF0004CFF
:1026D0004CEA00204CEA012102EB0302A0FB0113AB
:1026E000A2F50002002918BF43F001035B0028BFD8
:1026F0004FEA330342EB22425FEA132C4CEBC25009
:102700002EBFBCEB436FB2F57C0F70474FEA036CF2
:10271000BCF1004F08BF20F00100B2F57C0F38BFBC
:1027200070470BD582F0FF0212F5803FC8BF70479B
:1027300000F1C040D8BF00F00040704700F5000C29
:102740005FEA4C0C48BF7047B0F1C04000F073B86E
:1027500090EA010F0CEAD11348BF42F4807262453F
:1027600038BF634504D280EA010000F000407047A2
:1027700010B500F01AF800BF8900013E00F007B85C
:1027800000F009B85FEA410C5FEA1C6C08D080EAEF
:10279000010000F050B85FEA400C5FEA1C6CF6D113
:1027A0004FF00040A0F5800070470EF1020E2EF0B1
:1027B000030E5EF8044B244204D44FEA4102B2F106
:1027C0007F4F11D84FEA4003B3F17F4F0CD80ED1A1
:1027D0004FEAD07CB2F17F4F0CEB4C0C0CF1020CA9
:1027E00008BF4CEBD17C04E04FF0080C01E04FEA4D
:1027F000D17C0CEB4C0324FA03F404F00704B4F18D
:10280000040C06D20EEB840CBDE810404CF0010C19
:102810006047DFE80CF0070802024FF00040A0F527
:10282000800010BD0846420018BFD2F1807288BFF8
:1028300000F0004010BDFF2141EAD050C0057047B4
:1028400080F0004090EA010F7FF5A9AD81F00041D2
:1028500000F007B890EA010F48BF81F000413FF552
:102860009EAD421A04D882F00042A0EB020011444F
:102870004FEAD0524FF07F4C1CEA410FA2EBD153EC
:1028800018BF9CEA026F4AD04FF0004C4CEA00207F
:102890004CEA012121FA03FCB0EB0C0C0FD412F02E
:1028A000FE0F36D05FEA4C001DD5001240EBC2503F
:1028B00038BF70471CF03F0F18BF70470BE0A2F104
:1028C00001025FEA1C2040EBC25038BF70471CF089
:1028D0007F0F18BF7047C3F12003994014BF401EFB
:1028E00020F00100704780084FEA122308BF7047AC
:1028F000B0FA80FCA2EB0C02CCF1280C60FA0CF0D0
:1029000093EA122F04BF00EBC25070474FEAC37026
:102910007047130A5FEADC1008BF7047F6E79CEACD
:10292000026F04D010EA5C0F08BF0020704710B59A
:10293000FFF73BFF40DFF63E81F0004070470000AC
:102940001400140000001400140000000000000037
:102950007029000800000020380000006C01000809
:10296000A82900083800002070060000880100082F
:102970000000000000000000010203040102030443
:102980000607080902040608A5150008890C0008B6
:102990009516000800000000000000000000000084
:0829A00000000000000000002F
:0400000508000131BD
:00000001FF
