:020000040800F2
:1000000088060020CD010008FD0C0008C505000889
:10001000F90C00087D0200083D12000800000000F5
:10002000000000000000000000000000690F000850
:100030008102000800000000FF0C000855100008B5
:10004000E7010008E7010008E7010008E7010008F0
:10005000E7010008E7010008E7010008E7010008E0
:10006000E7010008E7010008E7010008E7010008D0
:10007000E7010008E7010008E7010008E7010008C0
:10008000E7010008E7010008E7010008E7010008B0
:10009000E7010008E7010008E7010008E7010008A0
:1000A000E7010008E7010008E7010008E701000890
:1000B000E7010008E7010008E7010008E701000880
:1000C000E7010008E7010008E7010008E701000870
:1000D000E7010008E7010008E7010008E701000860
:1000E000E7010008E7010008E7010008E701000850
:1000F000E7010008E7010008E7010008E701000840
:10010000E7010008E7010008E7010008E70100082F
:10011000E7010008E7010008E7010008E70100081F
:10012000E7010008E7010008E7010008E70100080F
:1001300000F002F800F03AF80AA090E8000C8244BF
:100140008344AAF10107DA4501D100F02FF8AFF29C
:10015000090EBAE80F0013F0010F18BFFB1A43F0A5
:10016000010318475C1200007C120000103A24BF03
:1001700078C878C1FAD8520724BF30C830C144BF0C
:1001800004680C607047000000230024002500264E
:10019000103A28BF78C1FBD8520728BF30C148BFEA
:1001A0000B6070471FB51FBD10B510BD00F033F8D0
:1001B0001146FFF7F7FF01F0D1F800F051F803B452
:1001C000FFF7F2FF03BC01F087F800000948804701
:1001D00009480047FEE7FEE7FEE7FEE7FEE7FEE729
:1001E000FEE7FEE7FEE7FEE704480549054A064B41
:1001F000704700006D1000083101000888000020E1
:10020000880600208802002088020020704770477E
:10021000704770477047754600F02CF8AE460500F1
:100220006946534620F00700854618B020B5FFF711
:10023000DBFFBDE820404FF000064FF000074FF015
:1002400000084FF0000B21F00701AC46ACE8C009F4
:10025000ACE8C009ACE8C009ACE8C0098D467047FD
:1002600010B50446AFF300802046BDE81040FFF70C
:10027000A6BF0000004870472400002000BFFEE732
:100280007047000000B59FB00121082000F058FD24
:100290000121202000F054FD0121402000F050FDFC
:1002A0000121080200F04CFD0121080200F028FDA8
:1002B0000120ADF8780010208DF87B0003208DF828
:1002C0007A001EA92D4800F0EEF84CF23370ADF81C
:1002D000780018208DF87B001EA9294800F0E3F86B
:1002E0004FF68070ADF878001EA9264800F0DBF8C4
:1002F00041F20100ADF878001EA9234800F0D3F8C0
:100300001E480C30006820F001001C490C310860C8
:100310000020089009900F200A9000200B900C906C
:100320000D900E9001900290012003900020049007
:1003300005900690079006200F90002010901190D5
:100340001020129000201390159014901690179082
:1003500088141890002019904FF480401A900020C3
:100360001B9008A81C9001A81D900FA800F028F869
:100370000121062000F00AF81FB000BD000C01406A
:1003800000140140001801400020014051B18200DA
:10039000A2F1C042126842F001038200A2F1C04201
:1003A000136009E08200A2F1C0421268034B1A40B8
:1003B0008300A3F1C0431A6070470000FEFF0F00E6
:1003C000D0E901121143C268114302691143426925
:1003D000114382691143C2691143026A1143426A9F
:1003E0001143826A1143C26A1143026B11430268CE
:1003F0009200A2F1C0421160816808290BD1016806
:100400008900A1F1C041096841F0400201688900FA
:10041000A1F1C0410A60416B0968426B526841EA30
:100420000211426B926841EA0221426B928941EAD1
:100430000241426B128A41EA0251426B127D41EA4B
:100440000261426B926911430268521C9200A2F150
:10045000C0421160C16AB1F5804F1BD1816B096840
:10046000826B526841EA0211826B926841EA022172
:10047000826B128A41EA0251826B127D41EA02616B
:10048000826B9269114302689200A2F1C042C2F8E5
:10049000041107E06FF0704201688900A1F1C041CA
:1004A000C1F8042170472DE9F041024600250026DD
:1004B000002000230024002791F803C00CF00F0552
:1004C00091F803C00CF0100CBCF1000F03D091F8B0
:1004D00002C04CEA050591F800C0BCF1000F31D014
:1004E000146800202BE04FF0010C0CFA00F3B1F877
:1004F00000C00CEA03069E4220D183004FF00F0C8F
:100500000CFA03F7BC4305FA03FC4CEA040491F827
:1005100003C0BCF1280F06D14FF0010C0CFA00FC0F
:10052000C2F814C00AE091F803C0BCF1480F05D12D
:100530004FF0010C0CFA00FCC2F810C0401C082857
:10054000D1D31460B1F800C0BCF1FF0F34DD5468A2
:1005500000202EE000F1080C4FF0010808FA0CF31F
:10056000B1F800C00CEA03069E4221D183004FF08F
:100570000F0C0CFA03F7BC4305FA03FC4CEA040425
:1005800091F803C0BCF1280F05D100F1080C08FA5E
:100590000CF8C2F8148091F803C0BCF1480F07D1E1
:1005A00000F1080C4FF0010808FA0CF8C2F81080AE
:1005B000401C0828CED35460BDE8F08141617047EB
:1005C0000161704700BFFEE730B504460A48008865
:1005D0000949498800FB01F50021084600F0F2F9BD
:1005E000054800890549088003E00448801C048010
:1005F0006D1E002DF9D130BD14000020FE07006CE7
:1006000010B5044644B900200D498871F0200880D7
:100610004FF4A070488007E00120094988714FF429
:10062000A0700880F02048802C20054908812A20ED
:1006300048812B208881002000F032F910BD000095
:100640001400002010B5FFF71DFE322000F046FE1A
:1006500042F27D4090498880CF2000F041FB00208D
:1006600000F044FBC12000F041FB302000F03EFBD5
:10067000ED2000F035FB642000F038FB032000F093
:1006800035FB122000F032FB812000F02FFBE82028
:1006900000F026FB852000F029FB102000F026FB4F
:1006A0007A2000F023FBCB2000F01AFB392000F069
:1006B0001DFB2C2000F01AFB002000F017FB34205B
:1006C00000F014FB022000F011FBF72000F008FB03
:1006D000202000F00BFBEA2000F002FB002000F0DD
:1006E00005FB002000F002FBC02000F0F9FA1B20FF
:1006F00000F0FCFAC12000F0F3FA012000F0F6FA55
:10070000C52000F0EDFA302000F0F0FA302000F0C3
:10071000EDFAC72000F0E4FAB72000F0E7FA36203F
:1007200000F0DEFA482000F0E1FA3A2000F0D8FAB2
:10073000552000F0DBFAB12000F0D2FA002000F0E2
:10074000D5FA1A2000F0D2FAB62000F0C9FA0A2031
:1007500000F0CCFAA22000F0C9FAF22000F0C0FAB2
:10076000002000F0C3FA262000F0BAFA012000F0C1
:10077000BDFAE02000F0B4FA0F2000F0B7FA2A200A
:1007800000F0B4FA282000F0B1FA082000F0AEFA28
:100790000E2000F0ABFA082000F0A8FA542000F078
:1007A000A5FAA92000F0A2FA432000F09FFA0A203F
:1007B00000F09CFA0F2000F099FA002000F096FA61
:1007C000002000F093FA002000F090FA002000F0E2
:1007D0008DFAE12000F084FA002000F087FA15205D
:1007E00000F084FA172000F081FA072000F07EFA6A
:1007F000112000F07BFA062000F078FA2B2000F0A0
:1008000075FA562000F072FA3C2000F06FFA0520CD
:1008100000F06CFA102000F069FA0F2000F066FA80
:100820003F2000F063FA3F2000F060FA0F2000F054
:100830005DFA2B2000F054FA002000F057FA002057
:1008400000F054FA012000F051FA3F2000F04EFA77
:100850002A2000F045FA002000F048FA002000F0BD
:1008600045FA002000F042FAEF2000F03FFA112094
:1008700000F036FA782000F04FFD292000F030FA21
:100880000020FFF7BDFE01210448FFF799FE4FF657
:10089000FF70FFF799FE10BD14000020000C01400E
:1008A00030B5014600200023444CA479012C18D116
:1008B000082915D2DFE801F00406080A0C0E101210
:1008C00006210DE007210BE0042109E0052107E0E6
:1008D000012105E0002103E0032101E0022100BF26
:1008E00000BF08291CD2DFE801F00406090C0F1232
:1008F000151800BF14E040F0800011E040F0400007
:100900000EE040F0C0000BE040F0200008E040F0B6
:10091000600005E040F0A00002E040F0E00000BF11
:1009200000BF362340F00800254C2380A41C208003
:1009300000F020046CB1214C2488204D6D88AC421D
:1009400014DA1E4C228864881C4D2C802C46628050
:100950000CE01A4C2488194D6D88AC4206DD174C0A
:1009600022886488154D2C802C466280134C648943
:10097000134D2C800024AD1C2C802C800F4C24881F
:10098000641EC4F30F242C800C4C2478641EE4B243
:100990002C800A4CA489AD1E2C800024AD1C2C8018
:1009A0002C80064C6488641EC4F30F242C80034CF6
:1009B000A478641EE4B22C8030BD00001400002036
:1009C000FE07006C094A5289094B1A8002129B1CCF
:1009D0001A80C2B21A80054A92899B1E1A800A1296
:1009E0009B1C1A80CAB21A807047000014000020B5
:1009F000FE07006C70B505460E4614463146284683
:100A0000FFF7E0FF0348008903490880881C048041
:100A100070BD000014000020FE07006C2DE9F04FAF
:100A200091B00646884617469A4693E038782028C3
:100A300041DB38787F283EDC387881464FF430201F
:100A400000EB091B0DAA1021584600F017FC0024EA
:100A500020E00DA8005D0490002517E080202841CB
:100A60000499084040B108EB040291B2721990B2A7
:100A70005246FFF7BFFF07E008EB040291B272197C
:100A800090B21A9AFFF7B6FF681CC5B2082DE5DBD5
:100A9000601CC4B2102CDCDB06F1080086B27F1C9F
:100AA000304800880938B04254DA002608F11000B6
:100AB0001FFA80F84EE03878A1385E214843029052
:100AC0007878A1380190DDE9011000EB0109264892
:100AD00000EB491B05AA2021584600F0CFFB00245B
:100AE00028E0012000EB440005A9085C11F814106F
:100AF00040EA01200390002518E04FF4004028410F
:100B00000399084040B108EB040291B2721990B207
:100B10005246FFF76FFF07E008EB040291B272192B
:100B200090B21A9AFFF766FF681CC5B2102DE4DB7D
:100B3000601CC4B2102CD4DB06F1100086B2BF1CBE
:100B4000084800881138B04204DA002608F1100085
:100B50001FFA80F8387800287FF468AF11B0BDE83C
:100B6000F08F0000140000200C280B002DE9FF4F2F
:100B7000B5B0064688461746A4E03878202849DBF9
:100B800038787F2846DC38788146524800EB891057
:100B9000349024AA4021349800F070FB002428E00F
:100BA000012000EB440024A9085C11F8141040EA6D
:100BB00001200390002518E04FF4004028410399DC
:100BC000084040B108EB040291B2721990B2389A11
:100BD000FFF710FF07E008EB040291B2721990B220
:100BE000429AFFF707FF681CC5B2102DE4DB601CBA
:100BF000C4B2202CD4DB06F1100086B27F1C36482C
:100C000000881138B0425DDA002608F120001FFA92
:100C100080F857E03878A1385E2148430290787810
:100C2000A1380190DDE9011000EB01092B4800EB30
:100C3000C910349004AA8021349800F01FFB0024CE
:100C400030E04FF0000A0BE04FEA0B2B0AEB840078
:100C500004A9085C40EA0B0B0AF1010000F0FF0A4E
:100C6000BAF1040FF0DB002518E04FF00040E84037
:100C700000EA0B0040B108EB040291B2721990B285
:100C8000389AFFF7B7FE07E008EB040291B2721939
:100C900090B2429AFFF7AEFE681CC5B2202DE4DB8D
:100CA000601CC4B2202CCCDB06F1200086B2BF1C35
:100CB000094800882138B04204DA002608F12000F3
:100CC0001FFA80F8387800287FF457AF39B0BDE8B4
:100CD000F08F000006080B001400002052260F00C1
:100CE0000149088070470000FE07006C0149088038
:100CF000704700000008006C00BFFEE770477047B7
:100D000029B1064A52690243044B5A6104E0034A7E
:100D100052698243014B5A61704700000010024043
:100D200029B1064AD2690243044BDA6104E0034A5E
:100D3000D2698243014BDA61704700000010024023
:100D400029B1064A92690243044B9A6104E0034ABE
:100D500092698243014B9A61704700000010024083
:100D600030B500210022002400232D4D6D6805F0D0
:100D70000C0121B1042905D0082923D105E0294D12
:100D8000056022E0274D05601FE0254D6D6805F4E4
:100D90007012234D6D6805F48034022505EB9242F4
:100DA0001CB9214D554305600BE01D4D6D6805F4E0
:100DB00000351DB11C4D5543056002E0194D5543EA
:100DC000056002E0174D056000BF00BF144D6D685F
:100DD00005F0F0010909154D6B5C0568DD404560C3
:100DE0000F4D6D6805F4E061090A104D6B5C4568B4
:100DF000DD4085600A4D6D6805F46051C90A0B4DF0
:100E00006B5C4568DD40C560054D6D6805F440418B
:100E1000890B074D6B5CC568B5FBF3F5056130BD0B
:100E20000010024000127A0000093D00000000207E
:100E30001000002000B587B001210820FFF780FFD7
:100E400001218803FFF76CFF4FF46040ADF81800F4
:100E500018208DF81B0003208DF81A0006A91648EB
:100E6000FFF721FB4FF460411348FFF7A9FB002077
:100E7000ADF804004FF48270ADF806000020ADF824
:100E80000800ADF80A00ADF80C004FF40070ADF8A2
:100E90000E000020ADF81000ADF812000720ADF8EC
:100EA000140001A9054800F041F80121034800F0B1
:100EB00023F807B000BD0000000C014000380040DE
:100EC00010B5044600BF02210A4800F021F80028AE
:100ED000F9D02146074800F027F800BF0121054856
:100EE00000F016F80028F9D0024800F01AF8C4B251
:100EF000204610BD0038004021B1028842F0400277
:100F0000028004E002884FF6BF731A4002807047E7
:100F10000246002013890B400BB1012000E00020A5
:100F200070470146888970478181704710B500225B
:100F3000028802F441520B884C8823438C88234357
:100F4000CC8823430C8923434C8923438C89234336
:100F5000CC8923431A430280838B4FF2FF742340D2
:100F600083830B8A038210BD704710B500F002F82E
:100F700010BD00000CB500200190009033480068BF
:100F800040F480303149086000BF3048006800F408
:100F9000003000900198401C0190009818B9019809
:100FA000B0F5A06FF1D12948006800F4003010B10D
:100FB0000120009001E0002000900098012843D11A
:100FC0002348006840F01000214908600846006886
:100FD00020F0030008600846006840F00200086046
:100FE0001A48406819494860084640684860084601
:100FF000406840F4806048600846406820F47C10F7
:1010000048600846406840F4E810486008460068B8
:1010100040F08070086000BF0C48006800F000706D
:101020000028F9D00948406820F0030007494860CB
:101030000846406840F00200486000BF034840682E
:1010400000F00C000828F9D10CBD0000001002408F
:1010500000200240704700204FF0E0210861084660
:10106000006920F0040008617047000010B51348C3
:10107000006840F0010011490860084640681049C6
:1010800008400E494860084600680E4908400B4970
:1010900008600846006820F4802008600846406820
:1010A00020F4FE0048604FF41F008860FFF75DFFEA
:1010B0004FF000600449086010BD000000100240BD
:1010C0000000FFF8FFFFF6FE08ED00E010B586B067
:1010D0000446012144F20400FFF732FE4FF4007091
:1010E000ADF8140018208DF8170003208DF81600B5
:1010F00005A91448FFF7D7F94FF48060ADF8140044
:1011000004208DF8170003208DF8160005A90D485E
:10111000FFF7C9F901940020ADF80800ADF80A0006
:10112000ADF80C00ADF810000C20ADF80E0001A9D0
:10113000054800F017F80121034800F007F806B051
:1011400010BD0000000801400038014021B1828933
:1011500042F40052828104E082894DF6FF731A4006
:10116000828170472DE9F04786B005460E4600247F
:10117000A24600BFA1460027B08900B100BF2F469C
:101180002C8A4CF6FF700440F08804432C82AC8912
:101190004EF6F3100440B088318908437189084342
:1011A0000443AC81AC8A4FF6FF400440B08904434D
:1011B000AC8201A8FFF7D4FD1F48874202D1DDF8B9
:1011C00010A001E0DDF80CA0A88900F4004040B1B7
:1011D0000AEBCA0000EB0A1031684900B0FBF1F8D5
:1011E00007E00AEBCA0000EB0A1031688900B0FB87
:1011F000F1F86420B8FBF0F004012009642101FB40
:101200001089A88900F4004040B1322000EBC900E9
:10121000B0FBF1F000F00700044308E0322000EBDF
:1012200009106421B0FBF1F000F00F0004432C81A1
:1012300006B0BDE8F08700000038014000BFFEE7BF
:1012400008B501210820FFF77BFD4FF48050ADF871
:10125000000010208DF8030003208DF8020069467D
:101260000548FFF720F94FF480510348FFF7A8F92C
:10127000FFF7E0FD08BD0000000C014070B5064618
:101280000C4615464FF480510B48FFF797F90320A1
:10129000FFF716FE304600F011F805E0FF20FFF7DB
:1012A0000FFE28706D1C641E002CF7D14FF4805186
:1012B0000148FFF785F970BD000C014010B50446E8
:1012C000C4F30740FFF7FCFDC4F30720FFF7F8FD68
:1012D000E0B2FFF7F5FD10BD00BF7047FF214FF0F2
:1012E000E022916142F2283141435161114609697E
:1012F00041F00101116100BF4FF0E021096901F4E3
:1013000080310029F8D04FF0E021096921F0010176
:101310004FF0E0221161704730B503460025B3F568
:10132000E96F03DC1846FFF7D9FF15E004E0A3F5E9
:10133000E96083B2681C85B2B3F5E96FF7DA00247F
:1013400005E04FF4E960FFF7C9FF601C84B2AC42CE
:10135000F7DB1846FFF7C2FF30BD000008B5FFF706
:101360007AFE4FF4E130FFF7B1FEFFF76BF9FFF7BC
:1013700067FF4FF6FF704FF4784309A26421009095
:101380000846FFF74BFB4FF6FF704FF4784308A277
:10139000C82100900A20FFF7E9FB00BFFEE700002C
:1013A000C4E3BAC3B0A168616861686131323300D7
:1013B000C4E3BAC3B0A16861686131323300000090
:1013C000E013000800000020140000006C01000879
:1013D000F4130008140000207406000088010008BF
:1013E00000000000010203040102030406070809CB
:0413F00002040608E5
:0400000508000131BD
:00000001FF
