:020000040800F2
:1000000090060020ED010008F5010008F701000846
:10001000F9010008FB010008FD01000800000000D4
:10002000000000000000000000000000FF010008C8
:100030000102000800000000030200080502000899
:10004000070200080702000807020008070200086C
:10005000070200080702000807020008070200085C
:1000600007020008070200084513000807020008FD
:10007000070200080702000807020008070200083C
:10008000070200080702000807020008070200082C
:100090000702000807020008070200088913000889
:1000A000070200080702000807020008070200080C
:1000B00007020008070200080702000807020008FC
:1000C00007020008070200080702000807020008EC
:1000D00007020008C52400080702000807020008FC
:1000E00007020008070200080702000807020008CC
:1000F00007020008070200080702000807020008BC
:1001000007020008070200080702000807020008AB
:10011000070200080702000807020008070200089B
:10012000070200080702000807020008070200088B
:1001300000F002F800F04AF80AA090E8000C8244AF
:100140008344AAF10107DA4501D100F03FF8AFF28C
:10015000090EBAE80F0013F0010F18BFFB1A43F0A5
:10016000010318476C2D00008C2D0000103A24BFAD
:1001700078C878C1FAD8520724BF30C830C144BF0C
:1001800004680C607047000000230024002500264E
:10019000103A28BF78C1FBD8520728BF30C148BFEA
:1001A0000B607047662902F04686642900F0808063
:1001B000002070471FB500F033FB04000020002131
:1001C00002F002FCE0601FBD10B510BD00F040FC65
:1001D0001146FFF7EFFF02F0B7FB00F05EFC03B43F
:1001E000FFF7F2FF03BC02F03BFB00000948804729
:1001F00009480047FEE7FEE7FEE7FEE7FEE7FEE709
:10020000FEE7FEE7FEE7FEE704480549054A064B20
:10021000704700000D220008310100089000002006
:1002200090060020900200209002002070470000FD
:100230000FB4044910B503AA029800F0DFFA10BC0D
:100240005DF814FB000000202DE9F0410E46044645
:10025000002020622046E168884730B3252805D079
:10026000D4E901219047206A401CF2E7E16820466A
:1002700000278847050018D0A5F14100192802D8A9
:1002800020354FF400673246294620462760FFF7A5
:1002900089FF40B1012804D0F61D26F00706083674
:1002A000D8E7361DD6E72846DAE7206ABDE8F081B0
:1002B0002DE9F0410646002410687529314616A53F
:1002C00010D0AFF30080002802DA404213A507E007
:1002D00031688A0701D512A502E0490704D511A5A6
:1002E000012401E0AFF3008000210A2206F1240777
:1002F00009E0B0FBF2FCB0FBF2F302FB1C00303073
:1003000078541846491C0028F3D123462A46304623
:10031000BDE8F04100F00CB8000000002D00000026
:100320002B000000200000007047704770477047A6
:100330002DE9F0470D4699469246044600F12408FF
:100340000168880604D5E06921F01001216000E011
:100350000120A84201DD471B00E00027A1697A19AE
:1003600002EB0900081AA0612078C00602D42046DA
:10037000AFF30080002608E0D4E901211AF8060056
:100380009047206A401C761C20624E45F4DB2078A2
:10039000C0060AD52046AFF3008006E0D4E901216B
:1003A00030209047206A401C2062381EA7F10107C8
:1003B000F4DC07E0D4E9012118F805009047206A31
:1003C000401C2062281EA5F10105F3DC2046AFF396
:1003D00000802078000602D50220BDE8F0870120C9
:1003E000FBE770472DE9FF4F0C461E464FF0FF37E5
:1003F0008BB0D2E90001DDF860800A908A46C1F333
:100400000A5505B93D46002108464FF00000BAF1F3
:10041000000F00F4400005DA00EB80004FF44001CB
:1004200001EA50004FEA9059B9F1010F00DDB946D9
:100430000A9850EA4A000ED044F61050A5F2FF3553
:1004400045432F14B8F1000F1ED07542291E1EDD42
:10045000C9F100021CE0B8F1010F4FF0000001D01B
:10046000302103E0F24305E02154401CB042FBDBA5
:1004700030460022002121540B99C1F80880C1E9BF
:1004800000200FB0BDE8F08FBD1B6D1CDEE74A46B3
:1004900000DA694206A800F065FA06AB93E80700A7
:1004A00003AB83E8070050460A9900F03DFB8DE856
:1004B0000700A0F500501F3800900398002D09DDBB
:1004C00042F21F014A46084403A90390684600F01F
:1004D0009CFD08E0A0F500504A461F3803A9039090
:1004E000684600F0A6FD8DE807000004000C03D06C
:1004F0004FF0FF30410800E01046B8F1000F03D084
:100500000022009215461EE0751E05D400F08CF9FD
:10051000303262556D1EF9D5B3460122084302D030
:1005200000227F1C04E02078302801D100227F1EA9
:10053000002A099786D01DE0112D07DA00F074F922
:10054000303262556D1C50EA0102F5D1084302D0E9
:100550000098C8B10EE00021681E05E0235C625CD3
:1005600063542254401E491C8142F7DBAB46A81B52
:10057000401E0990002004F80B000B98099AC0F85F
:100580000880C0E9002B7CE711264FF0000859E7EE
:100590002DE9F04F88460446D21D22F0070191B0A4
:1005A000D1E90001CDE90A0102F046F902460B98B3
:1005B000C00F01D02D2007E02068810701D52B2036
:1005C00002E0202101EAC000032A099001D0072A95
:1005D00005DB03464146204600F084F90BE1207814
:1005E000800601D5E06900E00620B8F1650F81467C
:1005F00006D0B8F1660F18D0B8F1670F70D131E0AE
:100600000020B9F1110F009001DB112301E009F185
:1006100001030AAA01A90CA8FFF7E4FEDDE90C70AA
:10062000002609F10105834647E001204B46009072
:100630004FF000470AAA01A90CA8FFF7D3FEDDE995
:100640000DB00C995D46002610B909F101000D1896
:10065000B9EB050003D4C0F1FF3609F10105A5EBA4
:1006600009002BE0B9F1010F01DA4FF00109002078
:10067000B9F1110F0090484601DD112300E0034657
:100680000AAA01A90CA8FFF7ADFEDDE90C704D46E2
:1006900000268346207800070AD4AB4500DA5D4681
:1006A00001A8012D04DD411911F8011C302907D0E2
:1006B0004F4502DA17F1040F04DA012082460FE0F9
:1006C0006D1EEEE7002F02DCED1B3E4403E0781CBC
:1006D000A84200DD7D1CB81B00F1010A4FF0004765
:1006E0002078000703D4AA4501DB4FF0FF3A002130
:1006F000B7F1004F0DF143088DF8431024D00220CC
:100700002B23002F01DA7F422D230A21021EA0F1A4
:10071000010000DC5FB197FBF1FC97FBF1F201FBFC
:100720001C7C17460CF1300C08F801CDEEE7A8F15F
:10073000010003702188090501D5452100E06521EC
:10074000A0F1010800F8011C09980FA9A1EB080706
:10075000FF1D00B10120411901EBEA70A169384485
:10076000081A401EA0612078C00602D42046AFF3CC
:100770000080099828B1D4E901219047206A401CE3
:1007800020622078C00622D52046AFF300801EE00C
:10079000002E04DBB34502DD01A8805D00E03020BF
:1007A000D4E901219047206A401C2062761CAAF1FE
:1007B00001005FEA000A0AD100F032F8C06801685F
:1007C000405CD4E901219047206A401C2062281E29
:1007D000A5F10105DCDC07E0D4E9012118F8010BE3
:1007E0009047206A401C2062381EA7F10107F3DC05
:1007F0002046AFF30080032011B043E6074B70B5ED
:100800000D467B4400F05BF80446284600F018F9DA
:1008100010B14FF0FF3070BD204670BD27210000A1
:10082000004870474C00002030B5B0F10A024FEA92
:10083000900E71F100034EEA817EB0EB0E0061EB89
:1008400091014FEA101E4EEA017E10EB0E0041EBC3
:1008500011114FEA102E4EEA016E10EB0E0041EB23
:1008600011214FEA104E4EEA014E10EB0E0041EB03
:100870001141401841F100014FEAD00040EA4170B7
:100880004FEAD10110EB80054FEA810444EA9074ED
:1008900044EB01046D1944EB0404521BA3414FF0D7
:1008A000000348BF0A3200D530BD401C41F10001B1
:1008B00030BD000001694A1C02610878704700B52C
:1008C0008FB0CDE901310021059105497944CDE989
:1008D000031011466846FFF7B7FC0FB000BD0000DB
:1008E000E5FFFFFF2DE9F0411F460446032601689E
:1008F000072A01F4006004DB08B116A505E016A57F
:1009000003E008B115A500E015A521F01000206056
:10091000A069C01EA0610FB1401EA0612046AFF3C8
:1009200000804FB1D4E9012138469047206A401C2D
:100930002062C01C206206E0206AFAE7D4E90121A7
:1009400015F8010B9047761EF8D22046AFF30080D1
:10095000BDE8F0814E414E006E616E00494E46008A
:10096000696E66002DE9F047814616468AB0334825
:1009700078440DC88DE80D0030487844801C03ACE5
:100980000DC884E80D0041F69B300844372190FBE8
:10099000F1F290FBF1F5A5F1800501FB12041B3C7F
:1009A00002D56442012000E00020DFF890A08046DC
:1009B0000027FA44AAF1BE0A0DE0E00709D032464A
:1009C000684607EB47010AEB810100F032FB8DE836
:1009D000070064107F1C002CEFD1184F7F44AC3F00
:1009E00018E0E80714D007EB04100DF1180A90E89E
:1009F0000E008AE80E00C068F04201D198190890F4
:100A0000324606A903A800F014FB03AB83E80700F5
:100A10006D10641C002DE4D132466946B8F1000F18
:100A200003A802D000F0F1FA01E000F002FBC9E9EE
:100A30000001C9F808200AB0BDE8F087442500008D
:100A4000007B00F080007047004870472C000020B9
:100A50007546FFF7F9FFAE4605006946534620F09C
:100A60000700854618B020B5FFF7CEFBBDE8204053
:100A70004FF000064FF000074FF000084FF0000B5A
:100A800021F00701AC46ACE8C009ACE8C009ACE80D
:100A9000C009ACE8C0098D4670470446AFF300803A
:100AA0002046FFF79CFB00004FF0013C50F8042B60
:100AB00051F8043B9A4221D1A2EB0C03934313EA71
:100AC000CC1317D150F8042B51F8043B9A4215D19E
:100AD000A2EB0C03934313EACC130BD150F8042B75
:100AE00051F8043B9A4209D1A2EB0C03934313EA59
:100AF000CC13DBD04FF00000704700BFD01A01BA12
:100B0000B1FA81F101F0180122FA01F0CB40C1F1F4
:100B10002001DBB2C0B2C01A2CFA01F3D11A914302
:100B200011EAC311E6D170475FEA400C08BF91F0AB
:100B3000000F4FEA8C234FEAC12243EA51514FEA9A
:100B40001C5018BF00F5F0404FEA300018BF41F0CC
:100B500000415FEA6C5C00F02980BCF1FF3F08BFF8
:100B600040F080407047130C06BF12044FF0100C89
:100B70004FF0000C130E04BF12020CF1080C130FFF
:100B800004BF12010CF1040C930F04BF92000CF18E
:100B9000020CD30F04BF52000CF1010C11464FF0B0
:100BA0000002A0F11F00A0EB0C00704711F0004FF5
:100BB00008BF704731F000413FF4D5AF0B0C06BFC2
:100BC00009044FF0100C4FF0000C0B0E04BF09028B
:100BD0000CF1080C0B0F04BF09010CF1040C8B0F76
:100BE00004BF89000CF1020CCB0F04BF49000CF1CB
:100BF000010CCCF12003A0EB0C0022FA03F302FA63
:100C00000CF241EA030100F10100704720F07F4C33
:100C100080EA030023F07F47ACEB070303F57C5326
:100C200000F0004003F1FF032DE980494FEA154B26
:100C300009B44FEA144325EA0B4E24EA03480FF2A5
:100C4000042606EB132749083E785FEA320203FBCD
:100C50000667C7F5000707FB06F64FEA54374FEA69
:100C6000D64606F1020607FB066CCCF1005C4FEAA3
:100C70001C472CEA074C07FB06F40CFB06F504EBBB
:100C800015464FEA961634BF00204FF000404FEA59
:100C9000D13706FB07FC4FEA1C4C0CFB0BF7D21BB1
:100CA00003FB0CF761EB07010CFB0EF7B0EB074001
:100CB00072EB17420CFB08F734BFA2EB0742B2EB12
:100CC000074261EB17414FEA0C444FEA910706FBDC
:100CD00007FC4FEA1C4C0CFB0BF7B0EBC74072EB68
:100CE000573203FB0CF734BFA2EBC742B2EBC7424B
:100CF00061EB57310CFB0EF7B0EBC70072EB57728C
:100D00000CFB08F734BFA2EBC702B2EBC70261EBE2
:100D10005771039F4FEA816141EA921104EBCC04C1
:100D20004FEAD1374FEA826206FB07FC42EA901293
:100D30004FEA80604FEA1C4C0CFB0BF7D21B03FB05
:100D40000CF761EB07010CFB0EF7B0EB074072EB01
:100D500017420CFB08F734BFA2EB0742B2EB074285
:100D600061EB17414FEA8C554FEA910704EB9C2445
:100D700006FB07FC4FEA1C4C0CFB0BF7B0EBC74023
:100D800072EB573203FB0CF734BFA2EBC742B2EB56
:100D9000C74261EB57310CFB0EF7B0EBC70072EBAB
:100DA00057720CFB08F734BFA2EBC702B2EBC702C5
:100DB00061EB577115EB4C254FEA816141EA9211C5
:100DC0004FEA82624FEAD13742EA901206FB07FCF3
:100DD00044F100044FEA80604FEA1C4C0CFB0BF717
:100DE000D21B03FB0CF761EB07010CFB0EF7B0EB1A
:100DF000074072EB17420CFB08F734BFA2EB074227
:100E0000B2EB074261EB174115EB1C154FEA81313C
:100E100041EA92414FEA823242EA90424FEA803000
:100E20004FEA0C7644F1000448EA03434EEA0B48CB
:100E30004FF0000EB2EB080C71EB030724BF6246C3
:100E400039464EEB0E0E4FF0000B0018524149414F
:100E50004BEB0B0BB2EB080C71EB03077BF1000BB8
:100E600024BF624639464EEB0E0E4FF0000B0018C1
:100E7000524149414BEB0B0BB2EB080C71EB0307F2
:100E80007BF1000B24BF624639464EEB0E0E51EA51
:100E9000020718BF46F0010616EB0E7655F1000268
:100EA00054F1000103D5BDE88901BDE80088BDE823
:100EB0008901BDE80048B619524141EB0101A3F197
:100EC0000103704780807F7E7D7C7B7A797877769E
:100ED00076757473727171706F6E6E6D6C6C6B6A17
:100EE0006A696868676666656464636362616160B5
:100EF000605F5F5E5E5D5D5C5C5B5B5A5A59595832
:100F0000585757565655555554545353525252519B
:100F1000515050504F4F4F4E4E4D4D4D4C4C4C4BF1
:100F20004B4B4A4A4A494949484848474747474638
:100F30004646454545444444444343434342424274
:100F400042414141002B26D4770021D01CB54FEA05
:100F5000370703B44FF010004FF010014FF00000BE
:100F60000FBCBDE810400BF1010BBBF1010F08BF36
:100F70005FEA170722BF12F1010211F101014FF0E0
:100F8000004143F1000300F0004043EA00007047D5
:100F9000F9D35708DAE746EA064613F1400F4FEA5D
:100FA00016461FDD13F1200FDFBF16430A4600214E
:100FB00020335B42C8D0C3F1200746EA064602FA56
:100FC00007F74FEA164646EA0706C3F1200722FA5A
:100FD00003F201FA07F721FA03F14FF0000342EAA6
:100FE0000702B1E746EA020646EA06464FEA164617
:100FF00046EA0106BCBF46EA0646360C4FF000033F
:101000004FF000024FF000019EE72DE9C0489346E3
:1010100030B491E8380007C831EA400C48BF34EAE0
:10102000430C03D5FFF7F2FDFFF78CFFF0BCBDE8E2
:1010300000882DE9C048934630B491E8380007C8CD
:1010400010F0804F08BF13F0804F03D100F005F877
:10105000FFF778FFF0BCBDE8008820F07F4780EA0A
:10106000030023F07F4C07EB0C03A3F57C5300F047
:101070000040A3F1FE0392F0000F00F0B38095F062
:10108000000F00F077802DE901494FEA11404FEA47
:10109000144621EA004800FB06FC24EA064708FB48
:1010A00006F607FB08F800FB07F718EB06484CEBC1
:1010B000164C4FEA124B18EB07484FEA15464CEB1B
:1010C000174022EA0B4E0BFB06FC25EA06470EFBF7
:1010D00006F607FB0EFE0BFB07F71EEB064E4CEB6E
:1010E000164C4FF000061EEB074E4CEB174B18EB5F
:1010F0000B0840F1000018EB0E0B58EB000840F114
:1011000000008F1A4FF000013CBFC943661B14BF9B
:10111000B5EB040C00213CBFC943F61B4FEA174452
:101120004EEA8E0E27EA04454FEA1C4704FB07628D
:101130002CEA074C05FB07F70CFB05F604FB0CFC3F
:1011400016EB074642EB174216EB0C4642EB1C42ED
:101150001BEB060658EB0202414146EA9E0601D50A
:10116000BDE80189B619524141EB0101A3F1010328
:10117000BDE801894FEA14454FEA114724EA0546C4
:1011800021EA074C05FB07F406FB07F70CFB06F109
:1011900005FB0CFC11EB074144EB17444FEA1247E7
:1011A00011EB0C4144EB1C4422EA074C05FB07F20F
:1011B00006FB07F70CFB06F605FB0CFC16EB0746D7
:1011C00042EB174216EB0C4642EB1C456A1854F1F1
:1011D000000148BF7047B619524141EB0101A3F12C
:1011E0000103704795F0000F37D04FEA11424FEAE4
:1011F000144721EA024624EA074C02FB07F106FBEA
:1012000007F70CFB06F402FB0CFC14EB074441EB64
:1012100017414FEA154714EB0C4441EB1C4125EAFA
:10122000074C02FB07F506FB07F70CFB06F602FB73
:101230000CFC16EB074645EB174516EB0C4645EB49
:101240001C42121951F1000148BF7047B6195241B2
:1012500041EB0101A3F1010370474FEA14454FEA46
:10126000114724EA054621EA074C05FB07F106FB76
:1012700007F70CFB06F24FF0000605FB0CFC12EB27
:10128000074241EB174112EB0C4251EB1C4148BFA6
:101290007047921841EB0101A3F10103704710B5AB
:1012A00000F02EF910BD2DE9F04104460E46174618
:1012B00000F0FCF9A046E11704EB11610912A0222D
:1012C00002EB4101C8B200F0C3F900F043F9054652
:1012D00025B100F009FA0120BDE8F081A046E11730
:1012E00004EB11610912A4EB0121C8B200F0B0F9BE
:1012F00000F030F905461DB100F0F6F90220EBE7E9
:1013000000F0D4F9A12000F0A3F900F023F905467C
:101310001DB100F0E9F90220DEE70DE000F03EF932
:101320003870701EC6B21EB9012000F063F904E0E7
:10133000002000F05FF97F1CF0E700BF00F0D4F957
:101340002846C9E710B5102000F036F8012813D15F
:101350000A2001F0ADFA0948006800F0100058B901
:101360000748006840F0100005490860054800681B
:1013700080F020000349086010BD000008180140FB
:10138000140401400C0C014010B5202000F014F8AA
:1013900001280BD10648006840F02000044908608D
:1013A0000448006880F020000249086010BD000079
:1013B000140401400C0C014001460020034A12684D
:1013C0000A400AB1012000E00020704714040140E7
:1013D0002DE9F041024600250026002000230024CC
:1013E000002791F803C00CF00F0591F803C00CF032
:1013F000100CBCF1000F03D091F802C04CEA0505B7
:1014000091F800C0BCF1000F31D0146800202BE02F
:101410004FF0010C0CFA00F3B1F800C00CEA03061F
:101420009E4220D183004FF00F0C0CFA03F7BC430F
:1014300005FA03FC4CEA040491F803C0BCF1280F40
:1014400006D14FF0010C0CFA00FCC2F814C00AE0FF
:1014500091F803C0BCF1480F05D14FF0010C0CFA14
:1014600000FCC2F810C0401C0828D1D31460B1F8A9
:1014700000C0BCF1FF0F34DD546800202EE000F105
:10148000080C4FF0010808FA0CF3B1F800C00CEAA0
:1014900003069E4221D183004FF00F0C0CFA03F794
:1014A000BC4305FA03FC4CEA040491F803C0BCF108
:1014B000280F05D100F1080C08FA0CF8C2F81480C6
:1014C00091F803C0BCF1480F07D100F1080C4FF0B0
:1014D000010808FA0CF8C2F81080401C0828CED386
:1014E0005460BDE8F0810246002093680B400BB1C8
:1014F000012000E0002070474161704701617047A2
:1015000008B50121082000F05FFD4020ADF8000083
:1015100010208DF8030003208DF8020069460B4867
:10152000FFF756FF8020ADF8000014208DF803006F
:1015300069460648FFF74CFF40210448FFF7DEFFED
:1015400080210348FFF7DAFF08BD0000000C0140CE
:101550000018014010B540210F48FFF7CDFF802152
:101560000D48FFF7CBFF052001F0C3F940210A48E1
:10157000FFF7C4FF80210848FFF7B5FF28B14021DD
:101580000548FFF7B9FF012010BD40210248FFF7D1
:10159000B3FF0020F8E70000000C014070B5002404
:1015A00040211348FFF7A8FF80211148FFF7A6FF4D
:1015B000002515E040210E48FFF79EFF6006040E4F
:1015C000052001F096F940210948FFF797FF802197
:1015D0000748FFF788FF08B144F00104681CC5B252
:1015E000082DE7DB40210248FFF786FF204670BD4B
:1015F000000C014010B5044640211448FFF77CFF61
:10160000052001F076F9012C0BD180210F48FFF75E
:1016100075FF012001F06DF940210C48FFF76EFFC6
:101620000BE054B980210948FFF766FF012001F063
:1016300060F940210548FFF761FF052001F059F9E5
:1016400040210248FFF758FF10BD0000000C014088
:1016500070B50446002520E040211348FFF74CFFF9
:10166000052001F046F904F0800020B180210E48E9
:10167000FFF744FF03E080210B48FFF73DFF012007
:1016800001F037F940210848FFF738FF052001F045
:1016900030F96006040E681CC5B2082DDCDB402161
:1016A0000148FFF729FF70BD000C014010B5402133
:1016B0000C48FFF721FF80210A48FFF71FFF402158
:1016C0000848FFF71BFF052001F013F980210548AA
:1016D000FFF712FF052001F00CF940210148FFF748
:1016E0000BFF10BD000C014010B540210A48FFF768
:1016F00003FF80210848FFF7FFFE40210648FFF75F
:10170000FDFE052001F0F5F880210348FFF7F6FE05
:10171000052001F0EEF810BD000C014070B5054643
:101720004FF496342A2000F027F8002000F0D8F873
:10173000002000F0D5F8002000F0D2F8EF2000F0F3
:10174000CFF82B2000F018F8002000F0C9F8002096
:1017500000F0C6F8012000F0C3F840F23F1000F09E
:10176000BFF82C2000F008F803E0284600F0B8F895
:10177000641E002CF9D170BD10B5044610215548E7
:10178000FFF7BCFE01215448FFF7B6FE4FF480512D
:101790005148FFF7B1FE20214E48FFF7ADFE04F09F
:1017A000010040B14B480C30006840F4804049498A
:1017B0000C31086007E047480C30006820F4804096
:1017C00044490C31086004F0020040B141480C303B
:1017D000006840F400403F490C31086007E03D4894
:1017E0000C30006820F400403A490C31086004F0E5
:1017F000040040B137480C30006840F00100354922
:101800000C31086007E033480C30006820F001001C
:1018100030490C31086004F0080040B12D480C300C
:10182000006840F002002B490C31086007E02948AD
:101830000C30006820F0020026490C31086004F0EA
:10184000100030B12548006840F08000234908604E
:1018500005E02248006820F080002049086004F07C
:10186000200030B11D48006840F480701B490860BA
:1018700005E01A48006820F480701849086004F0F8
:10188000400030B11548006840F40070134908600A
:1018900005E01248006820F400701049086004F068
:1018A000800030B10D48006840F480600B4908604A
:1018B00005E00A48006820F480600849086020219B
:1018C0000448FFF71BFE4FF480510348FFF716FE54
:1018D00010BD000000140140002001400C18014020
:1018E00010B5044610219B48FFF708FE01219A48D5
:1018F000FFF704FE4FF480519748FFF7FDFD2021CC
:101900009448FFF7F9FD04F0010040B191480C3014
:10191000006840F480408F490C31086007E08D4832
:101920000C30006820F480408A490C31086004F0D3
:10193000020040B187480C30006840F400408549FF
:101940000C31086007E083480C30006820F4004048
:1019500080490C31086004F0040040B17D480C302F
:10196000006840F001007B490C31086007E07948CD
:101970000C30006820F0010076490C31086004F05A
:10198000080040B173480C30006840F00200714913
:101990000C31086007E06F480C30006820F002004E
:1019A0006C490C31086004F0100030B16B480068DD
:1019B00040F080006949086005E06848006820F050
:1019C00080006649086004F0200030B16348006878
:1019D00040F480706149086005E06048006820F4C8
:1019E00080705E49086004F0400030B15B480068D8
:1019F00040F400705949086005E05848006820F438
:101A000000705649086004F0800030B15348006807
:101A100040F480605149086005E05048006820F4B7
:101A200080604E49086004F4807030B14B48006813
:101A300040F400604949086005E04848006820F427
:101A400000604649086004F4007030B14348006803
:101A500040F480504149086005E04048006820F4A7
:101A600080503E49086004F4806030B13B48006813
:101A700040F400503949086005E03848006820F417
:101A800000503649086004F4006030B13348006803
:101A900040F480403149086005E03048006820F497
:101AA00080402E49086004F4805030B12B48006813
:101AB00040F400402949086005E02848006820F407
:101AC00000402649086004F4005040B121480C3021
:101AD000006840F480701F490C31086007E01D4821
:101AE0000C30006820F480701A490C31086004F44E
:101AF000804040B117480C30006840F40070154930
:101B00000C31086007E013480C30006820F40070C6
:101B100010490C31086004F4004040B10D480C300D
:101B2000006840F480600B490C31086007E0094808
:101B30000C30006820F4806006490C3108602021D8
:101B40000448FFF7DBFC4FF480510348FFF7D6FC55
:101B500010BD000000140140002001400C1801409D
:101B600008B50121082000F02FFA0121202000F003
:101B70002BFA0121402000F027FA0121080200F091
:101B800023FA0120ADF8000010208DF80300032097
:101B90008DF8020069461848FFF71AFC4CF23370C2
:101BA000ADF8000069461548FFF712FC4FF680704B
:101BB000ADF8000069461248FFF70AFC41F2010047
:101BC000ADF8000069460F48FFF702FC4FF4805162
:101BD0000C48FFF793FC20210848FFF78FFC1021E9
:101BE0000648FFF78BFC01210648FFF787FC01211F
:101BF0000148FFF781FC08BD000C014000140140C2
:101C0000001801400020014010B5FFF7A9FFCF20C8
:101C1000FFF7B2FD0020FFF763FEC120FFF760FE73
:101C20003020FFF75DFEED20FFF7A6FD6420FFF7F3
:101C300057FE0320FFF754FE1220FFF751FE8120CC
:101C4000FFF74EFEE820FFF797FD8520FFF748FEDF
:101C50001020FFF745FE7A20FFF742FECB20FFF76A
:101C60008BFD3920FFF73CFE2C20FFF739FE0020CA
:101C7000FFF736FE3420FFF733FE0220FFF730FE79
:101C8000F720FFF779FD2020FFF72AFEEA20FFF773
:101C900073FD0020FFF724FE0020FFF721FEC02087
:101CA000FFF76AFD1B20FFF71BFEC120FFF764FD55
:101CB0000120FFF715FEC520FFF75EFD3020FFF77E
:101CC0000FFE3020FFF70CFEC720FFF755FDB720B1
:101CD000FFF706FE3620FFF74FFD4820FFF700FE16
:101CE0003A20FFF749FD5520FFF7FAFDB120FFF735
:101CF00043FD0020FFF7F4FD1A20FFF7F1FDB620A9
:101D0000FFF73AFD0A20FFF7EBFDA220FFF7E8FD01
:101D1000F220FFF731FD0020FFF7E2FD2620FFF75C
:101D20002BFD0120FFF7DCFDE020FFF725FD0F2054
:101D3000FFF7D6FD2A20FFF7D3FD2820FFF7D0FDBF
:101D40000820FFF7CDFD0E20FFF7CAFD0820FFF7A2
:101D5000C7FD5420FFF7C4FDA920FFF7C1FD4320B4
:101D6000FFF7BEFD0A20FFF7BBFD0F20FFF7B8FD10
:101D70000020FFF7B5FD0020FFF7B2FD0020FFF7C0
:101D8000AFFD0020FFF7ACFDE120FFF7F5FC0020E0
:101D9000FFF7A6FD1520FFF7A3FD1720FFF7A0FD15
:101DA0000720FFF79DFD1120FFF79AFD0620FFF7A2
:101DB00097FD2B20FFF794FD5620FFF791FD3C2067
:101DC000FFF78EFD0520FFF78BFD1020FFF788FD44
:101DD0000F20FFF785FD3F20FFF782FD3F20FFF733
:101DE0007FFD0F20FFF77CFD2B20FFF7C5FC0020B7
:101DF000FFF776FD0020FFF773FD0120FFF770FD70
:101E00003F20FFF76DFD2A20FFF7B6FC0020FFF70B
:101E100067FD0020FFF764FD0020FFF761FDEF2064
:101E2000FFF75EFD3620FFF7A7FC0820FFF758FDFF
:101E30001120FFF7A1FC782000F03AFD2920FFF7E0
:101E40009BFC01210348FFF759FB4FF6FF70FFF79A
:101E500065FC10BD000C0140F8B500F0BFFA009021
:101E60001E49B1F9040000F079FE0646BDF80000F5
:101E700000F08CFE074619480168384600F09AFECB
:101E80000546314600F0E8FD044600F047FE80B20A
:101E9000ADF800001149B1F90C0000F05FFE0646F4
:101EA000BDF8020000F072FE07460C488168384613
:101EB00000F080FE0546314600F0CEFD044600F0FD
:101EC0002DFE80B2ADF80200BDF80220BDF8001072
:101ED00003A0FEF7ADF90098F8BD00001C0000203B
:101EE000783A256420202020793A25640D0A0000E4
:101EF00008B50121082000F067F80121402000F01A
:101F000063F82020ADF8000010208DF803000320B6
:101F10008DF8020069460948FFF75AFA2020ADF80B
:101F2000000069460648FFF753FA20210348FFF7EF
:101F3000E5FA20210248FFF7E1FA08BD000C014054
:101F40000018014070B5002100230F22C47804B3AB
:101F5000154C246804F4E064C4F5E064210AC1F17E
:101F60000403CA40447804FA03F1847814402143FE
:101F700009010E4C0678A155047804F01F050124D0
:101F8000AC4005786D11AD0005F1E025C5F80041C4
:101F900009E0047804F01F050124AC40044D0678E4
:101FA000761145F8264070BD0CED00E000E400E03D
:101FB00080E100E002490143024A116070470000DD
:101FC0000000FA050CED00E029B1064A92690243CF
:101FD000044B9A6104E0034A92698243014B9A617F
:101FE000704700000010024030B50021002200249C
:101FF00000232D4D6D6805F00C0121B1042905D099
:10200000082923D105E0294D056022E0274D056010
:102010001FE0254D6D6805F47012234D6D6805F4C1
:102020008034022505EB92421CB9214D55430560D1
:102030000BE01D4D6D6805F400351DB11C4D554379
:10204000056002E0194D5543056002E0174D05603B
:1020500000BF00BF144D6D6805F0F0010909154D72
:102060006B5C0568DD4045600F4D6D6805F4E0610F
:10207000090A104D6B5C4568DD4085600A4D6D684E
:1020800005F46051C90A0B4D6B5C4568DD40C560C5
:10209000054D6D6805F44041890B074D6B5CC568C3
:1020A000B5FBF3F5056130BD0010024000127A0067
:1020B00000093D00080000201800002010B504466B
:1020C00000BF02210A4800F015F80028F9D0214687
:1020D000074800F01BF800BF0121054800F00AF88E
:1020E0000028F9D0024800F00EF8C4B2204610BD16
:1020F000003800400246002013890B400BB101203C
:1021000000E0002070470146888970478181704750
:1021100010B500F001F810BD0CB500200190009042
:102120003348006840F480303149086000BF3048CF
:10213000006800F4003000900198401C0190009865
:1021400018B90198B0F5A06FF1D12948006800F4E2
:10215000003010B10120009001E0002000900098B4
:10216000012843D12348006840F01000214908604D
:102170000846006820F0030008600846006840F048
:10218000020008601A4840681949486008464068DB
:1021900048600846406840F48060486008464068EF
:1021A00020F47C1048600846406840F4E81048601D
:1021B0000846006840F08070086000BF0C48006866
:1021C00000F000700028F9D00948406820F00300B2
:1021D000074948600846406840F00200486000BF78
:1021E0000348406800F00C000828F9D10CBD00003D
:1021F00000100240002002404FF0E020006920F073
:1022000004004FF0E02108617047000010B513484A
:10221000006840F001001149086008464068104914
:1022200008400E494860084600680E4908400B49BE
:1022300008600846006820F480200860084640686E
:1022400020F4FE0048604FF41F008860FFF760FF35
:102250004FF000600449086010BD0000001002400B
:102260000000FFF8FFFFF6FE08ED00E070B5054640
:1022700000264FF400713548FFF73EF94FF4006136
:102280003248FFF739F900241DE002213048FFF7FA
:1022900033F905F0800028B14FF400712B48FFF7A7
:1022A0002DF904E04FF400712848FFF725F900F0FC
:1022B000F8FA02212648FFF721F900F0F2FA680641
:1022C000050E601CC4B2082CDFDB02212048FFF79A
:1022D00013F94FF400711D48FFF70EF9782000F054
:1022E00008FB02211A48FFF707F900F0DAFA022189
:1022F0001748FFF703F900F0D4FA002418E04FF66E
:10230000FF7000EA460602211148FFF7F5F800F0D9
:10231000C8FA02210E48FFF7F1F804210C48FFF734
:10232000E2F808B146F0010600F0BBFA601CC4B246
:102330000C2CE4DB4FF400610448FFF7DFF80221C6
:102340000348FFF7D9F8304670BD0000001C01407B
:10235000000C014008B501210820FFF735FE0121DE
:102360008020FFF731FE0220ADF8000010208DF82C
:10237000030003208DF8020069461648FFF728F88D
:102380004FF42060ADF8000069461348FFF720F8CD
:102390000420ADF8000048208DF8030069460D4880
:1023A000FFF716F84FF48060ADF8000069460A4860
:1023B000FFF70EF84FF400610748FFF79FF802217E
:1023C0000448FFF799F84FF400710348FFF794F8B9
:1023D00008BD0000000C0140001C01402DE9F04147
:1023E0008CB00026002700250DE0D020FFF73EFF2F
:1023F00007A921F815009020FFF738FF02A921F85E
:102400001500681CC5B20A2DEFDB012533E000245E
:102410002BE007A830F8141007AA601C32F810004F
:1024200081420BDD07A830F8148007A9601C31F841
:10243000100021F81400601C21F8108002A830F868
:10244000141002AA601C32F8100081420BDD02A8B1
:1024500030F8148002A9601C31F8100021F8140033
:10246000601C21F81080601CC4B2C5F10A00A042B3
:10247000CFDC681CC5B20A2DC9DB01250BE007A81B
:1024800030F81500304486B202A830F81500384400
:1024900087B2681CC5B2092DF1DB3046F11706EB97
:1024A0005171C1F3CF01ADF804103846F91707EBAD
:1024B0005171C1F3CF01ADF8061001980CB0BDE821
:1024C000F081000008B52021144800F095F801289B
:1024D00013D11248001D0088C0B200906A46012145
:1024E0000F48006800F050F90D480068401C0C4986
:1024F000086020210B48FEF7FFFF40F22441074807
:1025000000F087F8012808D1044800880348001D1E
:10251000008820210348FEF7F1FF08BD0038014084
:10252000040000200018014010B586B004460121C7
:102530000420FFF749FD01218803FFF745FD4FF413
:102540000070ADF8140018208DF8170003208DF8E6
:10255000160005A92048FEF73BFF4FF48060ADF858
:10256000140004208DF8170003208DF8160005A92B
:102570001948FEF72DFF01940020ADF80800ADF8D2
:102580000A00ADF80C00ADF810000C20ADF80E00FC
:1025900001A9124800F08CF8012240F225510F48A1
:1025A00000F061F8012240F224410C4800F05BF891
:1025B00025208DF8000001208DF801008DF8020023
:1025C0008DF803006846FFF7BDFC0121034800F0C9
:1025D00007F806B010BD00000008014000380140B7
:1025E00021B1828942F40052828104E082894DF651
:1025F000FF731A408281704702460020B1F5007FC8
:1026000000D100BF13880B400BB1012000E0002077
:10261000704770B50246002400230025002040F6D4
:102620006A16B14200D100BFC1F3421501F01F0389
:10263000012606FA03F3012D02D19689334006E004
:10264000022D02D1168A334001E0968A33400C12E3
:10265000012606FA04F41688344013B10CB10120A7
:1026600000E0002070BDF0B50346002400260025E0
:10267000002040F66A17B94200D100BF1846C1F3E6
:10268000421401F01F06012707FA06F5012C01D1BB
:102690000C3004E0022C01D1103000E014301AB1EB
:1026A00007682F43076002E00768AF430760F0BD8B
:1026B0002DE9F04786B005460E460024A24600BF2D
:1026C000A1460027B08900B100BF2F462C8A4CF6E6
:1026D000FF700440F08804432C82AC894EF6F3105E
:1026E0000440B08831890843718908430443AC81B0
:1026F000AC8A4FF6FF400440B0890443AC8201A885
:10270000FFF772FC1F48874202D1DDF810A001E0FC
:10271000DDF80CA0A88900F4004040B10AEBCA0023
:1027200000EB0A1031684900B0FBF1F807E00AEB52
:10273000CA0000EB0A1031688900B0FBF1F8642090
:10274000B8FBF0F004012009642101FB1089A8897D
:1027500000F4004040B1322000EBC900B0FBF1F0C2
:1027600000F00700044308E0322000EB0910642168
:10277000B0FBF1F000F00F0004432C8106B0BDE87F
:10278000F08700000038014070B504460D4616463B
:1027900000F040F84FF480511248FEF7ADFE0220E1
:1027A000FFF78CFCC4F30740FFF788FCC4F3072055
:1027B000FFF784FCE0B2FFF781FC04E03078FFF71C
:1027C0007DFC761C6D1E002DF8D14FF4805105481C
:1027D000FEF794FE00BF00F007F800F001000028AB
:1027E000F9D170BD000C014010B54FF4805108487C
:1027F000FEF782FE0520FFF761FCFF20FFF75EFC7D
:1028000004464FF480510248FEF778FE204610BD82
:10281000000C014010B54FF480510648FEF76CFEE5
:102820000620FFF74BFC4FF480510248FEF766FE8E
:1028300010BD0000000C0140490050EAC12018BF43
:1028400004204A0D18BF40F0010040F2FF72B2EBC5
:10285000515F08BF40F00200012808BF0520704703
:10286000014600BF7047FF214FF0E022916142F224
:102870002831414351611146096941F0010111615B
:1028800000BF4FF0E021096901F480310029F8D040
:102890004FF0E021096921F001014FF0E0221161C0
:1028A0007047142001E0411EC8B20028FBD17047D8
:1028B00030B503460025B3F5E96F03DC1846FFF792
:1028C000D2FF15E004E0A3F5E96083B2681CC5B24D
:1028D000B3F5E96FF7DA002405E04FF4E960FFF79C
:1028E000C2FF601CC4B2AC42F7DB1846FFF7BBFF67
:1028F00030BDFF214FF0E022916100EBC00151613A
:102900001146096941F00101116100BF4FF0E0215A
:10291000096901F480310029F8D04FF0E0210969FC
:1029200021F001014FF0E0221161704700BF054A1C
:10293000128802F04002002AF9D0C2B2014B1B1DDE
:102940001A8070470038014008B5FFF755FC4FF476
:10295000A060FFF72FFBFFF7CBFA4FF4E130FFF752
:10296000E3FDFEF79CFCFFF7F5FCFFF74DF90F4A7E
:1029700010210020FEF797FC10210DA0FDF758FC58
:102980000A49086800F03CF8044622460B460BA0B2
:10299000FDF74EFC08E04FF480610A48FEF7A3FD06
:1029A00010B9FFF759FA0090F5E700001C0000206D
:1029B000C7F8D3F2A3BA25640D0A000025660D0AF4
:1029C00000000000001C014010B500290AD0087862
:1029D000002807D005487844FEF766F8002801D0A3
:1029E000002010BD0248784410BD00001A05000008
:1029F000120500000808A0F500114FEA31017047E8
:102A000043004FEAD30C4FEA3C0C43401FBF400742
:102A10000CF1605113F0FE4F70471CF0006F03D1B2
:102A200000200CF0004170470CF0004343EA507066
:102A300010B540EACC0000F03EF900BF0000009263
:102A40004FEA0001FFF7D6BF4FF000414FF0000002
:102A5000A1F500217047000090EA010F48BF81F006
:102A6000004100F17A81421A3CBF801A89184FEA6E
:102A7000D0524FF07F4C1CEA410FA2EBD15318BF4C
:102A80009CEA026F00F03B804FF0004C4CEA0020C3
:102A90004CEA012121FA03FC10EB0C0C1ED202F1CE
:102AA000FF325FEA1C2040EBC25038BF70471CF079
:102AB0007F0F4FEA400C18BFBCF17F4F38BF704703
:102AC000C3F12003994008BF20F00100BCF17F4F03
:102AD00038BF7047A0F1C04000F033B94FEA3C0066
:102AE000000A40EBC25028BF1CF0FF0F4FEA400C19
:102AF000E6D018BFBCF17F4F38BF7047EAE79CEAC9
:102B0000026F05D010EA5C0F08BF00F0004070476C
:102B100010B500F0D0F800BF64FBBE3EC10DD1F18E
:102B20009E0206DB4FEA002343F0004323FA02F043
:102B30007047004207D54FEA4001B1F1FE4F02D283
:102B40004FF00000704710B500F0B5F849922480AE
:102B5000002070476FEA20007047000010F000412D
:102B600048BF4042B0FA80F310FA03F2C3F19D036C
:102B70000BD051EAC35101EB1220530638BF704706
:102B800000F1010008BF20F001007047B0FA80F3A7
:102B900010FA03F2C3F19D030AD0D90501EB12200C
:102BA000530638BF704700F1010008BF20F0010054
:102BB000704700004FF47F0C1CEAD0121EBF1CEAC5
:102BC000D11392EA0C0F93EA0C0F00F0478090EAC1
:102BD000010F48BF42F480724FF0004C4CEA0020D5
:102BE0004CEA012102EB0302A0FB0113A2F5000253
:102BF000002918BF43F001035B0028BF4FEA3303ED
:102C000042EB22425FEA132C4CEBC2502EBFBCEBCE
:102C1000436FB2F57C0F70474FEA036CBCF1004F75
:102C200008BF20F00100B2F57C0F38BF70470BD50C
:102C300082F0FF0212F5803FC8BF704700F1C0402C
:102C4000D8BF00F00040704700F5000C5FEA4C0C64
:102C500048BF7047B0F1C04000F073B890EA010F70
:102C60000CEAD11348BF42F48072624538BF634515
:102C700004D280EA010000F00040704710B500F077
:102C80001AF800BF8900013E00F007B800F009B84B
:102C90005FEA410C5FEA1C6C08D080EA010000F09A
:102CA00050B85FEA400C5FEA1C6CF6D14FF0004070
:102CB000A0F5800070470EF1020E2EF0030E5EF8B4
:102CC000044B244204D44FEA4102B2F17F4F11D8A1
:102CD0004FEA4003B3F17F4F0CD80ED14FEAD07CBE
:102CE000B2F17F4F0CEB4C0C0CF1020C08BF4CEB1B
:102CF000D17C04E04FF0080C01E04FEAD17C0CEBF2
:102D00004C0324FA03F404F00704B4F1040C06D2D3
:102D10000EEB840CBDE810404CF0010C6047DFE87E
:102D20000CF0070802024FF00040A0F5800010BD33
:102D30000846420018BFD2F1807288BF00F0004000
:102D400010BDFF2141EAD050C005704790EA010F45
:102D500048BF81F000413FF586AE421A04D882F0A8
:102D60000042A0EB020011444FEAD0524FF07F4CDA
:102D70001CEA410FA2EBD15318BF9CEA026F4AD064
:102D80004FF0004C4CEA00204CEA012121FA03FCF0
:102D9000B0EB0C0C0FD412F0FE0F36D05FEA4C00F3
:102DA0001DD5001240EBC25038BF70471CF03F0FDA
:102DB00018BF70470BE0A2F101025FEA1C2040EB54
:102DC000C25038BF70471CF07F0F18BF7047C3F167
:102DD0002003994014BF401E20F001007047800876
:102DE0004FEA122308BF7047B0FA80FCA2EB0C0236
:102DF000CCF1280C60FA0CF093EA122F04BF00EB20
:102E0000C25070474FEAC3707047130A5FEADC1084
:102E100008BF7047F6E79CEA026F04D010EA5C0F27
:102E200008BF0020704710B5FFF745FF40DFF63EB2
:102E300081F000407047FDF7ABBB0000024000008E
:102E4000000000A00000000005400000000000C8D5
:102E5000000000000C4000000000409C000000004A
:102E6000194000000020BCBE0000000034400000FB
:102E7000BFC91B8E00000004B5400000504BCFD0EE
:102E80006607E2CF010000006C4100003E8251AABB
:102E9000DFEEA73401000000D9420000DCB5A0E25B
:102EA0003A301F97FFFFFFFFB4450000FD25A0C883
:102EB000E9A3C14FFFFFFFFFFF3F000000000080BC
:102EC00000000000FF3F0000000000800000000044
:102ED0000C2F0008000000201C0000006C010008FE
:102EE000282F00081C00002074060000880100083C
:102EF0001C00000043000000F8FFFFFF0C00000072
:102F00000E0000000F0000002E0000000000000076
:102F100000000B0000000000010203040102030492
:082F2000060708090204060877
:0400000508000131BD
:00000001FF
