:020000040800F2
:1000000088060020D5010008F10E00082D0900081F
:10001000ED0E00088D0400086914000800000000BF
:10002000000000000000000000000000E7010008E0
:10003000C104000800000000EB01000835120008B0
:10004000EF010008EF010008EF010008EF010008D0
:10005000EF010008EF010008C5040008EF010008E7
:10006000EF010008EF010008EF010008EF010008B0
:10007000EF010008EF010008EF010008EF010008A0
:10008000EF010008EF010008EF010008EF01000890
:10009000EF010008EF010008EF010008EF01000880
:1000A000EF010008EF010008EF010008EF01000870
:1000B000EF010008EF010008EF010008EF01000860
:1000C000EF010008EF010008EF010008EF01000850
:1000D000EF010008EF010008EF010008EF01000840
:1000E000EF010008EF010008EF010008EF01000830
:1000F000EF010008EF010008EF010008EF01000820
:10010000EF010008EF010008EF010008EF0100080F
:10011000EF010008EF010008EF010008EF010008FF
:10012000EF010008EF010008EF010008EF010008EF
:1001300000F002F800F03FF80AA090E8000C8244BA
:100140008344AAF10107DA4501D100F034F8AFF297
:10015000090EBAE80F0013F0010F18BFFB1A43F0A5
:10016000010318475814000078140000103A24BF07
:1001700078C878C1FAD8520724BF30C830C144BF0C
:1001800004680C607047000000230024002500264E
:10019000103A28BF78C1FBD8520728BF30C148BFEA
:1001A0000B607047642900F07780002070471FB50E
:1001B0001FBD10B510BD00F037F91146FFF7F7FF6E
:1001C00001F0AEF900F055F903B4FFF7F2FF03BCFC
:1001D00001F04CF90948804709480047FEE7FEE76F
:1001E000FEE7FEE7FEE7FEE7FEE7FEE7FEE7FEE7E7
:1001F00004480549054A064B704700007D12000877
:1002000031010008880000208806002088020020B4
:1002100088020020704700000FB4044910B503AAFB
:10022000029800F0D3F810BC5DF814FB1400002015
:100230002DE9F0410E460446002020622046E16888
:10024000884730B3252805D0D4E901219047206A9A
:10025000401CF2E7E168204600278847050018D0D7
:10026000A5F14100192802D820354FF40067324625
:10027000294620462760FFF795FF40B1012804D0AA
:10028000F61D26F007060836D8E7361DD6E72846BD
:10029000DAE7206ABDE8F0812DE9F0410646002446
:1002A00010687529314616A510D0AFF300800028DC
:1002B00002DA404213A507E031688A0701D512A58A
:1002C00002E0490704D511A5012401E0AFF3008045
:1002D00000210A2206F1240709E0B0FBF2FCB0FB82
:1002E000F2F302FB1C00303078541846491C0028F9
:1002F000F3D123462A463046BDE8F04100F00CB861
:10030000000000002D0000002B0000002000000075
:1003100070477047704770472DE9F0470D46994682
:100320009246044600F124080168880604D5E06975
:1003300021F01001216000E00120A84201DD471BEF
:1003400000E00027A1697A1902EB0900081AA061F0
:100350002078C00602D42046AFF30080002608E0D3
:10036000D4E901211AF806009047206A401C761C47
:1003700020624E45F4DB2078C0060AD52046AFF354
:10038000008006E0D4E9012130209047206A401C1B
:100390002062381EA7F10107F4DC07E0D4E901214F
:1003A00018F805009047206A401C2062281EA5F11D
:1003B0000105F3DC2046AFF300802078000602D56B
:1003C0000220BDE8F0870120FBE70000074B70B575
:1003D0000D467B4400F011F80446284600F020F852
:1003E00010B14FF0FF3070BD204670BD2F110000DE
:1003F00001694A1C02610878704700B58FB0CDE9E9
:1004000001310021059105497944CDE903101146D8
:100410006846FFF70DFF0FB000BD0000E5FFFFFFCE
:10042000007B00F080007047754600F02BF8AE4668
:1004300005006946534620F00700854618B020B5F0
:10044000FFF7D6FEBDE820404FF000064FF0000752
:100450004FF000084FF0000B21F00701AC46ACE86C
:10046000C009ACE8C009ACE8C009ACE8C0098D46D9
:10047000704710B50446AFF300802046BDE8104039
:10048000FFF7A2BE004870472800002000BFFEE72B
:1004900010B5002411E00121084800F03AFA40B1FB
:1004A000601CC4B21E2001F00CF8642C05DB012096
:1004B00010BD00F0E3FE0020FAE7ECE70008014081
:1004C0007047000010B50A48006820F00100084994
:1004D0000860FFF7DDFF08B100F0B6FE04480068D1
:1004E00040F0010002490860012000F003F810BD4F
:1004F00000040140014908607047000014040140F5
:10050000002123498279002A3AD00A4612680368FA
:100510009A430B461A600A1D126803689A430B1D22
:100520001A60027911440A6803681A430A60184A7B
:100530000832126803689A43154B08331A601A1D73
:10054000126803689A43124B0C331A604279102ADE
:100550000ED11A1F126803681A430D4B08331A6034
:100560001A1D126803681A43094B0C331A600DE018
:100570000749427911440A6803681A430A6005E092
:10058000027911440A6803689A430A6070470000C0
:100590000004014000B59FB001214FF4B47000F099
:1005A0004BFD0121080200F027FD0120ADF8780085
:1005B00010208DF87B0003208DF87A001EA93448A6
:1005C00000F01CF94CF23370ADF8780018208DF86B
:1005D0007B0003208DF87A001EA92E4800F00EF94A
:1005E0004FF68070ADF8780018208DF87B0003205E
:1005F0008DF87A001EA9284800F000F941F20100A8
:10060000ADF8780018208DF87B0003208DF87A0073
:100610001EA9224800F0F2F801211D4800F082F9DD
:1006200001200890002009900F200A9000200B90D4
:100630000C900D900E9001900290032003900020EA
:10064000049005900690079006200F9000201090CF
:100650001190102012900020139015901490169075
:1006600017904FF480501890002019904FF480405C
:100670001A9000201B9008A81C9001A81D900FA89C
:1006800000F028F80121062000F00AF81FB000BD94
:10069000000C0140001401400018014000200140FE
:1006A00051B18200A2F1C042126842F001038200FF
:1006B000A2F1C042136009E08200A2F1C0421268B8
:1006C000034B1A408300A3F1C0431A607047000037
:1006D000FEFF0F00D0E901121143C2681143026905
:1006E00011434269114382691143C2691143026A8D
:1006F0001143426A1143826A1143C26A1143026B79
:10070000114302689200A2F1C04211608168082979
:100710000BD101688900A1F1C041096841F0400294
:1007200001688900A1F1C0410A60416B0968426B10
:10073000526841EA0211426B926841EA0221426B1F
:10074000928941EA0241426B128A41EA0251426BAC
:10075000127D41EA0261426B926911430268521CA8
:100760009200A2F1C0421160C16AB1F5804F1BD165
:10077000816B0968826B526841EA0211826B926850
:1007800041EA0221826B128A41EA0251826B127D98
:1007900041EA0261826B9269114302689200A2F100
:1007A000C042C2F8041107E06FF07042016889008E
:1007B000A1F1C041C1F804217047000030B500220A
:1007C0008B071C0F0F2303FA04F20B4B8C1053F80A
:1007D00024309343084C8D1044F8253023468C1068
:1007E00053F824308C07240F00FA04F42343024CFE
:1007F0008D1044F8253030BD080001402DE9F0414E
:10080000024600250026002000230024002791F83E
:1008100003C00CF00F0591F803C00CF0100CBCF1F4
:10082000000F03D091F802C04CEA050591F800C012
:10083000BCF1000F31D0146800202BE04FF0010C08
:100840000CFA00F3B1F800C00CEA03069E4220D176
:1008500083004FF00F0C0CFA03F7BC4305FA03FCBE
:100860004CEA040491F803C0BCF1280F06D14FF004
:10087000010C0CFA00FCC2F814C00AE091F803C0A5
:10088000BCF1480F05D14FF0010C0CFA00FCC2F886
:1008900010C0401C0828D1D31460B1F800C0BCF1CE
:1008A000FF0F34DD546800202EE000F1080C4FF0FB
:1008B000010808FA0CF3B1F800C00CEA03069E42E6
:1008C00021D183004FF00F0C0CFA03F7BC4305FA5B
:1008D00003FC4CEA040491F803C0BCF1280F05D1D5
:1008E00000F1080C08FA0CF8C2F8148091F803C063
:1008F000BCF1480F07D100F1080C4FF0010808FACD
:100900000CF8C2F81080401C0828CED35460BDE813
:10091000F0810246002093680B400BB1012000E0FB
:1009200000207047416170470161704700BFFEE7DA
:1009300008B50121042000F07FFB0121402000F0D8
:100940007BFB1820ADF8000048208DF803006946B5
:100950000648FFF753FF0120ADF8000028208DF86E
:10096000030069460248FFF749FF08BD001801402F
:100970000008014000B50246124800881149498824
:1009800000FB01F30F49887A00F080F8002000F0A6
:1009900083F8002000F080F80A49087B00F076F820
:1009A000002000F079F8002000F076F80549087A78
:1009B00000F06CF802E0044802805B1E002BFAD1C4
:1009C00000BD0000180000200008006CF0B50546CE
:1009D0000C46059F02FB03F61749887A00F056F88B
:1009E000281200F059F8284600F056F8A918081205
:1009F00000F052F8A91888B200F04EF80E49087BB2
:100A000000F044F8201200F047F8204600F044F8C7
:100A1000E118081200F040F8E11888B200F03CF844
:100A20000549087A00F032F802E004480780761E93
:100A3000002EFAD1F0BD0000180000200008006C64
:100A400010B5044674B900200F498871F020088061
:100A50004FF4A07048802C2008812A2048812B2048
:100A600088810DE00120084988714FF4A07008804A
:100A7000F02048802C2008812A2048812B20888162
:100A8000002000F03DF910BD180000200149088049
:100A900070470000FE07006C0149088070470000A5
:100AA0000008006C10B5FFF775FD0A2000F0E1FCAE
:100AB00042F27D4090498880CF20FFF7E7FF002079
:100AC000FFF7EAFFC120FFF7E7FF3020FFF7E4FF61
:100AD000ED20FFF7DBFF6420FFF7DEFF0320FFF7C9
:100AE000DBFF1220FFF7D8FF8120FFF7D5FFE820BA
:100AF000FFF7CCFF8520FFF7CFFF1020FFF7CCFFDB
:100B00007A20FFF7C9FFCB20FFF7C0FF3920FFF79E
:100B1000C3FF2C20FFF7C0FF0020FFF7BDFF3420EC
:100B2000FFF7BAFF0220FFF7B7FFF720FFF7AEFF8E
:100B30002020FFF7B1FFEA20FFF7A8FF0020FFF712
:100B4000ABFF0020FFF7A8FFC020FFF79FFF1B208F
:100B5000FFF7A2FFC120FFF799FF0120FFF79CFFDD
:100B6000C520FFF793FF3020FFF796FF3020FFF7F7
:100B700093FFC720FFF78AFFB720FFF78DFF3620CE
:100B8000FFF784FF4820FFF787FF3A20FFF77EFF3B
:100B90005520FFF781FFB120FFF778FF0020FFF716
:100BA0007BFF1A20FFF778FFB620FFF76FFF0A20C0
:100BB000FFF772FFA220FFF76FFFF220FFF766FF3B
:100BC0000020FFF769FF2620FFF760FF0120FFF7F5
:100BD00063FFE020FFF75AFF0F20FFF75DFF2A2099
:100BE000FFF75AFF2820FFF757FF0820FFF754FFB1
:100BF0000E20FFF751FF0820FFF74EFF5420FFF7AC
:100C00004BFFA920FFF748FF4320FFF745FF0A20CD
:100C1000FFF742FF0F20FFF73FFF0020FFF73CFFE9
:100C20000020FFF739FF0020FFF736FF0020FFF715
:100C300033FFE120FFF72AFF0020FFF72DFF1520EB
:100C4000FFF72AFF1720FFF727FF0720FFF724FFF2
:100C50001120FFF721FF0620FFF71EFF2B20FFF7D3
:100C60001BFF5620FFF718FF3C20FFF715FF05205C
:100C7000FFF712FF1020FFF70FFF0F20FFF70CFF09
:100C80003F20FFF709FF3F20FFF706FF0F20FFF788
:100C900003FF2B20FFF7FAFE0020FFF7FDFE0020E8
:100CA000FFF7FAFE0120FFF7F7FE3F20FFF7F4FE03
:100CB0002A20FFF7EBFE0020FFF7EEFE0020FFF7F3
:100CC000EBFE0020FFF7E8FEEF20FFF7E5FE112026
:100CD000FFF7DCFE782000F0F4FB2920FFF7D6FEBA
:100CE0000020FFF7ADFE01210448FFF71DFE4FF67F
:100CF000FF70FFF73FFE10BD18000020000C014000
:100D000030B503460022002548488079012818D1D3
:100D1000082B15D2DFE803F00406080A0C0E1012A7
:100D200006230DE007230BE0042309E0052307E079
:100D3000012305E0002303E0032301E0022300BFB9
:100D400000BF082B1CD2DFE803F00406090C0F12C9
:100D5000151800BF14E042F0800211E042F040029A
:100D60000EE042F0C0020BE042F0200208E042F048
:100D7000600205E042F0A00202E042F0E00200BFA3
:100D800000BF362542F0080229480580801C0280F9
:100D900002F0200068B1254800882449498888422B
:100DA00014DA224804884088204908800846448094
:100DB0000CE01E4800881D494988884206DD1B4812
:100DC0000488408819490880084644801749887A71
:100DD000FFF75CFE0020FFF75FFE0020FFF75CFEE0
:100DE00012490988491EC1F30F20FFF755FE0F492C
:100DF0000978491EC8B2FFF74FFE0C49087BFFF780
:100E000045FE0020FFF748FE0020FFF745FE07499A
:100E10004988491EC1F30F20FFF73EFE0349897838
:100E2000491EC8B2FFF738FE30BD00001800002090
:100E3000FE07006C08B50121082000F0FDF8012133
:100E4000402000F0F9F82020ADF8000010208DF8C7
:100E5000030003208DF8020069460948FFF7CEFC25
:100E60002020ADF8000069460648FFF7C7FC2021A6
:100E70000348FFF759FD20210248FFF755FD08BD43
:100E8000000C0140001801401FB50121052000F0B1
:100E9000D3F80120ADF80C0028208DF80F0003A92D
:100EA0001148FFF7ABFC00210846FFF787FC012043
:100EB000009000208DF8040008208DF80500012026
:100EC0008DF806006846FFF71BFB06208DF808002A
:100ED00002208DF809008DF80A0001208DF80B0022
:100EE00002A800F007F81FBD0008014000BFFEE7A0
:100EF0007047000070B5002100230F22C47804B3AE
:100F0000154C246804F4E064C4F5E064210AC1F1DE
:100F10000403CA40447804FA03F18478144021435E
:100F200009010E4C0678A155047804F01F05012430
:100F3000AC4005786D11AD0005F1E025C5F8004124
:100F400009E0047804F01F050124AC40044D067844
:100F5000761145F8264070BD0CED00E000E400E09D
:100F600080E100E002490143024A1160704700003D
:100F70000000FA050CED00E00A48006840F00400AB
:100F8000084908600846006840F00200086006480A
:100F9000006840F004000449086000BF00BF30BF93
:100FA000704700000070004010ED00E010B50246F0
:100FB00000200C4B186820F00300104318600A4B07
:100FC0001B6843F00403084C2360012901D130BFA2
:100FD00000E020BF044B1B6823F00403024C236095
:100FE00010BD00000070004010ED00E001490860F5
:100FF00070470000A0000E4229B1064A5269024320
:10100000044B5A6104E0034A52698243014B5A611E
:10101000704700000010024029B1064AD26902431D
:10102000044BDA6104E0034AD2698243014BDA617E
:10103000704700000010024029B1064A926902433D
:10104000044B9A6104E0034A92698243014B9A611E
:10105000704700000010024029B1064AD2680243DE
:10106000044BDA6004E0034AD2688243014BDA6041
:10107000704700000010024030B50021002200241B
:1010800000232D4D6D6805F00C0121B1042905D018
:10109000082923D105E0294D056022E0274D056090
:1010A0001FE0254D6D6805F47012234D6D6805F441
:1010B0008034022505EB92421CB9214D5543056051
:1010C0000BE01D4D6D6805F400351DB11C4D5543F9
:1010D000056002E0194D5543056002E0174D0560BB
:1010E00000BF00BF144D6D6805F0F0010909154DF2
:1010F0006B5C0568DD4045600F4D6D6805F4E0618F
:10110000090A104D6B5C4568DD4085600A4D6D68CD
:1011100005F46051C90A0B4D6B5C4568DD40C56044
:10112000054D6D6805F44041890B074D6B5CC56842
:10113000B5FBF3F5056130BD0010024000127A00E6
:1011400000093D00000000201000002010B500F054
:1011500001F810BD0CB500200190009033480068E4
:1011600040F480303149086000BF3048006800F426
:10117000003000900198401C0190009818B9019827
:10118000B0F5A06FF1D12948006800F4003010B12B
:101190000120009001E0002000900098012843D138
:1011A0002348006840F010002149086008460068A4
:1011B00020F0030008600846006840F00200086064
:1011C0001A4840681949486008464068486008461F
:1011D000406840F4806048600846406820F47C1015
:1011E00048600846406840F4E810486008460068D7
:1011F00040F08070086000BF0C48006800F000708C
:101200000028F9D00948406820F0030007494860E9
:101210000846406840F00200486000BF034840684C
:1012200000F00C000828F9D10CBD000000100240AD
:101230000020024070474FF0E020006920F00400D9
:101240004FF0E0210861704710B500214FF4FE70A7
:10125000FFF702FF01210807FFF7DEFE0120FFF77D
:10126000C5FEFFF789FE10BD10B501210807FFF785
:10127000D3FE01210020FFF799FE10BD10B51348E1
:10128000006840F0010011490860084640681049B4
:1012900008400E494860084600680E4908400B495E
:1012A00008600846006820F480200860084640680E
:1012B00020F4FE0048604FF41F008860FFF746FFEF
:1012C0004FF000600449086010BD000000100240AB
:1012D0000000FFF8FFFFF6FE08ED00E010B586B055
:1012E0000446012144F20400FFF7A6FE4FF400700B
:1012F000ADF8140018208DF8170003208DF81600A3
:1013000005A91B48FFF77AFA4FF48060ADF8140086
:1013100004208DF8170003208DF8160005A9144845
:10132000FFF76CFA01940020ADF80800ADF80A0050
:10133000ADF80C00ADF810000C20ADF80E0001A9BE
:101340000C4800F025F825208DF8000003208DF8CA
:1013500001008DF8020001208DF803006846FFF7B8
:10136000C9FD0121034800F007F806B010BD0000D8
:10137000000801400038014021B1828942F4005246
:10138000828104E082894DF6FF731A4082817047A2
:101390002DE9F04786B005460E460024A24600BF60
:1013A000A1460027B08900B100BF2F462C8A4CF619
:1013B000FF700440F08804432C82AC894EF6F31091
:1013C0000440B08831890843718908430443AC81E3
:1013D000AC8A4FF6FF400440B0890443AC8201A8B8
:1013E000FFF74AFE1F48874202D1DDF810A001E056
:1013F000DDF80CA0A88900F4004040B10AEBCA0057
:1014000000EB0A1031684900B0FBF1F807E00AEB85
:10141000CA0000EB0A1031688900B0FBF1F86420C3
:10142000B8FBF0F004012009642101FB1089A889B0
:1014300000F4004040B1322000EBC900B0FBF1F0F5
:1014400000F00700044308E0322000EB091064219B
:10145000B0FBF1F000F00F0004432C8106B0BDE8B2
:10146000F08700000038014000BFFEE7014600BFE2
:101470007047FF214FF0E022916142F22831414351
:1014800051611146096941F00101116100BF4FF03E
:10149000E021096901F480310029F8D04FF0E02102
:1014A000096921F001014FF0E022116170474FF40A
:1014B000FA6200FB02F100BF0A1EA1F10101FBD19B
:1014C000704730B503460025B3F5E96F03DC1846D5
:1014D000FFF7CFFF15E004E0A3F5E96083B2681CD5
:1014E000C5B2B3F5E96FF7DA002405E04FF4E9601F
:1014F000FFF7BFFF601CC4B2AC42F7DB1846FFF732
:10150000B8FF30BD00BF054A128802F04002002A31
:10151000F9D0C2B2014B1B1D1A8070470038014040
:1015200008B500244FF4A060FFF71CFD4FF4E13034
:10153000FFF7D4FEFFF77FFEFFF7FAF9FFF77AFC1B
:10154000FFF7B0FAFFF7A0FC20211748FFF7ECF9EE
:1015500020211648FFF7E8F941F28830FFF7A7FF8E
:101560004FF4784032231A46282100901846FFF79E
:101570002DFA18E021460EA0FEF74EFE641C202135
:101580000A48FFF7D1F941F28830FFF790FF202198
:101590000648FFF7C7F941F28830FFF788FF062CAD
:1015A00001D1FFF761FEE5E7000C014000180140A2
:1015B0006E756D3A2025640D0A000000DC150008E8
:1015C00000000020180000006C010008F41500085D
:1015D00018000020700600008801000800000000CC
:1015E00001020304010203040607080902040608B5
:0415F00000000000F7
:0400000508000131BD
:00000001FF
