:020000040800F2
:1000000048070020390200084102000843020008A6
:1000100045020008470200084902000800000000ED
:100020000000000000000000000000004B0200087B
:100030004D020008000000004F02000851020008B5
:10004000530200085302000853020008530200083C
:100050005302000853020008F50500085302000887
:10006000530200085302000853020008530200081C
:10007000530200085302000853020008530200080C
:100080005302000853020008A505000853020008A7
:100090005302000853020008530200085D060008DE
:1000A00031100008530200085302000853020008F0
:1000B00053020008530200085302000853020008CC
:1000C00053020008530200085302000853020008BC
:1000D00053020008A112000853020008530200084E
:1000E000530200085302000853020008530200089C
:1000F000530200085302000853020008530200088C
:100100005302000853020008E110000853020008DF
:100110005302000853020008A9110008D511000875
:10012000530200085302000853020008530200085B
:10013000530200085302000853020008530200084B
:10014000530200085302000853020008530200083B
:10015000530200085302000853020008530200082B
:10016000530200085302000853020008530200081B
:10017000530200085302000853020008530200080B
:10018000530200085302000800F002F800F044F89F
:100190000AA090E8000C82448344AAF10107DA45E2
:1001A00001D100F039F8AFF2090EBAE80F0013F0F0
:1001B000010F18BFFB1A43F0010318473015000068
:1001C00050150000103A24BF78C878C1FAD85207F9
:1001D00024BF30C830C144BF04680C6070470000C1
:1001E0000023002400250026103A28BF78C1FBD840
:1001F000520728BF30C148BF0B607047642900F028
:10020000A780732900F04F81002070471FB501F0CF
:1002100063FA1FBD10B510BD00F078F91146FFF765
:10022000F5FF01F00DFA00F096F903B4FFF7F2FFC5
:1002300003BC01F0A8F900000948804709480047BD
:10024000FEE7FEE7FEE7FEE7FEE7FEE7FEE7FEE786
:10025000FEE7FEE704480549054A064B70470000E3
:10026000C90F000889010008480100204807002044
:100270004803002048030020704700000FB40449E1
:1002800010B503AA029800F013F910BC5DF814FB36
:10029000000000202DE9F0410E46044600202062B7
:1002A0002046E168884730B3252805D0D4E90121EC
:1002B0009047206A401CF2E7E16820460027884703
:1002C000050018D0A5F14100192802D820354FF4B7
:1002D00000673246294620462760FFF78FFF40B16E
:1002E000012804D0F61D26F007060836D8E7361D8B
:1002F000D6E72846DAE7206ABDE8F08170B50C46FB
:100300000546012A05D02878800600D5EA69002331
:1003100002E0012305E05B1C934202D2E05C00286E
:10032000F9D1A869E618C01AA861286A1844286299
:100330002846AFF3008004E0D5E9012114F8010B51
:100340009047B442F8D32846AFF3008070BD000058
:100350002DE9F0410646002410687529314616A59E
:1003600010D0AFF30080002802DA404213A507E066
:1003700031688A0701D512A502E0490704D511A505
:10038000012401E0AFF3008000210A2206F12407D6
:1003900009E0B0FBF2FCB0FBF2F302FB1C003030D2
:1003A00078541846491C0028F3D123462A46304683
:1003B000BDE8F04100F00CB8000000002D00000086
:1003C0002B00000020000000704770477047704706
:1003D0002DE9F0470D4699469246044600F124085F
:1003E0000168880604D5E06921F01001216000E071
:1003F0000120A84201DD471B00E00027A1697A190E
:1004000002EB0900081AA0612078C00602D4204639
:10041000AFF30080002608E0D4E901211AF80600B5
:100420009047206A401C761C20624E45F4DB207801
:10043000C0060AD52046AFF3008006E0D4E90121CA
:1004400030209047206A401C2062381EA7F1010727
:10045000F4DC07E0D4E9012118F805009047206A90
:10046000401C2062281EA5F10105F3DC2046AFF3F5
:1004700000802078000602D50220BDE8F087012028
:10048000FBE710B5436913B1AFF3008001E0FFF75C
:1004900035FF012010BD127800F124010A700022FE
:1004A0004A700122EDE711684FF0FF32E9E70000E2
:1004B000074B70B50D467B4400F011F80446284602
:1004C00000F020F810B14FF0FF3070BD204670BD35
:1004D0006B11000001694A1C02610878704700B581
:1004E0008FB0CDE901310021059105497944CDE96D
:1004F000031011466846FFF7CDFE0FB000BD0000A7
:10050000E5FFFFFF007B00F080007047754600F0BC
:1005100029F8AE4605006946534620F00700854697
:1005200018B020B5FFF796FEBDE820404FF000065A
:100530004FF000074FF000084FF0000B21F00701CB
:10054000AC46ACE8C009ACE8C009ACE8C009ACE80E
:10055000C0098D4670470446AFF300802046FFF780
:1005600064FE000000487047E800002000220A12E4
:10057000D343036070470146C86C80B2704770B5C2
:1005800002460020002300240B12556801268E40ED
:1005900005EA060415681D4015B10CB1012000E004
:1005A000002070BD10B540F205210B48FFF7E7FFB2
:1005B000012807D10848FFF7DEFF0446214607A0BF
:1005C000FFF75CFE40F205210348FFF7CFFF02482A
:1005D00000F00AF810BD0000002001406461746161
:1005E0003A25640D0A000000816841F08041816075
:1005F0007047000010B5012000F05AF8012823D1FF
:100600000A2000F0E1FF1148006900F00100D8B1B4
:100610000F48006840F001000D4908600D4800686F
:1006200080F040000B4908600846006880F40070C4
:1006300008600846006880F480600860064800682A
:1006400080F001000449086010BD00000000024075
:10065000143C0140141402401408024010B520203C
:1006600000F026F801281BD10E48006840F0200059
:100670000C4908600C48006880F040000A49086096
:100680000846006880F4007008600846006880F43E
:10069000806008600548006880F001000349086038
:1006A00010BD0000143C0140141402401408024024
:1006B00001460020034A12680A400AB1012000E006
:1006C00000207047143C0140F0B50A460021002389
:1006D000002400BF3DE0012505FA01F3156805EA95
:1006E00003049C4234D105684F000326BE40B54345
:1006F000056015794E00B5400668354305601579EB
:10070000012D02D01579022D16D185684F000326E0
:10071000BE40B543856055794E00B5408668354387
:100720008560456801268E40B543456045689679E9
:100730008E40B6B235434560C5684F000326BE40C3
:10074000B543C560D5794E00B540C6683543C56030
:10075000491C1029BFD3F0BDF0B5002300244D077C
:10076000ED0E02FA05F3CE1000F1200555F82650E3
:100770004E07F70E0F26BE40B543CF1000F12006FE
:1007800046F82750CE1000F1200555F8265045EACE
:100790000304CE1000F1200545F82640F0BD13B546
:1007A00084B00121080700F097F8012000F07EF8DE
:1007B000002000F04BFAFF2830D04FF4807000F09A
:1007C0005BF9012000F03CF900BF412000F018F96E
:1007D0000028FAD0012000F049F97F200290FF2084
:1007E00003900020019001A800F0FEF99DF8173059
:1007F0009DF816209DF815109DF8140000F014FBCC
:100800009DF813309DF812209DF811109DF81000EE
:1008100000F0F8FAFF21002000F048FB06B010BD00
:1008200070B5002100230F22C4781CB3174C246834
:1008300004F4E064C4F5E064C4F30721C1F10404E6
:10084000E3B20A4144789C40E1B2847814402143E9
:100850000C07210E0E4C05786155047804F01F0535
:100860000124AC4005786D11AD0005F1E025C5F817
:10087000004109E0047804F01F050124AC40054D57
:100880000678761145F8264070BD00000CED00E0BA
:1008900000E400E080E100E002490143024A116007
:1008A000704700000000FA050CED00E00149086205
:1008B0007047000000000E4229B1064A1268024348
:1008C000044B1A6004E0034A12688243014B1A6029
:1008D000704700003038024029B1064A12680243CE
:1008E000044B1A6004E0034A12688243014B1A6009
:1008F000704700004038024029B1064A126802439E
:10090000044B1A6004E0034A12688243014B1A60E8
:100910007047000044380240F0B500210022002456
:10092000022500260223324F3F6807F00C0121B157
:10093000042905D0082937D105E02E4F076036E09D
:100940002D4F076033E02A4F3F1F3F68C7F38056A3
:10095000274F3F1F3F6807F03F036EB1264FB7FB9D
:10096000F3F7DFF88CC0ACF1040CDCF800C0CCF37A
:10097000881C07FB0CF40CE01E4FB7FBF3F7DFF805
:1009800070C0ACF1040CDCF800C0CCF3881C07FB91
:100990000CF4174F3F1F3F68C7F301477F1C7D00D2
:1009A000B4FBF5F7076002E0124F076000BF00BF1D
:1009B0000F4F3F6807F0F0010909104F7A5C076894
:1009C000D74047600A4F3F6807F4E051890A0B4F50
:1009D0007A5C4768D7408760054F3F6807F46041FD
:1009E000490B064F7A5C4768D740C760F0BD0000EE
:1009F000083802400024F40040787D0110000020F7
:100A000010B501460022002300204A11012A02D11C
:100A10000A4C236808E0022A03D1084C703423688A
:100A200002E0064C7434236801F01F020124944054
:100A30001C400CB1012000E0002010BD0038024035
:100A40000021094A11701170012802D0042808D130
:100A500003E00121044A117004E00521024A1170EB
:100A600000E000BF00BF70477038024001490860D5
:100A7000704700003C0E4742002100F44072B2F57E
:100A8000407F08D1094A116821F4F811084A024050
:100A90001143064A1160054A68321268C0F30B031D
:100AA0001A43024B68331A6070470000083802404E
:100AB000FFFCFF0F014600BF080900EB8000420069
:100AC00001F00F001044C0B270470146002204E05C
:100AD000501CC2B2A1F10A00C1B20A29F8DA10070B
:100AE00041EA10607047000008B500220092002023
:100AF0000021104A126802F04002CAB9421E0D4B92
:100B00001A6000BF0B4A126802F04001009A521CA2
:100B10000092009AB2F5803F01D00029F2D0054A38
:100B2000126802F040020AB1012002E0002000E059
:100B3000012008BD0C2800400348006820F0800018
:100B400001490860704700000C28004070B5064657
:100B50000C4600250E4800680E4900EA0105280CE5
:100B6000E070C5F30420607005F03F00A070C5F38D
:100B7000423020705EB9E078FFF79CFFE07060784B
:100B8000FFF798FF6070A078FFF794FFA07070BD2A
:100B9000042800403FFFFF0070B506460C460025C4
:100BA0000F4800680F4900EA0105C5F305402070B1
:100BB000C5F30620607005F07F00A07005F480008A
:100BC000000CE0705EB92078FFF774FF2070607849
:100BD000FFF770FF6070A078FFF76CFFA07070BD2A
:100BE000002800407F7F7F0030B504460025CA20E2
:100BF0001549086053200860FFF776FF00B91DE033
:100C000011481C38006820F040000F491C3908606A
:100C100008460068216808430B491C3908600A49E6
:100C20001439A068086008460068A18840EA0140BD
:100C3000054914390860FFF77FFF0125FF200249AD
:100C40000860284630BD00002428004008B5014651
:100C50000020009004480090009800EB8100009074
:100C60000098006808BD0000502800402DE9F041C0
:100C700005460C46002600274DB9607800F01000AC
:100C8000102804D1607820F010000A30607005B997
:100C900008E06078FFF70EFF0646A078FFF70AFF2E
:100CA000064600BF55B1E0780004617840EA0120B3
:100CB000A1780843217840EA413611E0E078FFF757
:100CC00004FF4FEA00486078FFF7FFFE48EA00287B
:100CD000A078FFF7FAFE48EA0008207848EA403694
:100CE000CA201249086053200860FFF7FDFE08B9CA
:100CF000002714E00E4830400C4920390860FFF707
:100D00001BFF0A481C38006800F0200030B900F0D2
:100D10009DF808B9002702E0012700E00127FF2025
:100D2000024908603846BDE8F081000024280040F0
:100D30003FFFFF002DE9F04105460C460026002745
:100D40004DB92E48006800F0400000B102E00020DC
:100D5000E07000BF0DE02948006800F0400020B1BD
:100D60002078FFF7A7FE064602E00020E07000BFF3
:100D700000BF55B120780004617840EA0120A178D5
:100D80000843E17840EA014611E02078FFF79DFE34
:100D90004FEA00486078FFF798FE48EA0028A078FC
:100DA000FFF793FE48EA0008E07848EA0046CA20C8
:100DB00012491C31086053200860FFF795FE08B9FE
:100DC000002713E00E4830400C4908390860FFF74F
:100DD000B3FE0A48006800F0200030B900F036F891
:100DE00008B9002702E0012700E00127FF2003499E
:100DF0001C3108603846BDE8F0810000082800403A
:100E00007F7F7F00F8B504460D4617461E468DF8D5
:100E100002708DF801508DF800608DF8034069462E
:100E20000020FFF723FFF8BDF8B504460D4616462F
:100E30001F468DF800408DF801508DF802608DF846
:100E4000037069460020FFF775FFF8BD08B5002262
:100E5000009200200021CA22134B1A6053221A600C
:100E6000114A183A126822F0A0020F4B183B1A6080
:100E700000BF0D4A183A126802F02001009A521C75
:100E80000092009AB2F5003F01D00029F1D0064A45
:100E9000183A126802F020020AB1012000E0002096
:100EA000FF22014B1A6008BD2428004008B500222B
:100EB0000092044A0092009A02EB80020092009A8B
:100EC000116008BD502800400CB500200190009032
:100ED0003448006840F480303249086000BF31482F
:100EE000006800F4003000900198401C01900098C8
:100EF00018B90198B0F5A04FF1D12A48006800F464
:100F0000003010B10120009001E000200090009816
:100F1000012846D123484030006840F080502149E4
:100F2000403108602048006840F440401E49086095
:100F30001C48083000681B490831086008460068F2
:100F400040F4004008600846006840F4A050086083
:100F50001648091F0860081F006840F08070091FCC
:100F6000086000BF0F48006800F000700028F9D04A
:100F700040F205700E4908600A480830006820F009
:100F800003000849083108600846006840F0020084
:100F9000086000BF03480830006800F00C00082813
:100FA000F8D10CBD003802400070004019544007D1
:100FB000003C02404FF0E020006920F004004FF0B8
:100FC000E02108617047000010B51548006840F442
:100FD0007000134908601348006840F0010011498F
:100FE000086000200F49083108600E4800680E496B
:100FF00008400C4908600D48091D0860081F00687A
:1010000020F48020091F0860002006490C31086088
:10101000FFF75AFF4FF0006001498039086010BDAA
:1010200088ED00E000380240FFFFF6FE103000249B
:1010300070B504211D4800F016F940B104211B4889
:1010400000F008F9194800F00BF91949088002214D
:10105000164800F008F940B30221144800F0FAF8ED
:101060004FF40071114800F0F5F8104800F0F5F861
:1010700084B20F48008800EE100AF8EE400A00EE35
:10108000104AB8EE401A80EE810ADFED0A0A20EE1F
:10109000200ABCEEC00A10EE100A85B22B460448A6
:1010A0000288214604A0FFF7E9F870BD0040014026
:1010B0000E0000200000C842D6DCC6DAA3BA2564C0
:1010C000202020B8DFB5E7C6BDA3BA2564202020C4
:1010D000D5BCBFD5B1C8A3BA256425250D0A00002B
:1010E00070B50121284800F0BEF858B1012126480A
:1010F00000F0B0F82548007820B125480088401C51
:10110000234908800221204800F0ADF800283AD099
:1011100002211D4800F09EF81B482030008800F096
:10112000020060B9012019490870174800F095F8CD
:10113000184908800221144800F0A6F823E012485C
:101140002030008800F00200E8B10F4800F085F878
:1011500086B20F480088C0EB00400E490988401A4B
:10116000304484B20A2094FBF0F085B229460AA0EC
:10117000FFF784F800200649088004490870002120
:10118000014800F081F870BD000C00400A0000200A
:10119000080000200C000020C2F6B3E5BFEDB6C881
:1011A000A3BA25640D0A000010B50121074800F01C
:1011B0005AF8012809D10121044800F04BF80448ED
:1011C000006880F4C8600249086010BD001000404B
:1011D0001414024010B501211A4800F044F8012807
:1011E0002ED10121174800F035F81748007880B952
:1011F0001648008818B901201349087004E0134804
:10120000008832381149088010480188104800F0E1
:1012100044F80D480078012812D10C480088B0F538
:101220007A7F03D100200849087004E0074800884D
:1012300032300649088005480188054800F02DF83D
:1012400010BD000000140040050000200600002032
:1012500000440140CA43028270470146486B704710
:101260000146886B704730B50246002000230024F9
:10127000158A05EA0103958905EA010413B10CB149
:10128000012000E0002030BD0A460021018C4FF60D
:10129000FD7319401143018470474163704700009A
:1012A00010B52021144800F0A3F801280BD11248F2
:1012B00000F064F91149124A1278885410480078F5
:1012C000401C0F49087040F224410B4800F09DF883
:1012D00001280FD108480088074880880021074866
:1012E000074A12788154014606A0FEF7C7FF002086
:1012F0000349087010BD00000010014020000020CC
:1013000004000020C4E3B7A2CBCDB5C4CAFDBEDD46
:10131000CAC7A3BA25730D0A0000000010B588B033
:10132000044601210846FFF7C7FA01211020FFF704
:10133000E3FA4FF4C060069002208DF81C000120F3
:101340008DF81F0000208DF81E0002208DF81D0072
:1013500006A91F48FFF7B8F9072209211C48FFF723
:10136000FBF907220A211A48FFF7F6F90294002038
:10137000ADF80C00ADF80E00ADF81000ADF814009B
:101380000C20ADF8120002A9124800F08DF80122DD
:1013900040F225510F4800F062F8012240F224414A
:1013A0000C4800F05CF825208DF8040003208DF82F
:1013B00005008DF8060001208DF8070001A8FFF751
:1013C0002FFA0121034800F007F808B010BD000013
:1013D000000002400010014021B1828942F4005215
:1013E000828104E082894DF6FF731A408281704742
:1013F00002460020B1F5007F00D100BF13880B40EA
:101400000BB1012000E00020704770B502460024B7
:1014100000230025002040F66A16B14200D100BF2B
:10142000C1F3421501F01F03012606FA03F3012D53
:1014300002D19689334006E0022D02D1168A33404C
:1014400001E0968A33400C12012606FA04F416884D
:10145000344013B10CB1012000E0002070BDF0B5A4
:101460000346002400260025002040F66A17B942F2
:1014700000D100BF1846C1F3421401F01F06012736
:1014800007FA06F5012C01D10C3004E0022C01D141
:10149000103000E014301AB107682F43076002E0F3
:1014A0000768AF430760F0BD2DE9FF4705460E46CC
:1014B0000024A14600BFA046B08900B100BF2C8A1D
:1014C00024F44054F08804432C82AC8941F20C602F
:1014D0008443B08831890843718908430443AC814F
:1014E000AC8A24F44074B0890443AC826846FFF7A8
:1014F00013FA2048854202D01F48854202D1DDF808
:101500000C9001E0DDF80890A88900F4004040B19B
:1015100009EBC90000EB091031684900B0FBF1F795
:1015200007E009EBC90000EB091031688900B0FB46
:10153000F1F76420B7FBF0F004012009642101FBFE
:101540001078A88900F4004040B1322000EBC800B8
:10155000B0FBF1F000F00700044308E0322000EB9C
:1015600008106421B0FBF1F000F00F0004432C815F
:10157000BDE8FF8700100140001401400146888843
:10158000C0F308007047014600BF7047FF214FF0CD
:10159000E022916145F208214143516111460969F8
:1015A00041F00101116100BF4FF0E021096901F430
:1015B00080310029F8D04FF0E021096921F00101C4
:1015C0004FF0E0221161704701464AF2104201FBE0
:1015D00002F000E0401E0028FCD1704730B5034601
:1015E000002540F21E30834203DC1846FFF7CEFF91
:1015F00016E004E0A3F21E3083B2681CC5B240F2CC
:101600001E308342F6DA002405E040F21E30FFF778
:10161000BDFF601CC4B2AC42F7DB1846FFF7B6FF53
:1016200030BD000000BF054A128802F04002002AC7
:10163000F9D0C2B2014B9A807047000000100140FF
:1016400086B01A4903C9CDE90401FFF7B3FC4FF492
:10165000E130FFF763FE4FF4A060FFF71DF9DDE90D
:101660000401FFF79CF820E003A90020FFF794FA9B
:1016700002A90020FFF76AFA9DF8080000909DF883
:101680000A309DF809209DF80B1009A0FEF7F6FD21
:101690009DF80E309DF80D209DF80C100AA0FEF765
:1016A000EDFD4FF47A70FFF799FFDDE7E4160008CF
:1016B00032302564C4EA2564D4C22564C8D520D05C
:1016C000C7C6DA25640D0A002564203A2025642067
:1016D0003A2025640D0A00004FF04070E1EE100A38
:1016E00070470000130C0A060C1414000C170008B5
:1016F0000000002020000000C40100082C17000892
:101700002000002028070000E00100080000000081
:101710000000F401000000000000000000000000D4
:0C1720000102030401020304060708098B
:040000050800018965
:00000001FF
