:020000040800F2
:100000007806002031020008DB060008D30600084D
:10001000D7060008DD0500086D0C00080000000090
:1000200000000000000000000000000009080008B7
:10003000E105000800000000DD060008F9080008DE
:100040004B0200084B0200084B0200084B0200085C
:100050004B0200084B0200084B0200084B0200084C
:100060004B0200084B0200084B0200084B0200083C
:100070004B0200084B0200084B0200084B0200082C
:100080004B0200084B0200084B0200084B0200081C
:100090004B0200084B0200084B0200084B0200080C
:1000A0004B0200084B0200084B0200084B020008FC
:1000B0004B0200084B0200084B0200084B020008EC
:1000C0004B0200084B0200084B0200084B020008DC
:1000D0004B0200084B0200084B0200084B020008CC
:1000E0004B0200084B0200084B0200084B020008BC
:1000F0004B0200084B0200084B0200084B020008AC
:100100004B0200084B0200084B0200084B0200089B
:100110004B0200084B0200084B0200084B0200088B
:100120004B0200084B0200084B0200084B0200087B
:100130004B0200084B0200084B0200084B0200086B
:100140004B0200084B0200084B0200084B0200085B
:100150004B0200084B0200084B0200084B0200084B
:100160004B0200084B0200084B0200084B0200083B
:100170004B0200084B0200084B0200084B0200082B
:100180004B0200084B02000800F002F800F041F8B2
:100190000AA090E8000C82448344AAF10107DA45E2
:1001A00001D100F036F8AFF2090EBAE80F0013F0F3
:1001B000010F18BFFB1A43F0010318477C0B000026
:1001C0009C0B0000103A24BF78C878C1FAD85207B7
:1001D00024BF30C830C144BF04680C6070470000C1
:1001E0000023002400250026103A28BF78C1FBD840
:1001F000520728BF30C148BF0B607047642900F028
:100200006D80002070471FB500F090FD1FBD10B538
:1002100010BD00F0B1F91146FFF7F5FF00F05EFDEB
:1002200000F0CFF903B4FFF7F2FF03BC00F027FDA5
:100230000948804709480047FEE7FEE7FEE7FEE77A
:10024000FEE7FEE7FEE7FEE7FEE7FEE704480549B6
:10025000054A064B70470000110900088901000893
:100260007800002078060020780200207802002024
:10027000704700000FB4044910B503AA029800F0BB
:100280004DF910BC5DF814FB0000002070B5044669
:1002900085690068C10601D5302600E02026C00728
:1002A00007D070BDD4E9012130469047206A401C38
:1002B00020626D1EF6D570BD70B504468569007864
:1002C000C00707D170BDD4E9012120209047206AE2
:1002D000401C20626D1EF6D570BD00002DE9F04176
:1002E0000646002410687529314616A510D0AFF3D4
:1002F0000080002802DA404213A507E031688A072F
:1003000001D512A502E0490704D511A5012401E099
:10031000AFF3008000210A2206F1240709E0B0FBB8
:10032000F2FCB0FBF2F302FB1C00303078541846AC
:10033000491C0028F3D123462A463046BDE8F04147
:1003400000F093B8000000002D0000002B0000001A
:10035000200000002DE9F0474FF0000A89460446CE
:10036000C0F820A02046E1688847002876D02528DC
:1003700006D0D4E901219047206A401C2062F1E7B1
:10038000E168204600258847C4F81CA006460027DF
:10039000C4F818A02A2E09D0304600F069FC38B302
:1003A00004EB8708303EC8F8186019E059F8041BC0
:1003B000204604EB87029161E1688847012F0646D9
:1003C00018D1E069002820DA25F020051DE0D8F8D2
:1003D000180000EB800006EB40003038C8F8180029
:1003E0002046E1688847064600F042FC0028EED12E
:1003F000012F0AD02E2E08D12046E16888477F1CA5
:100400000646022F45F02005C4DBA069002803DA68
:10041000404245F00105A061E80701D025F0100534
:10042000B6B1A6F14100192802D8203645F400657E
:100430004A463146204625604D46FFF7DFFE58B15B
:10044000012806D0ED1D25F0070000F1080989E715
:1004500004E005F1040985E730468AE7206ABDE833
:10046000F08770477047704770472DE9F0470D4699
:1004700099469246044600F124080168880604D58E
:10048000E06921F01001216000E00120A84201DDB7
:10049000471B00E00027A1697A1902EB0900081A3E
:1004A000A0612078C00602D42046FFF7EFFE0026A8
:1004B00008E0D4E901211AF806009047206A401CA0
:1004C000761C20624E45F4DB2078C0060AD5204613
:1004D000FFF7DCFE06E0D4E9012130209047206AD6
:1004E000401C2062381EA7F10107F4DC07E0D4E9C4
:1004F000012118F805009047206A401C2062281E40
:10050000A5F10105F3DC2046FFF7D6FE20780006B2
:1005100002D50220BDE8F0870120FBE7074B70B54C
:100520000D467B4400F011F80446284600F020F800
:1005300010B14FF0FF3070BD204670BD9B0700002A
:1005400001694A1C02610878704700B58FB0CDE997
:1005500001310021059105497944CDE90310114687
:100560006846FFF7F7FE0FB000BD0000E5FFFFFF94
:10057000007B00F080007047754600F02BF8AE4617
:1005800005006946534620F00700854618B020B59F
:10059000FFF75CFEBDE820404FF000064FF000077B
:1005A0004FF000084FF0000B21F00701AC46ACE81B
:1005B000C009ACE8C009ACE8C009ACE8C0098D4688
:1005C000704710B50446AFF300802046BDE81040E8
:1005D000FFF728BE004870471400002000BFFEE768
:1005E0007047F0B50A4600210023002400BF3DE01B
:1005F000012505FA01F3156805EA03049C4234D18C
:1006000005684F000326BE40B543056015794E00CE
:10061000B5400668354305601579012D02D015797E
:10062000022D16D185684F000326BE40B543856074
:1006300055794E00B540866835438560456801268A
:100640008E40B5434560456896798E40B6B23543D5
:100650004560C5684F000326BE40B543C560D579E7
:100660004E00B540C6683543C560491C1029BFD34C
:10067000F0BDF0B5002300244D07ED0E02FA05F39E
:10068000CE1000F1200555F826504E07F70E0F2624
:10069000BE40B543CF1000F1200646F82750CE10DB
:1006A00000F1200555F8265045EA0304CE1000F16C
:1006B000200545F82640F0BD0246002013690B4096
:1006C0000BB1012000E00020704741837047018397
:1006D000704700BFFEE700BFFEE7704770470000AD
:1006E00029B1064A12680243044B1A6004E0034A27
:1006F00012688243014B1A60704700003038024094
:1007000029B1064A12680243044B1A6004E0034A06
:1007100012688243014B1A6070470000443802405F
:10072000F0B5002100220024022500260223324FCA
:100730003F6807F00C0121B1042905D0082937D101
:1007400005E02E4F076036E02D4F076033E02A4F5B
:100750003F1F3F68C7F38056274F3F1F3F6807F092
:100760003F036EB1264FB7FBF3F7DFF88CC0ACF157
:10077000040CDCF800C0CCF3881C07FB0CF40CE084
:100780001E4FB7FBF3F7DFF870C0ACF1040CDCF8D8
:1007900000C0CCF3881C07FB0CF4174F3F1F3F68C9
:1007A000C7F301477F1C7D00B4FBF5F7076002E04B
:1007B000124F076000BF00BF0F4F3F6807F0F00106
:1007C0000909104F7A5C0768D74047600A4F3F68B5
:1007D00007F4E051890A0B4F7A5C4768D74087607D
:1007E000054F3F6807F46041490B064F7A5C476844
:1007F000D740C760F0BD0000083802400024F40074
:1008000000127A0004000020704700000CB50020A0
:10081000019000903448006840F48030324908600C
:1008200000BF3148006800F4003000900198401C7F
:100830000190009818B90198B0F5A04FF1D12A485D
:10084000006800F4003010B10120009001E00020A9
:1008500000900098012846D123484030006840F0BD
:1008600080502149403108602048006840F44040F1
:100870001E4908601C48083000681B4908310860A0
:100880000846006840F4004008600846006840F4EC
:10089000A05008601648091F0860081F006840F053
:1008A0008070091F086000BF0F48006800F00070EA
:1008B0000028F9D040F205700E4908600A48083057
:1008C000006820F003000849083108600846006805
:1008D00040F00200086000BF03480830006800F0E4
:1008E0000C000828F8D10CBD003802400070004010
:1008F00008544007003C0240704700204FF0E021C0
:1009000008610846006920F0040008617047000093
:1009100010B51548006840F470001349086013488A
:10092000006840F001001149086000200F490831BB
:1009300008600E4800680E4908400C4908600D48E0
:10094000091D0860081F006820F48020091F086046
:10095000002006490C310860FFF758FF4FF0006097
:1009600001498039086010BD88ED00E00038024080
:10097000FFFFF6FE1030002470B5054600264FF448
:1009800000613648FFF7A1FE4FF400513448FFF7ED
:100990009CFE00241CE001213248FFF796FE05F082
:1009A000800028B14FF400612C48FFF790FE04E06E
:1009B0004FF400612948FFF788FE6806050E012103
:1009C0002848FFF784FE012000F05BF9601CC4B2E8
:1009D000082CE0DB01212348FFF777FE4FF400618C
:1009E0001E48FFF772FE062000F04BF901211D485A
:1009F000FFF76BFE012000F044F901211948FFF7D1
:100A000066FE012000F03DF900241AE04FF6FF7069
:100A100000EA460601211348FFF757FE012000F0C7
:100A200030F901210F48FFF752FE04210D48FFF76E
:100A300043FE08B146F00106012000F022F9601CD7
:100A4000C4B20C2CE2DB4FF400510548FFF73FFE27
:100A500001210448FFF739FE304670BD0014024002
:100A600000080240000402401CB501212620FFF7C7
:100A700037FE0620009000208DF804008DF8060057
:100A800003208DF8050001208DF8070069461748FE
:100A9000FFF7A7FD012000908DF804006946134878
:100AA000FFF79FFD4FF40050009001208DF80400E7
:100AB00069460F48FFF795FD4FF400600090012054
:100AC0008DF8040069460B48FFF78BFD4FF4005189
:100AD0000748FFF7FCFD01210448FFF7F6FD4FF43E
:100AE00000610448FFF7F1FD1CBD00000004024056
:100AF000000802400014024010B586B004460121EF
:100B00000846FFF7EDFD01211020FFF7F9FD4FF436
:100B1000C060049002208DF8140001208DF81700A9
:100B200000208DF8160003208DF8150004A9124846
:100B3000FFF757FD072209210F48FFF79AFD07220B
:100B40000A210D48FFF795FD00940020ADF8040040
:100B5000ADF80600ADF80800ADF80C000C20ADF8BB
:100B60000A006946054800F017F80121034800F023
:100B700007F806B010BD0000000002400010014060
:100B800021B1828942F40052828104E082894DF6CB
:100B9000FF731A40828170472DE9FF4705460E46D4
:100BA0000024A14600BFA046B08900B100BF2C8A36
:100BB00024F44054F08804432C82AC8941F20C6048
:100BC0008443B08831890843718908430443AC8168
:100BD000AC8A24F44074B0890443AC826846FFF7C1
:100BE0009FFD2048854202D01F48854202D1DDF892
:100BF0000C9001E0DDF80890A88900F4004040B1B5
:100C000009EBC90000EB091031684900B0FBF1F7AE
:100C100007E009EBC90000EB091031688900B0FB5F
:100C2000F1F76420B7FBF0F004012009642101FB17
:100C30001078A88900F4004040B1322000EBC800D1
:100C4000B0FBF1F000F00700044308E0322000EBB5
:100C500008106421B0FBF1F000F00F0004432C8178
:100C6000BDE8FF87001001400014014000BFFEE70F
:100C700030380A2801D2012070470020704700BF99
:100C80007047FF214FF0E0229161C0EBC00101EB02
:100C9000410151611146096941F00101116100BF33
:100CA0004FF0E021096901F480310029F8D04FF0BC
:100CB000E021096921F001014FF0E0221161704744
:100CC00000BF054A128802F04002002AF9D0C2B2E1
:100CD000014B9A807047000000100140002400255D
:100CE000FFF70BFE4FF4E130FFF706FFFFF7BCFE06
:100CF00011E002210848FFF7DFFC60B9D020FFF7C0
:100D00003BFE04469020FFF737FE05462A46214663
:100D100002A0FFF7AFFAECE700040240783A25346E
:100D200064202020793A2534640D0A004FF0407089
:100D3000E1EE100A70470000580D00080000002086
:100D400014000000C40100086C0D0008140000200D
:100D500064060000E0010008000000000000000040
:0C0D600001020304010203040607080955
:040000050800018965
:00000001FF
