:020000040800F2
:1000000078060020290200083102000833020008A7
:10001000350200083702000839020008000000001D
:100020000000000000000000000000003B0200088B
:100030003D020008000000003F02000841020008E5
:10004000430200084302000843020008430200087C
:10005000430200084302000871030008430200083D
:10006000430200084302000843020008430200085C
:10007000430200084302000843020008430200084C
:10008000430200084302000843020008430200083C
:10009000430200084302000843020008D903000895
:1000A000430200084302000843020008430200081C
:1000B000430200084302000843020008430200080C
:1000C00043020008430200084302000843020008FC
:1000D00043020008010A0008430200084302000826
:1000E00043020008430200084302000843020008DC
:1000F00043020008430200084302000843020008CC
:1001000043020008430200084302000843020008BB
:1001100043020008430200084302000843020008AB
:10012000430200084302000843020008430200089B
:10013000430200084302000843020008430200088B
:10014000430200084302000843020008430200087B
:10015000430200084302000843020008430200086B
:10016000430200084302000843020008430200085B
:10017000430200084302000843020008430200084B
:10018000430200084302000800F002F800F03CF8C7
:100190000AA090E8000C82448344AAF10107DA45E2
:1001A00001D100F031F8AFF2090EBAE80F0013F0F8
:1001B000010F18BFFB1A43F0010318470C0D000094
:1001C0002C0D0000103A24BF78C878C1FAD8520725
:1001D00024BF30C830C144BF04680C6070470000C1
:1001E0000023002400250026103A28BF78C1FBD840
:1001F000520728BF30C148BF0B6070471FB500F0E1
:100200005DFE1FBD10B510BD00F06EF81146FFF782
:10021000F5FF00F02BFE00F0A0F803B4FFF7F2FFAB
:1002200003BC00F007FE000009488047094800476A
:10023000FEE7FEE7FEE7FEE7FEE7FEE7FEE7FEE796
:10024000FEE7FEE704480549054A064B70470000F3
:10025000990900088901000878000020780600202C
:100260007802002078020020704700000FB4044993
:1002700010B503AA029800F009F810BC5DF814FB51
:10028000000000207047704770477047074B70B5FB
:100290000D467B4400F011F80446284600F020F893
:1002A00010B14FF0FF3070BD204670BDBB0B000099
:1002B00001694A1C02610878704700B58FB0CDE92A
:1002C00001310021059105497944CDE9031011461A
:1002D000684600F02EF80FB000BD0000E5FFFFFFFC
:1002E000007B00F080007047754600F03DF8AE4698
:1002F00005006946534620F00700854618B020B532
:10030000FFF7A0FFBDE820404FF000064FF00007C8
:100310004FF000084FF0000B21F00701AC46ACE8AD
:10032000C009ACE8C009ACE8C009ACE8C0098D461A
:1003300070472DE9F04106460024D6E90170F568C2
:100340008046304603E04146B847641C3046A84723
:100350000028F8D12046BDE8F0810446AFF30080C4
:100360002046FFF75AFF00000048704718000020A1
:1003700010B5012000F05AF8012823D10A2000F01E
:100380005CFD1148006900F00100D8B10F48006819
:1003900040F001000D4908600D48006880F0400001
:1003A0000B4908600846006880F400700860084641
:1003B000006880F4806008600648006880F00100F2
:1003C0000449086010BD000000000240143C0140D8
:1003D000141402401408024010B5202000F026F842
:1003E00001281BD10E48006840F020000C4908602D
:1003F0000C48006880F040000A4908600846006820
:1004000080F4007008600846006880F4806008602E
:100410000548006880F001000349086010BD000035
:10042000143C01401414024014080240014600200C
:10043000034A12680A400AB1012000E00020704718
:10044000143C0140F0B50A4600210023002400BFFF
:100450003DE0012505FA01F3156805EA03049C4215
:1004600034D105684F000326BE40B54305601579B9
:100470004E00B5400668354305601579012D02D060
:100480001579022D16D185684F000326BE40B5436D
:10049000856055794E00B54086683543856045686E
:1004A00001268E40B5434560456896798E40B6B2C8
:1004B00035434560C5684F000326BE40B543C5605F
:1004C000D5794E00B540C6683543C560491C102932
:1004D000BFD3F0BDF0B5002300244D07ED0E02FAA6
:1004E00005F3CE1000F1200555F826504E07F70E03
:1004F0000F26BE40B543CF1000F1200646F8275026
:10050000CE1000F1200555F8265045EA0304CE1020
:1005100000F1200545F82640F0BD41837047018376
:10052000704700001CB50121202000F07BF801215C
:10053000042000F077F84FF4C860009001208DF897
:10054000040000208DF807008DF8060002208DF8C9
:10055000050069460E48FFF775FF012000908DF8F1
:10056000040000208DF807008DF8060002208DF8A9
:10057000050069460748FFF765FF4FF4C861044866
:10058000FFF7CDFF01210348FFF7C9FF1CBD0000A5
:10059000001402400008024070B5002100230F2221
:1005A000C4781CB3174C246804F4E064C4F5E06418
:1005B000C4F30721C1F10404E3B20A4144789C402A
:1005C000E1B28478144021430C07210E0E4C0578CB
:1005D0006155047804F01F050124AC4005786D11C5
:1005E000AD0005F1E025C5F8004109E0047804F00C
:1005F0001F050124AC40054D0678761145F82640CC
:1006000070BD00000CED00E000E400E080E100E0DF
:1006100002490143024A1160704700000000FA05D8
:100620000CED00E029B1064A12680243044B1A603F
:1006300004E0034A12688243014B1A6070470000CD
:100640003038024029B1064A12680243044B1A604E
:1006500004E0034A12688243014B1A6070470000AD
:1006600044380240F0B50021002200240225002673
:100670000223324F3F6807F00C0121B1042905D055
:10068000082937D105E02E4F076036E02D4F07606F
:1006900033E02A4F3F1F3F68C7F38056274F3F1F65
:1006A0003F6807F03F036EB1264FB7FBF3F7DFF863
:1006B0008CC0ACF1040CDCF800C0CCF3881C07FB48
:1006C0000CF40CE01E4FB7FBF3F7DFF870C0ACF191
:1006D000040CDCF800C0CCF3881C07FB0CF4174FAB
:1006E0003F1F3F68C7F301477F1C7D00B4FBF5F750
:1006F000076002E0124F076000BF00BF0F4F3F6866
:1007000007F0F0010909104F7A5C0768D74047608D
:100710000A4F3F6807F4E051890A0B4F7A5C47683B
:10072000D7408760054F3F6807F46041490B064F8B
:100730007A5C4768D740C760F0BD000008380240C7
:100740000024F40040787D010800002000B587B047
:1007500001210220FFF766FF01210803FFF772FF66
:100760003820059002208DF8180001208DF81B001C
:1007700000208DF81A0003208DF8190005A91A48E9
:10078000FFF760FE052203211748FFF7A3FE0522AD
:1007900004211548FFF79EFE052211461248FFF777
:1007A00099FE0020ADF800004FF48270ADF8020011
:1007B0000020ADF80400ADF80600ADF808004FF4D5
:1007C0000070ADF80A000820ADF80C000020ADF86C
:1007D0000E006946054800F041F80121034800F089
:1007E00023F807B000BD00000004024000300140C3
:1007F00010B5044600BF02210A4800F021F8002885
:10080000F9D02146074800F027F800BF012105482C
:1008100000F016F80028F9D0024800F01AF8C4B227
:10082000204610BD0030014021B1028842F0400254
:10083000028004E002884FF6BF731A4002807047BE
:100840000246002013890B400BB1012000E000207C
:1008500070470146888970478181704710B5002232
:10086000028802F441520B884C8823438C8823432E
:10087000CC8823430C8923434C8923438C8923430D
:10088000CC8923431A430280838B4FF2FF742340A9
:1008900083830B8A038210BD0CB500200190009069
:1008A0003448006840F480303249086000BF314865
:1008B000006800F4003000900198401C01900098FE
:1008C00018B90198B0F5A04FF1D12A48006800F49A
:1008D000003010B10120009001E00020009000984D
:1008E000012846D123484030006840F0805021491B
:1008F000403108602048006840F440401E490860CC
:100900001C48083000681B49083108600846006828
:1009100040F4004008600846006840F4A0500860B9
:100920001648091F0860081F006840F08070091F02
:10093000086000BF0F48006800F000700028F9D080
:1009400040F205700E4908600A480830006820F03F
:1009500003000849083108600846006840F00200BA
:10096000086000BF03480830006800F00C00082849
:10097000F8D10CBD00380240007000401954400707
:10098000003C02404FF0E020006920F004004FF0EE
:10099000E02108617047000010B51548006840F478
:1009A0007000134908601348006840F001001149C5
:1009B000086000200F49083108600E4800680E49A1
:1009C00008400C4908600D48091D0860081F0068B0
:1009D00020F48020091F0860002006490C310860BF
:1009E000FFF75AFF4FF0006001498039086010BDE1
:1009F00088ED00E000380240FFFFF6FE10300024D2
:100A000008B52021154800F099F8012814D11348A1
:100A100000F05AF9C0B200906A46012110480068FF
:100A200000F0AEF90E480068401C0D4908604FF414
:100A300000710C48FFF771FD40F22441074800F0B7
:100A40008AF8012808D105480088044880884FF4B6
:100A500000710448FFF763FD08BD0000001001406D
:100A6000040000200014024010B588B004460121A3
:100A70000846FFF7D7FD01211020FFF7E3FD4FF4F3
:100A8000C060069002208DF81C0001208DF81F0028
:100A900000208DF81E0002208DF81D0006A91F48B9
:100AA000FFF7D0FC072209211C48FFF713FD07229E
:100AB0000A211A48FFF70EFD02940020ADF80C0041
:100AC000ADF80E00ADF81000ADF814000C20ADF834
:100AD000120002A9124800F08DF8012240F22551BF
:100AE0000F4800F062F8012240F224410C4800F067
:100AF0005CF825208DF8040003208DF805008DF8A2
:100B0000060001208DF8070001A8FFF745FD01212F
:100B1000034800F007F808B010BD000000000240D4
:100B20000010014021B1828942F40052828104E028
:100B300082894DF6FF731A40828170470246002079
:100B4000B1F5007F00D100BF13880B400BB101202D
:100B500000E00020704770B5024600240023002505
:100B6000002040F66A16B14200D100BFC1F3421521
:100B700001F01F03012606FA03F3012D02D1968925
:100B8000334006E0022D02D1168A334001E0968AF6
:100B900033400C12012606FA04F41688344013B1CF
:100BA0000CB1012000E0002070BDF0B50346002428
:100BB00000260025002040F66A17B94200D100BF88
:100BC0001846C1F3421401F01F06012707FA06F583
:100BD000012C01D10C3004E0022C01D1103000E0D6
:100BE00014301AB107682F43076002E00768AF436B
:100BF0000760F0BD2DE9FF4705460E460024A146DB
:100C000000BFA046B08900B100BF2C8A24F4405434
:100C1000F08804432C82AC8941F20C608443B08894
:100C200031890843718908430443AC81AC8A24F4B8
:100C30004074B0890443AC826846FFF713FD204836
:100C4000854202D01F48854202D1DDF80C9001E0B8
:100C5000DDF80890A88900F4004040B109EBC90014
:100C600000EB091031684900B0FBF1F707E009EB30
:100C7000C90000EB091031688900B0FBF1F764206E
:100C8000B7FBF0F004012009642101FB1078A8896A
:100C900000F4004040B1322000EBC800B0FBF1F09E
:100CA00000F00700044308E0322000EB0810642144
:100CB000B0FBF1F000F00F0004432C81BDE8FF878A
:100CC000001001400014014001468888C0F308006C
:100CD0007047000010B5044600F09AF84FF48041C8
:100CE0000E48FFF71AFCD820FFF782FDC4F3074037
:100CF000FFF77EFDC4F30720FFF77AFDE0B2FFF7B0
:100D000077FD4FF480410548FFF709FC00BF00F074
:100D100069F800F001000028F9D110BD000402407C
:100D200070B505460C4606E02846FFF7D3FF05F5EB
:100D30008035601EC4B2002CF6D170BD1CB5FFF723
:100D400005FD01210220FFF76DFC4FF4804000906B
:100D500001208DF8040000208DF807008DF80600B2
:100D600003208DF8050069460448FFF76BFB4FF43C
:100D700080410248FFF7D3FB1CBD00000004024085
:100D800070B504460D46164600F042F84FF4804117
:100D90001348FFF7C2FB0220FFF72AFDC4F3074008
:100DA000FFF726FDC4F30720FFF722FDE0B2FFF7AF
:100DB0001FFD05E03078FFF71BFD761C681E85B22D
:100DC000002DF7D14FF480410548FFF7A8FB00BF85
:100DD00000F008F800F001000028F9D170BD000013
:100DE0000004024010B54FF480410848FFF795FB1E
:100DF0000520FFF7FDFCFF20FFF7FAFC04464FF447
:100E000080410248FFF78BFB204610BD00040240E2
:100E100010B54FF480410648FFF77FFB0620FFF72F
:100E2000E7FC4FF480410248FFF779FB10BD00005A
:100E300000040240014600BF704701464AF21042DA
:100E400001FB02F000E0401E0028FCD170470000CA
:100E500000BF054A128802F04002002AF9D0C2B24F
:100E6000014B9A8070470000001001404FF4A060D1
:100E7000FFF7CEFBFFF786FD4FF4E130FFF7F4FDFF
:100E8000FFF75CFFFFF74EFB06A0FFF7EFF9152118
:100E90004FF43020FFF744FF05A0FFF7E7F900BF4C
:100EA000FEE70000BFAACABCB2C1B3FD0D0A000034
:100EB000B2C1B3FDCDEAB3C90D0A00004FF04070D6
:100EC000E1EE100A70470000E80E00080000002064
:100ED00018000000C4010008000F000818000020DE
:100EE00060060000E00100080000000000000B00A8
:100EF00000000000010203040102030406070809C0
:040000050800018965
:00000001FF
