:020000040800F2
:1000000080060020CD010008D5010008D7010008B6
:10001000D9010008DB010008DD0100080000000034
:10002000000000000000000000000000DF010008E8
:10003000E101000800000000E3010008E5010008FC
:10004000E7010008E7010008E7010008E7010008F0
:10005000E7010008E7010008E7010008E7010008E0
:10006000E7010008E701000815030008E7010008A0
:10007000E7010008E7010008E7010008E7010008C0
:10008000E7010008E7010008E7010008E7010008B0
:10009000E7010008E7010008E7010008590300082C
:1000A000E7010008E7010008E7010008E701000890
:1000B000E7010008E7010008E7010008E701000880
:1000C000E7010008E7010008E7010008E701000870
:1000D000E701000881090008E7010008E7010008BE
:1000E000E7010008E7010008E7010008E701000850
:1000F000E7010008E7010008E7010008E701000840
:10010000E7010008E7010008E7010008E70100082F
:10011000E7010008E7010008E7010008E70100081F
:10012000E7010008E7010008E7010008E70100080F
:1001300000F002F800F03AF80AA090E8000C8244BF
:100140008344AAF10107DA4501D100F02FF8AFF29C
:10015000090EBAE80F0013F0010F18BFFB1A43F0A5
:1001600001031847280D0000480D0000103A24BF75
:1001700078C878C1FAD8520724BF30C830C144BF0C
:1001800004680C607047000000230024002500264E
:10019000103A28BF78C1FBD8520728BF30C148BFEA
:1001A0000B6070471FB51FBD10B510BD00F06EF895
:1001B0001146FFF7F7FF00F03FFE00F0A0F803B490
:1001C000FFF7F2FF03BC00F0E7FD0000094880479D
:1001D00009480047FEE7FEE7FEE7FEE7FEE7FEE729
:1001E000FEE7FEE7FEE7FEE704480549054A064B41
:1001F000704700002109000831010008800000203C
:10020000800600208002002080020020704700004D
:100210000FB4044910B503AA029800F009F810BC05
:100220005DF814FB0000002070477047704770476E
:10023000074B70B50D467B4400F011F80446284684
:1002400000F020F810B14FF0FF3070BD204670BDB7
:10025000E30B000001694A1C02610878704700B591
:100260008FB0CDE901310021059105497944CDE9EF
:1002700003101146684600F02EF80FB000BD0000D4
:10028000E5FFFFFF007B00F080007047754600F03F
:100290003DF8AE4605006946534620F00700854606
:1002A00018B020B5FFF7A0FFBDE820404FF00006D2
:1002B0004FF000074FF000084FF0000B21F007014E
:1002C000AC46ACE8C009ACE8C009ACE8C009ACE891
:1002D000C0098D4670472DE9F04106460024D6E955
:1002E0000170F5688046304603E04146B847641C1B
:1002F0003046A8470028F8D12046BDE8F0810446E2
:10030000AFF300802046FFF75AFF00000048704717
:100310001C00002010B5102000F036F8012813D181
:100320000A2000F05AFD0948006800F0100058B992
:100330000748006840F0100005490860054800685B
:1003400080F020000349086010BD0000081801403B
:10035000140401400C0C014010B5202000F014F8EA
:1003600001280BD10648006840F0200004490860CD
:100370000448006880F020000249086010BD0000B9
:10038000140401400C0C014001460020034A12688D
:100390000A400AB1012000E0002070471404014027
:1003A0002DE9F0410246002500260020002300240C
:1003B000002791F803C00CF00F0591F803C00CF072
:1003C000100CBCF1000F03D091F802C04CEA0505F7
:1003D00091F800C0BCF1000F31D0146800202BE070
:1003E0004FF0010C0CFA00F3B1F800C00CEA030660
:1003F0009E4220D183004FF00F0C0CFA03F7BC4350
:1004000005FA03FC4CEA040491F803C0BCF1280F80
:1004100006D14FF0010C0CFA00FCC2F814C00AE03F
:1004200091F803C0BCF1480F05D14FF0010C0CFA54
:1004300000FCC2F810C0401C0828D1D31460B1F8E9
:1004400000C0BCF1FF0F34DD546800202EE000F145
:10045000080C4FF0010808FA0CF3B1F800C00CEAE0
:1004600003069E4221D183004FF00F0C0CFA03F7D4
:10047000BC4305FA03FC4CEA040491F803C0BCF148
:10048000280F05D100F1080C08FA0CF8C2F8148006
:1004900091F803C0BCF1480F07D100F1080C4FF0F0
:1004A000010808FA0CF8C2F81080401C0828CED3C6
:1004B0005460BDE8F0814161704701617047000000
:1004C00008B50121042000F099F80121402000F036
:1004D00095F81820ADF8000048208DF80300694613
:1004E0000648FFF75DFF0120ADF8000028208DF8D9
:1004F000030069460248FFF753FF08BD001801409A
:100500000008014008B50121082000F077F801211A
:10051000402000F073F82020ADF8000010208DF886
:10052000030003208DF8020069460948FFF738FFF1
:100530002020ADF8000069460648FFF731FF202172
:100540000348FFF7BAFF20210248FFF7B6FF08BDB6
:10055000000C01400018014070B5002100230F225B
:10056000C47804B3154C246804F4E064C4F5E06472
:10057000210AC1F10403CA40447804FA03F18478E3
:100580001440214309010E4C0678A155047804F06B
:100590001F050124AC4005786D11AD0005F1E02583
:1005A000C5F8004109E0047804F01F050124AC40BF
:1005B000044D0678761145F8264070BD0CED00E03C
:1005C00000E400E080E100E002490143024A1160DA
:1005D000704700000000FA050CED00E029B1064A62
:1005E000D2690243044BDA6104E0034AD2698243D0
:1005F000014BDA61704700000010024029B1064A41
:1006000092690243044B9A6104E0034A926982436F
:10061000014B9A61704700000010024030B5002184
:100620000022002400232D4D6D6805F00C0121B13E
:10063000042905D0082923D105E0294D056022E0D1
:10064000274D05601FE0254D6D6805F47012234DA0
:100650006D6805F48034022505EB92421CB9214DEA
:10066000554305600BE01D4D6D6805F400351DB167
:100670001C4D5543056002E0194D5543056002E0ED
:10068000174D056000BF00BF144D6D6805F0F00107
:100690000909154D6B5C0568DD4045600F4D6D68BF
:1006A00005F4E061090A104D6B5C4568DD4085602A
:1006B0000A4D6D6805F46051C90A0B4D6B5C4568C5
:1006C000DD40C560054D6D6805F44041890B074D5F
:1006D0006B5CC568B5FBF3F5056130BD00100240E9
:1006E00000127A0000093D000800002018000020D8
:1006F00000B587B001210820FFF780FF01218803A2
:10070000FFF76CFF4FF46040ADF8180018208DF82B
:100710001B0003208DF81A0006A91648FFF740FEBB
:100720004FF460411348FFF7C8FE0020ADF8040005
:100730004FF48270ADF806000020ADF80800ADF867
:100740000A00ADF80C004FF40070ADF80E00082060
:10075000ADF810000020ADF812000720ADF814002D
:1007600001A9054800F040F80121034800F022F8F3
:1007700007B000BD000C01400038004010B5044631
:1007800000BF02210A4800F021F80028F9D02146D4
:10079000074800F027F800BF0121054800F016F8CF
:1007A0000028F9D0024800F01AF8C4B2204610BD63
:1007B0000038004021B1028842F04002028004E08B
:1007C00002884FF6BF731A4002807047024600202D
:1007D00013890B400BB1012000E000207047014657
:1007E000888970478181704710B50022028802F421
:1007F00041520B884C8823438C882343CC88234365
:100800000C8923434C8923438C892343CC8923437C
:100810001A430280838B4FF2FF74234083830B8A39
:10082000038210BD10B500F001F810BD0CB500201A
:10083000019000903348006840F4803031490860EE
:1008400000BF3048006800F4003000900198401C60
:100850000190009818B90198B0F5A06FF1D129481E
:10086000006800F4003010B10120009001E0002089
:1008700000900098012843D12348006840F0100000
:10088000214908600846006820F003000860084617
:10089000006840F0020008601A4840681949486042
:1008A0000846406848600846406840F480604860F8
:1008B0000846406820F47C1048600846406840F4D0
:1008C000E81048600846006840F08070086000BF8B
:1008D0000C48006800F000700028F9D00948406812
:1008E00020F00300074948600846406840F00200D5
:1008F000486000BF0348406800F00C000828F9D1A8
:100900000CBD000000100240002002404FF0E0202B
:10091000006920F004004FF0E021086170470000FA
:1009200010B51348006840F00100114908600846FE
:100930004068104908400E494860084600680E4962
:1009400008400B4908600846006820F480200860D1
:100950000846406820F4FE0048604FF41F0088609D
:10096000FFF760FF4FF000600449086010BD000011
:10097000001002400000FFF8FFFFF6FE08ED00E067
:1009800008B52021144800F095F8012813D1124829
:10099000001D0088C0B200906A4601210F4800681F
:1009A00000F0A2F90D480068401C0C4908602021A5
:1009B0000B48FFF780FD40F22441074800F087F81C
:1009C000012808D1044800880348001D0088202120
:1009D0000348FFF772FD08BD003801400400002005
:1009E0000018014010B586B0044601210420FFF72D
:1009F00005FE01218803FFF701FE4FF40070ADF8FA
:100A0000140018208DF8170003208DF8160005A992
:100A10002048FFF7C5FC4FF48060ADF814000420B7
:100A20008DF8170003208DF8160005A91948FFF767
:100A3000B7FC01940020ADF80800ADF80A00ADF84D
:100A40000C00ADF810000C20ADF80E0001A9124802
:100A500000F08CF8012240F225510F4800F061F8B7
:100A6000012240F224410C4800F05BF825208DF86B
:100A7000000001208DF801008DF802008DF80300C0
:100A80006846FFF769FD0121034800F007F806B04A
:100A900010BD0000000801400038014021B18289EA
:100AA00042F40052828104E082894DF6FF731A40BD
:100AB0008281704702460020B1F5007F00D100BF5F
:100AC00013880B400BB1012000E00020704770B587
:100AD0000246002400230025002040F66A16B14299
:100AE00000D100BFC1F3421501F01F03012606FA31
:100AF00003F3012D02D19689334006E0022D02D185
:100B0000168A334001E0968A33400C12012606FA19
:100B100004F41688344013B10CB1012000E0002029
:100B200070BDF0B50346002400260025002040F6E5
:100B30006A17B94200D100BF1846C1F3421401F050
:100B40001F06012707FA06F5012C01D10C3004E03D
:100B5000022C01D1103000E014301AB107682F4385
:100B6000076002E00768AF430760F0BD2DE9F0477A
:100B700086B005460E460024A24600BFA1460027C7
:100B8000B08900B100BF2F462C8A4CF6FF7004409C
:100B9000F08804432C82AC894EF6F3100440B088F0
:100BA00031890843718908430443AC81AC8A4FF60C
:100BB000FF400440B0890443AC8201A8FFF72EFD3A
:100BC0001F48874202D1DDF810A001E0DDF80CA03B
:100BD000A88900F4004040B10AEBCA0000EB0A10FB
:100BE00031684900B0FBF1F807E00AEBCA0000EBFE
:100BF0000A1031688900B0FBF1F86420B8FBF0F00E
:100C000004012009642101FB1089A88900F4004037
:100C100040B1322000EBC900B0FBF1F000F007005A
:100C2000044308E0322000EB09106421B0FBF1F02E
:100C300000F00F0004432C8106B0BDE8F0870000EF
:100C40000038014010B5044600F094F84FF480518C
:100C50000E48FFF730FCD820FFF790FDC4F30740A3
:100C6000FFF78CFDC4F30720FFF788FDE0B2FFF724
:100C700085FD4FF480510548FFF71FFC00BF00F0D1
:100C800063F800F001000028F9D110BD000C01400C
:100C900070B505460C4606E02846FFF7D3FF05F57C
:100CA0008035601EC4B2002CF6D170BD08B5FFF7C8
:100CB0001FFD01210820FFF7A1FC4FF48050ADF883
:100CC000000010208DF8030003208DF80200694613
:100CD0000448FFF765FB4FF480510248FFF7EDFB36
:100CE00008BD0000000C014070B504460D461646D4
:100CF00000F040F84FF480511248FFF7DCFB02206F
:100D0000FFF73CFDC4F30740FFF738FDC4F30720AD
:100D1000FFF734FDE0B2FFF731FD04E03078FFF774
:100D20002DFD761C6D1E002DF8D14FF48051054825
:100D3000FFF7C3FB00BF00F007F800F00100002838
:100D4000F9D170BD000C014010B54FF48051084836
:100D5000FFF7B1FB0520FFF711FDFF20FFF70EFDA8
:100D600004464FF480510248FFF7A7FB204610BD10
:100D7000000C014010B54FF480510648FFF79BFB73
:100D80000620FFF7FBFC4FF480510248FFF795FB6C
:100D900010BD0000000C0140014600BF7047FF215C
:100DA0004FF0E022916142F22831414351611146F6
:100DB000096941F00101116100BF4FF0E0210969AB
:100DC00001F480310029F8D04FF0E021096921F0C9
:100DD00001014FF0E0221161704730B50346002554
:100DE000B3F5E96F03DC1846FFF7D9FF15E004E01F
:100DF000A3F5E96083B2681CC5B2B3F5E96FF7DA11
:100E0000002405E04FF4E960FFF7C9FF601CC4B29D
:100E1000AC42F7DB1846FFF7C2FF30BD00BF054A02
:100E2000128802F04002002AF9D0C2B2014B1B1D09
:100E30001A80704700380140FFF768FD4FF4A0604A
:100E4000FFF7C2FBFFF75EFB4FF4E130FFF7CAFD8F
:100E5000FFF736FBFFF72AFF06A0FFF7D9F91521A8
:100E60004FF43020FFF714FF05A0FFF7D1F900BFC2
:100E7000FEE70000BFAACABCB2C1B3FD0D0A000064
:100E8000B2C1B3FDCDEAB3C90D0A0000AC0E000833
:100E9000000000201C0000006C010008C80E0008C3
:100EA0001C0000206406000088010008000000000B
:100EB00000000B0000000000010203040102030413
:080EC0000607080902040608F8
:0400000508000131BD
:00000001FF
