:020000040800F2
:10000000480B0020150200087506000819060008B4
:1000100071060008C5020008750A0008000000000B
:100020000000000000000000000000008D07000834
:10003000F9040008000000007706000879080008AD
:100040002F0200082F0200082F0200082F020008CC
:100050002F0200082F0200082F0200082F020008BC
:100060002F0200082F0200082F0200082F020008AC
:100070002F0200082F0200082F0200082F0200089C
:100080002F0200082F0200082F0200082F0200088C
:100090002F0200082F0200082F0200082F0200087C
:1000A0002F0200082F0200082F0200082F0200086C
:1000B0002F0200082F0200082F0200082F0200085C
:1000C0002F0200082F0200082F0200082F0200084C
:1000D0002F0200082F0200082F0200082F0200083C
:1000E0002F0200082F0200082F0200082F0200082C
:1000F0002F0200082F0200082F0200082F0200081C
:100100002F0200082F0200082F0200082F0200080B
:100110002F0200082F0200082F0200082F020008FB
:100120002F0200082F0200082F0200082F020008EB
:1001300000F002F800F05EF80AA090E8000C82449B
:100140008344AAF10107DA4501D100F053F8AFF278
:10015000090EBAE80F0013F0010F18BFFB1A43F0A5
:1001600001031847DC090000FC09000010F8013BFE
:100170000A4413F0030408BF10F8014B1D1108BF17
:1001800010F8015B641E05D010F8016B641E01F8C5
:10019000016BF9D1002D15D010F8014B03F00C03C1
:1001A0000C2BA1EB04040ABF10F8013BA4EB831451
:1001B000A4EB032405F1010314F8016B5B1E01F8A5
:1001C000016BF9D5914238BF10F8013BD1D370478C
:1001D0000023002400250026103A28BF78C1FBD850
:1001E000520728BF30C148BF0B6070471FB51FBD05
:1001F00010B510BD00F033F81146FFF7F7FF00F01F
:100200007DFC00F051F803B4FFF7F2FF03BC00F0EF
:1002100033FC00000948804709480047FEE7FEE735
:10022000FEE7FEE7FEE7FEE7FEE7FEE7FEE7FEE7A6
:1002300004480549054A064B70470000910800082C
:100240003101000848050020480B00204807002025
:1002500048070020704770477047704770477546E1
:1002600000F02CF8AE4605006946534620F0070022
:10027000854618B020B5FFF7DBFFBDE820404FF002
:1002800000064FF000074FF000084FF0000B21F080
:100290000701AC46ACE8C009ACE8C009ACE8C0094D
:1002A000ACE8C0098D46704710B50446AFF3008036
:1002B0002046BDE81040FFF7A6BF00000048704789
:1002C000E404002000BFFEE710B504460021094801
:1002D00000F042F800BF07484438406C00F00100CD
:1002E0000028F8D10348443884640121014800F013
:1002F00033F810BD4400024010B58CB00446012113
:10030000084600F0B9F9052000F0D6FB104800F0CF
:100310002FF81048019002941020039000200490C0
:1003200005908020069000200790089009904FF4D7
:1003300080500A9000200B9001A9054800F0BEF8FB
:10034000012280210348001F00F01EFB0CB010BDED
:10035000440002400438014021B1026842F0010229
:10036000026004E002684FF6FE731A4002607047B4
:1003700001684FF6FE72114001600021016041608A
:100380008160C1604B49884208D14A4908394968AF
:1003900041F00F01474A083A51608AE0454914315B
:1003A000884208D143490839496841F0F001414A7F
:1003B000083A51607DE03F492831884208D13D49E3
:1003C0000839496841F470613A4A083A516070E06E
:1003D00038493C31884208D136490839496841F4E6
:1003E0007041344A083A516063E0324950318842E2
:1003F00008D130490839496841F470212D4A083A3A
:10040000516056E02B496431884208D129490839A6
:10041000496841F47001274A083A516049E025498A
:100420007831884208D123490839496841F0706120
:10043000204A083A51603CE01F49884206D1011F1A
:10044000096841F00F01021F116032E01A491431AE
:10045000884208D11849091F096841F0F001164A7D
:10046000121F116025E014492831884208D1124931
:10047000091F096841F470610F4A121F116018E0EA
:100480000D493C31884208D10B49091F096841F4E4
:100490007041094A121F11600BE007495031884230
:1004A00007D10549091F096841F47021024A121F4A
:1004B00011607047080002400804024010B5002295
:1004C000026847F6F0739A430C6A8B6823430C6901
:1004D00023434C6923438C692343CC6923434C6AEF
:1004E00023438C6A23431A430260CB6843600B6842
:1004F00083604B68C36010BD70472DE9F041024630
:1005000000250026002000230024002791F803C0C6
:100510000CF00F0591F803C00CF0100CBCF1000FAB
:1005200003D091F802C04CEA050591F800C0BCF177
:10053000000F31D0146800202BE04FF0010C0CFAB2
:1005400000F3B1F800C00CEA03069E4220D18300FC
:100550004FF00F0C0CFA03F7BC4305FA03FC4CEA0E
:10056000040491F803C0BCF1280F06D14FF0010C30
:100570000CFA00FCC2F814C00AE091F803C0BCF108
:10058000480F05D14FF0010C0CFA00FCC2F810C066
:10059000401C0828D1D31460B1F800C0BCF1FF0F93
:1005A00034DD546800202EE000F1080C4FF0010803
:1005B00008FA0CF3B1F800C00CEA03069E4221D100
:1005C00083004FF00F0C0CFA03F7BC4305FA03FC51
:1005D0004CEA040491F803C0BCF1280F05D100F1E6
:1005E000080C08FA0CF8C2F8148091F803C0BCF1AA
:1005F000480F07D100F1080C4FF0010808FA0CF879
:10060000C2F81080401C0828CED35460BDE8F081A9
:10061000416170470161704700BFFEE708B50121E5
:10062000082000F039F80121402000F035F82020A2
:10063000ADF8000010208DF8030003208DF80200B3
:1006400069460948FFF759FF2020ADF800006946C8
:100650000648FFF752FF20210348FFF7DBFF202168
:100660000248FFF7D7FF08BD000C01400018014009
:1006700000BFFEE77047704729B1064A526902433E
:10068000044B5A6104E0034A52698243014B5A61A8
:10069000704700000010024029B1064A92690243E7
:1006A000044B9A6104E0034A92698243014B9A61C8
:1006B000704700000010024030B5002100220024E5
:1006C00000232D4D6D6805F00C0121B1042905D0E2
:1006D000082923D105E0294D056022E0274D05605A
:1006E0001FE0254D6D6805F47012234D6D6805F40B
:1006F0008034022505EB92421CB9214D554305601B
:100700000BE01D4D6D6805F400351DB11C4D5543C2
:10071000056002E0194D5543056002E0174D056084
:1007200000BF00BF144D6D6805F0F0010909154DBB
:100730006B5C0568DD4045600F4D6D6805F4E06158
:10074000090A104D6B5C4568DD4085600A4D6D6897
:1007500005F46051C90A0B4D6B5C4568DD40C5600E
:10076000054D6D6805F44041890B074D6B5CC5680C
:10077000B5FBF3F5056130BD0010024000127A00B0
:1007800000093D00D0040020E0040020704710B5AF
:1007900000F002F810BD00000CB5002001900090A0
:1007A0003348006840F480303149086000BF304869
:1007B000006800F4003000900198401C01900098FF
:1007C00018B90198B0F5A06FF1D12948006800F47C
:1007D000003010B10120009001E00020009000984E
:1007E000012843D12348006840F0100021490860E7
:1007F0000846006820F0030008600846006840F0E2
:10080000020008601A484068194948600846406874
:1008100048600846406840F4806048600846406888
:1008200020F47C1048600846406840F4E8104860B6
:100830000846006840F08070086000BF0C480068FF
:1008400000F000700028F9D00948406820F003004B
:10085000074948600846406840F00200486000BF11
:100860000348406800F00C000828F9D10CBD0000D6
:100870000010024000200240704700204FF0E021AD
:1008800008610846006920F0040008617047000014
:1008900010B51348006840F001001149086008468F
:1008A0004068104908400E494860084600680E49F3
:1008B00008400B4908600846006820F48020086062
:1008C0000846406820F4FE0048604FF41F0088602E
:1008D000FFF75DFF4FF000600449086010BD0000A5
:1008E000001002400000FFF8FFFFF6FE08ED00E0F8
:1008F00010B586B00446012144F20400FFF7CCFE97
:100900004FF40070ADF8140018208DF81700032084
:100910008DF8160005A91448FFF7EFFD4FF480602D
:10092000ADF8140004208DF8170003208DF8160090
:1009300005A90D48FFF7E1FD01940020ADF808007E
:10094000ADF80A00ADF80C00ADF810000C20ADF8C1
:100950000E0001A9054800F021F80121034800F02C
:1009600007F806B010BD0000000801400038014043
:1009700021B1828942F40052828104E082894DF6DD
:10098000FF731A40828170471AB1838A0B438382B6
:1009900002E0838A8B438382704700002DE9F04791
:1009A00086B005460E460024A24600BFA146002799
:1009B000B08900B100BF2F462C8A4CF6FF7004406E
:1009C000F08804432C82AC894EF6F3100440B088C2
:1009D00031890843718908430443AC81AC8A4FF6DE
:1009E000FF400440B0890443AC8201A8FFF764FED5
:1009F0001F48874202D1DDF810A001E0DDF80CA00D
:100A0000A88900F4004040B10AEBCA0000EB0A10CC
:100A100031684900B0FBF1F807E00AEBCA0000EBCF
:100A20000A1031688900B0FBF1F86420B8FBF0F0DF
:100A300004012009642101FB1089A88900F4004009
:100A400040B1322000EBC900B0FBF1F000F007002C
:100A5000044308E0322000EB09106421B0FBF1F000
:100A600000F00F0004432C8106B0BDE8F0870000C1
:100A70000038014000BFFEE700BF7047FF214FF084
:100A8000E022916142F228314143516111460969E6
:100A900041F00101116100BF4FF0E021096901F44B
:100AA00080310029F8D04FF0E021096921F00101DF
:100AB0004FF0E0221161704730B503460025B3F5D1
:100AC000E96F03DC1846FFF7D9FF15E004E0A3F552
:100AD000E96083B2681C85B2B3F5E96FF7DA0024E8
:100AE00005E04FF4E960FFF7C9FF601C84B2AC4237
:100AF000F7DB1846FFF7C2FF30BD0000FFF7BDFE71
:100B00004FF41650FFF7F4FEFFF788FD0A48FFF791
:100B1000F3FB4FF49A60FFF7D7FB20210748FFF75C
:100B200077FD4FF4FA60FFF7C7FF20210348FFF776
:100B300071FD00BFFEE7000000000020001801402A
:100B4000600B000800000020E40400006C010008B5
:100B5000000C0008E404002064060000D001000836
:100B600030049701B702610812D80412B802D2D833
:100B7000021004F801F90232F808A3190202B2398E
:100B8000022110325914125A0241066102E0057A1C
:100B90000A7A0202B29A021004BB02BA042102329B
:100BA000DB0252DA081004DB02FB0212DB1E610CCE
:100BB0006102611A4007FB021B031B03064102127C
:100BC0003C02325C042106810220045C035D0203C6
:100BD000130B7D02011618610205FF3005FF300579
:100BE000FF30058B30E130120001200501020304C3
:100BF00004000900060708090204060800000000B6
:0400000508000131BD
:00000001FF
